{
  "_format": "hh-sol-artifact-1",
  "contractName": "TradeClub_GovernanceToken",
  "sourceName": "src/TradeClub_GovernanceToken.sol",
  "abi": [
    {
      "inputs": [],
      "stateMutability": "nonpayable",
      "type": "constructor"
    },
    {
      "inputs": [],
      "name": "CheckpointUnorderedInsertion",
      "type": "error"
    },
    {
      "inputs": [],
      "name": "ECDSAInvalidSignature",
      "type": "error"
    },
    {
      "inputs": [
        {
          "internalType": "uint256",
          "name": "length",
          "type": "uint256"
        }
      ],
      "name": "ECDSAInvalidSignatureLength",
      "type": "error"
    },
    {
      "inputs": [
        {
          "internalType": "bytes32",
          "name": "s",
          "type": "bytes32"
        }
      ],
      "name": "ECDSAInvalidSignatureS",
      "type": "error"
    },
    {
      "inputs": [
        {
          "internalType": "uint256",
          "name": "increasedSupply",
          "type": "uint256"
        },
        {
          "internalType": "uint256",
          "name": "cap",
          "type": "uint256"
        }
      ],
      "name": "ERC20ExceededSafeSupply",
      "type": "error"
    },
    {
      "inputs": [
        {
          "internalType": "address",
          "name": "spender",
          "type": "address"
        },
        {
          "internalType": "uint256",
          "name": "allowance",
          "type": "uint256"
        },
        {
          "internalType": "uint256",
          "name": "needed",
          "type": "uint256"
        }
      ],
      "name": "ERC20InsufficientAllowance",
      "type": "error"
    },
    {
      "inputs": [
        {
          "internalType": "address",
          "name": "sender",
          "type": "address"
        },
        {
          "internalType": "uint256",
          "name": "balance",
          "type": "uint256"
        },
        {
          "internalType": "uint256",
          "name": "needed",
          "type": "uint256"
        }
      ],
      "name": "ERC20InsufficientBalance",
      "type": "error"
    },
    {
      "inputs": [
        {
          "internalType": "address",
          "name": "approver",
          "type": "address"
        }
      ],
      "name": "ERC20InvalidApprover",
      "type": "error"
    },
    {
      "inputs": [
        {
          "internalType": "address",
          "name": "receiver",
          "type": "address"
        }
      ],
      "name": "ERC20InvalidReceiver",
      "type": "error"
    },
    {
      "inputs": [
        {
          "internalType": "address",
          "name": "sender",
          "type": "address"
        }
      ],
      "name": "ERC20InvalidSender",
      "type": "error"
    },
    {
      "inputs": [
        {
          "internalType": "address",
          "name": "spender",
          "type": "address"
        }
      ],
      "name": "ERC20InvalidSpender",
      "type": "error"
    },
    {
      "inputs": [
        {
          "internalType": "uint256",
          "name": "deadline",
          "type": "uint256"
        }
      ],
      "name": "ERC2612ExpiredSignature",
      "type": "error"
    },
    {
      "inputs": [
        {
          "internalType": "address",
          "name": "signer",
          "type": "address"
        },
        {
          "internalType": "address",
          "name": "owner",
          "type": "address"
        }
      ],
      "name": "ERC2612InvalidSigner",
      "type": "error"
    },
    {
      "inputs": [
        {
          "internalType": "uint256",
          "name": "timepoint",
          "type": "uint256"
        },
        {
          "internalType": "uint48",
          "name": "clock",
          "type": "uint48"
        }
      ],
      "name": "ERC5805FutureLookup",
      "type": "error"
    },
    {
      "inputs": [],
      "name": "ERC6372InconsistentClock",
      "type": "error"
    },
    {
      "inputs": [
        {
          "internalType": "address",
          "name": "account",
          "type": "address"
        },
        {
          "internalType": "uint256",
          "name": "currentNonce",
          "type": "uint256"
        }
      ],
      "name": "InvalidAccountNonce",
      "type": "error"
    },
    {
      "inputs": [],
      "name": "InvalidShortString",
      "type": "error"
    },
    {
      "inputs": [
        {
          "internalType": "address",
          "name": "owner",
          "type": "address"
        }
      ],
      "name": "OwnableInvalidOwner",
      "type": "error"
    },
    {
      "inputs": [
        {
          "internalType": "address",
          "name": "account",
          "type": "address"
        }
      ],
      "name": "OwnableUnauthorizedAccount",
      "type": "error"
    },
    {
      "inputs": [
        {
          "internalType": "uint8",
          "name": "bits",
          "type": "uint8"
        },
        {
          "internalType": "uint256",
          "name": "value",
          "type": "uint256"
        }
      ],
      "name": "SafeCastOverflowedUintDowncast",
      "type": "error"
    },
    {
      "inputs": [
        {
          "internalType": "string",
          "name": "str",
          "type": "string"
        }
      ],
      "name": "StringTooLong",
      "type": "error"
    },
    {
      "inputs": [
        {
          "internalType": "uint256",
          "name": "expiry",
          "type": "uint256"
        }
      ],
      "name": "VotesExpiredSignature",
      "type": "error"
    },
    {
      "anonymous": false,
      "inputs": [
        {
          "indexed": true,
          "internalType": "address",
          "name": "owner",
          "type": "address"
        },
        {
          "indexed": true,
          "internalType": "address",
          "name": "spender",
          "type": "address"
        },
        {
          "indexed": false,
          "internalType": "uint256",
          "name": "value",
          "type": "uint256"
        }
      ],
      "name": "Approval",
      "type": "event"
    },
    {
      "anonymous": false,
      "inputs": [
        {
          "indexed": true,
          "internalType": "address",
          "name": "delegator",
          "type": "address"
        },
        {
          "indexed": true,
          "internalType": "address",
          "name": "fromDelegate",
          "type": "address"
        },
        {
          "indexed": true,
          "internalType": "address",
          "name": "toDelegate",
          "type": "address"
        }
      ],
      "name": "DelegateChanged",
      "type": "event"
    },
    {
      "anonymous": false,
      "inputs": [
        {
          "indexed": true,
          "internalType": "address",
          "name": "delegate",
          "type": "address"
        },
        {
          "indexed": false,
          "internalType": "uint256",
          "name": "previousVotes",
          "type": "uint256"
        },
        {
          "indexed": false,
          "internalType": "uint256",
          "name": "newVotes",
          "type": "uint256"
        }
      ],
      "name": "DelegateVotesChanged",
      "type": "event"
    },
    {
      "anonymous": false,
      "inputs": [],
      "name": "EIP712DomainChanged",
      "type": "event"
    },
    {
      "anonymous": false,
      "inputs": [
        {
          "indexed": true,
          "internalType": "address",
          "name": "minter",
          "type": "address"
        }
      ],
      "name": "MinterAdded",
      "type": "event"
    },
    {
      "anonymous": false,
      "inputs": [
        {
          "indexed": true,
          "internalType": "address",
          "name": "minter",
          "type": "address"
        }
      ],
      "name": "MinterRemoved",
      "type": "event"
    },
    {
      "anonymous": false,
      "inputs": [
        {
          "indexed": true,
          "internalType": "address",
          "name": "previousOwner",
          "type": "address"
        },
        {
          "indexed": true,
          "internalType": "address",
          "name": "newOwner",
          "type": "address"
        }
      ],
      "name": "OwnershipTransferred",
      "type": "event"
    },
    {
      "anonymous": false,
      "inputs": [
        {
          "indexed": true,
          "internalType": "address",
          "name": "from",
          "type": "address"
        },
        {
          "indexed": true,
          "internalType": "address",
          "name": "to",
          "type": "address"
        },
        {
          "indexed": false,
          "internalType": "uint256",
          "name": "value",
          "type": "uint256"
        }
      ],
      "name": "Transfer",
      "type": "event"
    },
    {
      "inputs": [],
      "name": "CLOCK_MODE",
      "outputs": [
        {
          "internalType": "string",
          "name": "",
          "type": "string"
        }
      ],
      "stateMutability": "pure",
      "type": "function"
    },
    {
      "inputs": [],
      "name": "DOMAIN_SEPARATOR",
      "outputs": [
        {
          "internalType": "bytes32",
          "name": "",
          "type": "bytes32"
        }
      ],
      "stateMutability": "view",
      "type": "function"
    },
    {
      "inputs": [],
      "name": "MAX_SUPPLY",
      "outputs": [
        {
          "internalType": "uint256",
          "name": "",
          "type": "uint256"
        }
      ],
      "stateMutability": "view",
      "type": "function"
    },
    {
      "inputs": [
        {
          "internalType": "address",
          "name": "minter",
          "type": "address"
        }
      ],
      "name": "addMinter",
      "outputs": [],
      "stateMutability": "nonpayable",
      "type": "function"
    },
    {
      "inputs": [
        {
          "internalType": "address",
          "name": "owner",
          "type": "address"
        },
        {
          "internalType": "address",
          "name": "spender",
          "type": "address"
        }
      ],
      "name": "allowance",
      "outputs": [
        {
          "internalType": "uint256",
          "name": "",
          "type": "uint256"
        }
      ],
      "stateMutability": "view",
      "type": "function"
    },
    {
      "inputs": [
        {
          "internalType": "address",
          "name": "spender",
          "type": "address"
        },
        {
          "internalType": "uint256",
          "name": "value",
          "type": "uint256"
        }
      ],
      "name": "approve",
      "outputs": [
        {
          "internalType": "bool",
          "name": "",
          "type": "bool"
        }
      ],
      "stateMutability": "nonpayable",
      "type": "function"
    },
    {
      "inputs": [
        {
          "internalType": "address",
          "name": "account",
          "type": "address"
        }
      ],
      "name": "balanceOf",
      "outputs": [
        {
          "internalType": "uint256",
          "name": "",
          "type": "uint256"
        }
      ],
      "stateMutability": "view",
      "type": "function"
    },
    {
      "inputs": [
        {
          "internalType": "uint256",
          "name": "value",
          "type": "uint256"
        }
      ],
      "name": "burn",
      "outputs": [],
      "stateMutability": "nonpayable",
      "type": "function"
    },
    {
      "inputs": [
        {
          "internalType": "address",
          "name": "account",
          "type": "address"
        },
        {
          "internalType": "uint256",
          "name": "value",
          "type": "uint256"
        }
      ],
      "name": "burnFrom",
      "outputs": [],
      "stateMutability": "nonpayable",
      "type": "function"
    },
    {
      "inputs": [
        {
          "internalType": "address",
          "name": "account",
          "type": "address"
        },
        {
          "internalType": "uint32",
          "name": "pos",
          "type": "uint32"
        }
      ],
      "name": "checkpoints",
      "outputs": [
        {
          "components": [
            {
              "internalType": "uint48",
              "name": "_key",
              "type": "uint48"
            },
            {
              "internalType": "uint208",
              "name": "_value",
              "type": "uint208"
            }
          ],
          "internalType": "struct Checkpoints.Checkpoint208",
          "name": "",
          "type": "tuple"
        }
      ],
      "stateMutability": "view",
      "type": "function"
    },
    {
      "inputs": [],
      "name": "clock",
      "outputs": [
        {
          "internalType": "uint48",
          "name": "",
          "type": "uint48"
        }
      ],
      "stateMutability": "view",
      "type": "function"
    },
    {
      "inputs": [],
      "name": "decimals",
      "outputs": [
        {
          "internalType": "uint8",
          "name": "",
          "type": "uint8"
        }
      ],
      "stateMutability": "view",
      "type": "function"
    },
    {
      "inputs": [
        {
          "internalType": "address",
          "name": "delegatee",
          "type": "address"
        }
      ],
      "name": "delegate",
      "outputs": [],
      "stateMutability": "nonpayable",
      "type": "function"
    },
    {
      "inputs": [
        {
          "internalType": "address",
          "name": "delegatee",
          "type": "address"
        },
        {
          "internalType": "uint256",
          "name": "nonce",
          "type": "uint256"
        },
        {
          "internalType": "uint256",
          "name": "expiry",
          "type": "uint256"
        },
        {
          "internalType": "uint8",
          "name": "v",
          "type": "uint8"
        },
        {
          "internalType": "bytes32",
          "name": "r",
          "type": "bytes32"
        },
        {
          "internalType": "bytes32",
          "name": "s",
          "type": "bytes32"
        }
      ],
      "name": "delegateBySig",
      "outputs": [],
      "stateMutability": "nonpayable",
      "type": "function"
    },
    {
      "inputs": [
        {
          "internalType": "address",
          "name": "account",
          "type": "address"
        }
      ],
      "name": "delegates",
      "outputs": [
        {
          "internalType": "address",
          "name": "",
          "type": "address"
        }
      ],
      "stateMutability": "view",
      "type": "function"
    },
    {
      "inputs": [],
      "name": "eip712Domain",
      "outputs": [
        {
          "internalType": "bytes1",
          "name": "fields",
          "type": "bytes1"
        },
        {
          "internalType": "string",
          "name": "name",
          "type": "string"
        },
        {
          "internalType": "string",
          "name": "version",
          "type": "string"
        },
        {
          "internalType": "uint256",
          "name": "chainId",
          "type": "uint256"
        },
        {
          "internalType": "address",
          "name": "verifyingContract",
          "type": "address"
        },
        {
          "internalType": "bytes32",
          "name": "salt",
          "type": "bytes32"
        },
        {
          "internalType": "uint256[]",
          "name": "extensions",
          "type": "uint256[]"
        }
      ],
      "stateMutability": "view",
      "type": "function"
    },
    {
      "inputs": [
        {
          "internalType": "uint256",
          "name": "timepoint",
          "type": "uint256"
        }
      ],
      "name": "getPastTotalSupply",
      "outputs": [
        {
          "internalType": "uint256",
          "name": "",
          "type": "uint256"
        }
      ],
      "stateMutability": "view",
      "type": "function"
    },
    {
      "inputs": [
        {
          "internalType": "address",
          "name": "account",
          "type": "address"
        },
        {
          "internalType": "uint256",
          "name": "timepoint",
          "type": "uint256"
        }
      ],
      "name": "getPastVotes",
      "outputs": [
        {
          "internalType": "uint256",
          "name": "",
          "type": "uint256"
        }
      ],
      "stateMutability": "view",
      "type": "function"
    },
    {
      "inputs": [
        {
          "internalType": "address",
          "name": "account",
          "type": "address"
        }
      ],
      "name": "getVotes",
      "outputs": [
        {
          "internalType": "uint256",
          "name": "",
          "type": "uint256"
        }
      ],
      "stateMutability": "view",
      "type": "function"
    },
    {
      "inputs": [
        {
          "internalType": "address",
          "name": "to",
          "type": "address"
        },
        {
          "internalType": "uint256",
          "name": "amount",
          "type": "uint256"
        }
      ],
      "name": "mint",
      "outputs": [],
      "stateMutability": "nonpayable",
      "type": "function"
    },
    {
      "inputs": [
        {
          "internalType": "address",
          "name": "",
          "type": "address"
        }
      ],
      "name": "minters",
      "outputs": [
        {
          "internalType": "bool",
          "name": "",
          "type": "bool"
        }
      ],
      "stateMutability": "view",
      "type": "function"
    },
    {
      "inputs": [],
      "name": "name",
      "outputs": [
        {
          "internalType": "string",
          "name": "",
          "type": "string"
        }
      ],
      "stateMutability": "view",
      "type": "function"
    },
    {
      "inputs": [
        {
          "internalType": "address",
          "name": "owner",
          "type": "address"
        }
      ],
      "name": "nonces",
      "outputs": [
        {
          "internalType": "uint256",
          "name": "",
          "type": "uint256"
        }
      ],
      "stateMutability": "view",
      "type": "function"
    },
    {
      "inputs": [
        {
          "internalType": "address",
          "name": "account",
          "type": "address"
        }
      ],
      "name": "numCheckpoints",
      "outputs": [
        {
          "internalType": "uint32",
          "name": "",
          "type": "uint32"
        }
      ],
      "stateMutability": "view",
      "type": "function"
    },
    {
      "inputs": [],
      "name": "owner",
      "outputs": [
        {
          "internalType": "address",
          "name": "",
          "type": "address"
        }
      ],
      "stateMutability": "view",
      "type": "function"
    },
    {
      "inputs": [
        {
          "internalType": "address",
          "name": "owner",
          "type": "address"
        },
        {
          "internalType": "address",
          "name": "spender",
          "type": "address"
        },
        {
          "internalType": "uint256",
          "name": "value",
          "type": "uint256"
        },
        {
          "internalType": "uint256",
          "name": "deadline",
          "type": "uint256"
        },
        {
          "internalType": "uint8",
          "name": "v",
          "type": "uint8"
        },
        {
          "internalType": "bytes32",
          "name": "r",
          "type": "bytes32"
        },
        {
          "internalType": "bytes32",
          "name": "s",
          "type": "bytes32"
        }
      ],
      "name": "permit",
      "outputs": [],
      "stateMutability": "nonpayable",
      "type": "function"
    },
    {
      "inputs": [
        {
          "internalType": "address",
          "name": "minter",
          "type": "address"
        }
      ],
      "name": "removeMinter",
      "outputs": [],
      "stateMutability": "nonpayable",
      "type": "function"
    },
    {
      "inputs": [],
      "name": "renounceOwnership",
      "outputs": [],
      "stateMutability": "nonpayable",
      "type": "function"
    },
    {
      "inputs": [],
      "name": "symbol",
      "outputs": [
        {
          "internalType": "string",
          "name": "",
          "type": "string"
        }
      ],
      "stateMutability": "view",
      "type": "function"
    },
    {
      "inputs": [],
      "name": "totalSupply",
      "outputs": [
        {
          "internalType": "uint256",
          "name": "",
          "type": "uint256"
        }
      ],
      "stateMutability": "view",
      "type": "function"
    },
    {
      "inputs": [
        {
          "internalType": "address",
          "name": "to",
          "type": "address"
        },
        {
          "internalType": "uint256",
          "name": "value",
          "type": "uint256"
        }
      ],
      "name": "transfer",
      "outputs": [
        {
          "internalType": "bool",
          "name": "",
          "type": "bool"
        }
      ],
      "stateMutability": "nonpayable",
      "type": "function"
    },
    {
      "inputs": [
        {
          "internalType": "address",
          "name": "from",
          "type": "address"
        },
        {
          "internalType": "address",
          "name": "to",
          "type": "address"
        },
        {
          "internalType": "uint256",
          "name": "value",
          "type": "uint256"
        }
      ],
      "name": "transferFrom",
      "outputs": [
        {
          "internalType": "bool",
          "name": "",
          "type": "bool"
        }
      ],
      "stateMutability": "nonpayable",
      "type": "function"
    },
    {
      "inputs": [
        {
          "internalType": "address",
          "name": "newOwner",
          "type": "address"
        }
      ],
      "name": "transferOwnership",
      "outputs": [],
      "stateMutability": "nonpayable",
      "type": "function"
    }
  ],
  "bytecode": "0x6101606040523462000225576200001562000297565b6200001f62000297565b906200002a6200026d565b91602092642a21a62aa160d91b848201526200004562000282565b603160f81b858201908152835190939192916001600160401b0382116200021f576200007e8262000078600354620002da565b62000317565b8690601f83116001146200018f57620000b89392916000918362000183575b50508160011b916000199060031b1c1916176003556200047b565b620000c383620006ac565b92610120938452620000d582620007bf565b94610140958652815191012060e052519020916101009283524660a052620000fc62000970565b6080523060c05233156200016a5762000115336200056e565b6200012033620005b7565b6040519161243e938462000f958539608051846119c8015260a05184611a83015260c05184611992015260e05184611a1701525183611a3d015251826108b8015251816108e10152f35b604051631e4fbdf760e01b815260006004820152602490fd5b0151905038806200009d565b6003600052601f19831691907fc2575a0e9e593c00f959f8c92f12db2869c3395a3b0502d05e2516446f71f85b9260005b8a82821062000208575050916001939185620000b897969410620001ee575b505050811b016003556200047b565b015160001960f88460031b161c19169055388080620001df565b6001859682939686015181550195019301620001c0565b6200022a565b600080fd5b634e487b7160e01b600052604160045260246000fd5b604081019081106001600160401b038211176200021f57604052565b604051906200026b8262000240565b565b604051906200027c8262000240565b60058252565b60405190620002918262000240565b60018252565b60405190620002a68262000240565b600f82526e2a3930b232a1b63ab1102a37b5b2b760891b6020830152565b634e487b7160e01b600052601160045260246000fd5b90600182811c921680156200030c575b6020831014620002f657565b634e487b7160e01b600052602260045260246000fd5b91607f1691620002ea565b601f811162000324575050565b6000906003825260208220906020601f850160051c8301941062000365575b601f0160051c01915b8281106200035957505050565b8181556001016200034c565b909250829062000343565b601f81116200037d575050565b6000906004825260208220906020601f850160051c83019410620003be575b601f0160051c01915b828110620003b257505050565b818155600101620003a5565b90925082906200039c565b601f8111620003d6575050565b6000906005825260208220906020601f850160051c8301941062000417575b601f0160051c01915b8281106200040b57505050565b818155600101620003fe565b9092508290620003f5565b601f81116200042f575050565b6000906006825260208220906020601f850160051c8301941062000470575b601f0160051c01915b8281106200046457505050565b81815560010162000457565b90925082906200044e565b80519091906001600160401b0381116200021f57620004a781620004a1600454620002da565b62000370565b602080601f8311600114620004e65750819293600092620004da575b50508160011b916000199060031b1c191617600455565b015190503880620004c3565b6004600052601f198316949091907f8a35acfbc15ff81a39ae7d344fd709f28e8600b4aa8c65c6b64bfe7fe36bd19b926000905b878210620005555750508360019596106200053b575b505050811b01600455565b015160001960f88460031b161c1916905538808062000530565b806001859682949686015181550195019301906200051a565b600b80546001600160a01b039283166001600160a01b0319821681179092559091167f8be0079c531659141344cd1fd0a4f28419497f9722a3daafe3b4186f6b6457e0600080a3565b6001600160a01b038116801562000693576002546aa56fa5b99019a5c8000000908181018091116200068d576002556001600160a01b038316600090815260208190526040902090815401905560007fddf252ad1be2c89b69c2b068fc378daa952ba7f163c4a11628f55a4df523b3ef604051806200064581906aa56fa5b99019a5c8000000602083019252565b0390a36002546001600160d01b0381116200066657506200026b90620009dc565b604051630e58ae9360e11b815260048101919091526001600160d01b036024820152604490fd5b620002c4565b60405163ec442f0560e01b815260006004820152602490fd5b9081516020808210600014620006cd57505090620006ca90620008f3565b90565b6001600160401b0382116200021f57620006f482620006ee600554620002da565b620003c9565b80601f831160011462000734575081929360009262000728575b50508160011b916000199060031b1c19161760055560ff90565b0151905038806200070e565b6005600052601f198316949091907f036b6384b5eca791c62761152d0c79bb0604c104a5fb6f4eb0703f3154bb3db0926000905b878210620007a65750508360019596106200078c575b505050811b0160055560ff90565b015160001960f88460031b161c191690553880806200077e565b8060018596829496860151815501950193019062000768565b9081516020808210600014620007dd57505090620006ca90620008f3565b6001600160401b0382116200021f576200080482620007fe600654620002da565b62000422565b80601f831160011462000844575081929360009262000838575b50508160011b916000199060031b1c19161760065560ff90565b0151905038806200081e565b6006600052601f198316949091907ff652222313e28459528d920b65115c16c04f3efc82aaedc97be59f3f377c0d3f926000905b878210620008b65750508360019596106200089c575b505050811b0160065560ff90565b015160001960f88460031b161c191690553880806200088e565b8060018596829496860151815501950193019062000878565b602081519101519060208110620008e4575090565b6000199060200360031b1b1690565b601f8151116200090e576200090881620008cf565b90511790565b6040519063305a27a960e01b82528160208060048301528251908160248401526000935b82851062000956575050604492506000838284010152601f80199101168101030190fd5b848101820151868601604401529381019385935062000932565b60e051610100516040519060208201927f8b73c3c69bb8fe3d512ecc4cf759cc79239f7b179b0ffacaa9a75d522b39400f8452604083015260608201524660808201523060a082015260a0815260c0810181811060018060401b038211176200021f5760405251902090565b600a546000908062000a8a5750506000905b6001600160d01b039182166aa56fa5b99019a5c8000000019182116200068d5762000a266200026b9265ffffffffffff421662000dcb565b50506001600160a01b0390811690811562000a78575b60086020527f5eff886ea0ce6ca488a3d6e336d6c0f75f46d19b42c06ce5ee98e42c96d256c75460009283526040909220548116911662000ab9565b62000a8262000c0f565b505062000a3c565b6000199181838101116200068d57600a905201600080516020620033d3833981519152015460301c90620009ee565b6001600160a01b03808316929190811690818414158062000c06575b62000ae1575b50505050565b8162000b4f575b50508162000af9575b808062000adb565b6001600160a01b03166000908152600960205260409020600080516020620033f38339815191529062000b2c9062000c87565b604080516001600160d01b039384168152919092166020820152a2388062000af1565b6001600160a01b0316600090815260096020526040902080546000908062000be557505060005b6001600160d01b039081166aa56fa5b99019a5c7ffffff19018181116200068d5762000bc162000bda91600080516020620033f38339815191529465ffffffffffff42169062000ec7565b6040805192851683529316602082015291829190820190565b0390a2388062000ae8565b6000199181838101116200068d578084602092522001015460301c62000b76565b50600162000ad5565b600a546000908062000c5957505060005b6001600160d01b039081166aa56fa5b99019a5c7ffffff19019081116200068d5762000c559065ffffffffffff421662000dcb565b9091565b6000199181838101116200068d57600a905201600080516020620033d3833981519152015460301c62000c20565b80546000908062000ccc57505060005b6001600160d01b039081166aa56fa5b99019a5c8000000019081116200068d5762000c559165ffffffffffff42169062000ec7565b6000199181838101116200068d578084602092522001015460301c62000c97565b6000198101919082116200068d57565b600a5490680100000000000000008210156200021f576001820180600a5582101562000d5f57600a60005280516020919091015160301b65ffffffffffff191665ffffffffffff9190911617600080516020620033d383398151915290910155565b634e487b7160e01b600052603260045260246000fd5b908154680100000000000000008110156200021f576001810180845581101562000d5f5760009283526020928390208251929093015160301b65ffffffffffff191665ffffffffffff9290921691909117910155565b600a54919291801562000e985762000de762000e009162000ced565b600a600052600080516020620033d38339815191520190565b9081549165ffffffffffff9081841691831680831162000e865786920362000e485762000e4192509065ffffffffffff82549181199060301b169116179055565b60301c9190565b505062000e809062000e6b62000e5d6200025c565b65ffffffffffff9092168252565b6001600160d01b038516602082015262000cfd565b62000e41565b604051632520601d60e01b8152600490fd5b5062000ec19062000eac62000e5d6200025c565b6001600160d01b038416602082015262000cfd565b60009190565b8054929392801562000f6a5762000ee262000eef9162000ced565b8260005260206000200190565b9182549265ffffffffffff9182851692811680841162000e865787930362000f31575062000e4192509065ffffffffffff82549181199060301b169116179055565b91505062000e809162000f5562000f476200025c565b65ffffffffffff9093168352565b6001600160d01b038616602083015262000d75565b509062000ec19162000f7f62000f476200025c565b6001600160d01b038516602083015262000d7556fe6080604052600436101561001257600080fd5b60003560e01c806306fdde0314610227578063095ea7b31461022257806318160ddd1461021d57806323b872dd146102185780633092afd514610213578063313ce5671461020e57806332cb6b0c146102095780633644e515146102045780633a46b1a8146101ff57806340c10f19146101fa57806342966c68146101f55780634bf5d7e9146101f0578063587cde1e146101eb5780635c19a95c146101e65780636fcfff45146101e157806370a08231146101dc578063715018a6146101d757806379cc6790146101d25780637ecebe00146101cd57806384b0196e146101c85780638da5cb5b146101c35780638e539e8c146101be57806391ddadf4146101b957806395d89b41146101b4578063983b2d56146101af5780639ab24eb0146101aa578063a9059cbb146101a5578063c3cda520146101a0578063d505accf1461019b578063dd62ed3e14610196578063f1127ed814610191578063f2fde38b1461018c5763f46eccc41461018757600080fd5b611024565b610f96565b610ee3565b610e8b565b610d57565b610c8e565b610c48565b610bff565b610b57565b610ab0565b610a8d565b6109be565b610995565b61089d565b610863565b610833565b6107d5565b61079c565b610734565b610712565b6106d7565b610688565b61066b565b6105d3565b6104eb565b6104c8565b6104a1565b610485565b61041d565b6103e5565b6103c7565b610396565b610280565b919082519283825260005b848110610258575050826000602080949584010152601f8019910116010190565b602081830181015184830182015201610237565b90602061027d92818152019061022c565b90565b34610365576000806003193601126103625760405190806003546102a38161141c565b8085529160019180831690811561033857506001146102dd575b6102d9856102cd81870382611176565b6040519182918261026c565b0390f35b9250600383527fc2575a0e9e593c00f959f8c92f12db2869c3395a3b0502d05e2516446f71f85b5b8284106103205750505081016020016102cd826102d96102bd565b80546020858701810191909152909301928101610305565b8695506102d9969350602092506102cd94915060ff191682840152151560051b82010192936102bd565b80fd5b600080fd5b600435906001600160a01b038216820361036557565b602435906001600160a01b038216820361036557565b34610365576040366003190112610365576103bc6103b261036a565b6024359033611568565b602060405160018152f35b34610365576000366003190112610365576020600254604051908152f35b34610365576060366003190112610365576103bc61040161036a565b610409610380565b6044359161041883338361161c565b611456565b346103655760203660031901126103655761043661036a565b61043e611063565b6001600160a01b03166000818152600c60205260408120805460ff19169055907fe94479a9f7e1952cc78f2d6baab678adc1b772d936c6583def489e524cb666928280a280f35b3461036557600036600319011261036557602060405160128152f35b346103655760003660031901126103655760206040516b033b2e3c9fd0803ce80000008152f35b346103655760003660031901126103655760206104e361198f565b604051908152f35b34610365576040366003190112610365576001600160a01b0361050c61036a565b1660009081526009602052604081209061052760243561108f565b91805482938160058111610579575b50906020946105459284612195565b8061055f5750505b6040516001600160d01b039091168152f35b9161056b849293611cb5565b92815220015460301c61054d565b9461058386611cff565b86039586116105ce576020956105459385875265ffffffffffff80838a8a20015416908516106000146105bc5750915b91925094610536565b9291506105c890611cc4565b906105b3565b611406565b34610365576040366003190112610365576105ec61036a565b33600052600c60205260ff604060002054168015610657575b156106195761061790602435906121fc565b005b60405162461bcd60e51b8152602060048201526016602482015275139bdd08185d5d1a1bdc9a5e9959081d1bc81b5a5b9d60521b6044820152606490fd5b50600b546001600160a01b03163314610605565b3461036557602036600319011261036557610617600435336116cb565b34610365576000366003190112610365576102d96040516106a881611101565b600e81526d06d6f64653d74696d657374616d760941b602082015260405191829160208352602083019061022c565b346103655760203660031901126103655760206001600160a01b03806106fb61036a565b166000526008825260406000205416604051908152f35b346103655760203660031901126103655761061761072e61036a565b33611198565b34610365576020366003190112610365576001600160a01b0361075561036a565b16600052600960205260406000205463ffffffff9081811161077d5760209160405191168152f35b604490604051906306dfcc6560e41b8252602060048301526024820152fd5b346103655760203660031901126103655760206104e36107ba61036a565b6001600160a01b031660009081526020819052604090205490565b3461036557600080600319360112610362576107ef611063565b600b80546001600160a01b0319811690915581906001600160a01b03167f8be0079c531659141344cd1fd0a4f28419497f9722a3daafe3b4186f6b6457e08280a380f35b346103655760403660031901126103655761061761084f61036a565b6024359061085e82338361161c565b6116cb565b34610365576020366003190112610365576001600160a01b0361088461036a565b1660005260076020526020604060002054604051908152f35b346103655760008060031936011261036257610947906108dc7f0000000000000000000000000000000000000000000000000000000000000000611acf565b6109057f0000000000000000000000000000000000000000000000000000000000000000611bc8565b916040519161091383611122565b818352604051948594600f60f81b865261093960209360e08589015260e088019061022c565b90868203604088015261022c565b904660608601523060808601528260a086015284820360c08601528080855193848152019401925b82811061097e57505050500390f35b83518552869550938101939281019260010161096f565b3461036557600036600319011261036557600b546040516001600160a01b039091168152602090f35b34610365576020366003190112610365576109da60043561108f565b600a54906000829160058411610a32575b6109f5935061212c565b600081610a0a57505060405160008152602090f35b600a610a17602093611cb5565b91526000805160206123e9833981519152015460301c61054d565b9192610a3d81611cff565b81039081116105ce576109f593600a835265ffffffffffff80836000805160206123e983398151915201541690851610600014610a7b5750916109eb565b929150610a8790611cc4565b906109eb565b3461036557600036600319011261036557602060405165ffffffffffff42168152f35b3461036557600080600319360112610362576040519080600454610ad38161141c565b808552916001918083169081156103385750600114610afc576102d9856102cd81870382611176565b9250600483527f8a35acfbc15ff81a39ae7d344fd709f28e8600b4aa8c65c6b64bfe7fe36bd19b5b828410610b3f5750505081016020016102cd826102d96102bd565b80546020858701810191909152909301928101610b24565b3461036557602036600319011261036557610b7061036a565b610b78611063565b6001600160a01b03168015610bc8576000818152600c60205260408120805460ff19166001179055907f6ae172837ea30b801fbfcdd4108aa1d5bf8ff775444fd70256b44e6bf3dfc3f68280a280f35b60405162461bcd60e51b815260206004820152600f60248201526e496e76616c6964206164647265737360881b6044820152606490fd5b34610365576020366003190112610365576001600160a01b03610c2061036a565b166000526009602052602060018060d01b03610c3f6040600020611e74565b16604051908152f35b34610365576040366003190112610365576103bc610c6461036a565b6024359033611456565b6064359060ff8216820361036557565b6084359060ff8216820361036557565b346103655760c036600319011261036557610ca761036a565b60443590602435610cb6610c6e565b834211610d3e57610d3261061794610d39926040519060208201927fe48329057bfd03d55e49b547132e39cffd9c1820ad7b9d4c5307691425d15adf845260018060a01b0388166040840152866060840152608083015260808252610d1a8261113e565b610d2d60a4359360843593519020611aa9565b61183a565b91826117e4565b611198565b604051632341d78760e11b815260048101859052602490fd5b346103655760e036600319011261036557610d7061036a565b610d78610380565b60443590606435610d87610c7e565b814211610e72576001600160a01b0385811660008181526007602090815260409182902080546001810190915582517f6e71edae12b1b97f4d1f60370fef10105fa2faae0126114a169c64845d6126c99281019283529283019390935292861660608201526080810187905260a081019190915260c080820194909452928352610e2b929091610e1860e083611176565b610d2d60c4359360a43593519020611aa9565b6001600160a01b0384811690821603610e48575061061792611568565b6040516325c0072360e11b81526001600160a01b0391821660048201529084166024820152604490fd5b60405163313c898160e11b815260048101839052602490fd5b34610365576040366003190112610365576020610eda610ea961036a565b610eb1610380565b6001600160a01b0391821660009081526001855260408082209290931681526020919091522090565b54604051908152f35b3461036557604036600319011261036557610efc61036a565b6024359063ffffffff82168203610365576102d991610f4c91610f1d6117cb565b50610f266117cb565b506001600160a01b03166000908152600960205260409020610f466117cb565b50611ea2565b5060405190610f5a82611101565b5465ffffffffffff811680835260309190911c60209283019081526040805192835290516001600160d01b031692820192909252918291820190565b3461036557602036600319011261036557610faf61036a565b610fb7611063565b6001600160a01b0390811690811561100b57600b54826bffffffffffffffffffffffff60a01b821617600b55167f8be0079c531659141344cd1fd0a4f28419497f9722a3daafe3b4186f6b6457e0600080a3005b604051631e4fbdf760e01b815260006004820152602490fd5b34610365576020366003190112610365576001600160a01b0361104561036a565b16600052600c602052602060ff604060002054166040519015158152f35b600b546001600160a01b0316330361107757565b60405163118cdaa760e01b8152336004820152602490fd5b65ffffffffffff90814216808210156110cd57508181116110ae571690565b604490604051906306dfcc6560e41b8252603060048301526024820152fd5b6044925060405191637669fc0f60e11b835260048301526024820152fd5b634e487b7160e01b600052604160045260246000fd5b6040810190811067ffffffffffffffff82111761111d57604052565b6110eb565b6020810190811067ffffffffffffffff82111761111d57604052565b60a0810190811067ffffffffffffffff82111761111d57604052565b60c0810190811067ffffffffffffffff82111761111d57604052565b90601f8019910116810190811067ffffffffffffffff82111761111d57604052565b6001600160a01b03818116600081815260086020526040812080548685166001600160a01b03198216811790925561121b969416946112159390928691907f3134e8a2e6d97e929a7e54011ea5485d7d196dd5f0ba4d4ef95803e8e3fc257f9080a46001600160a01b031660009081526020819052604090205490565b9161121d565b565b6001600160a01b03808316939291908116908185141580611365575b611245575b5050505050565b816112ca575b50508261125a575b808061123e565b6001600160a01b031660009081526009602052604090207fdec2bacdd2f05b59de34da9b523dff8be42e5e38e818c82fdb0bae774387a724916112a7916112a19091611c82565b9061136e565b604080516001600160d01b039384168152919092166020820152a2388080611253565b6001600160a01b031660009081526009602052604090206112ea84611c82565b6001600160d01b039081806112fe85611e74565b16911690038181116105ce5761134261135b917fdec2bacdd2f05b59de34da9b523dff8be42e5e38e818c82fdb0bae774387a7249465ffffffffffff421690612070565b6040805192851683529316602082015291829190820190565b0390a2388061124b565b50831515611239565b906001600160d01b0390818061138385611e74565b169116019081116105ce576113a19165ffffffffffff421690612070565b9091565b6001600160d01b039081806113b8611e2a565b169116019081116105ce576113a19065ffffffffffff4216611f87565b6001600160d01b039081806113e8611e2a565b1691169003908111611406576113a19065ffffffffffff4216611f87565b634e487b7160e01b600052601160045260246000fd5b90600182811c9216801561144c575b602083101461143657565b634e487b7160e01b600052602260045260246000fd5b91607f169161142b565b6001600160a01b038082169493929190851561154f5782168015611536576001600160a01b03821660009081526020819052604090205495848710611507578461121b9697036114b88460018060a01b03166000526000602052604060002090565b556001600160a01b0384166000908152602081815260409182902080548801905590518681527fddf252ad1be2c89b69c2b068fc378daa952ba7f163c4a11628f55a4df523b3ef9190a361237d565b60405163391434e360e21b81526001600160a01b03841660048201526024810188905260448101869052606490fd5b60405163ec442f0560e01b815260006004820152602490fd5b604051634b637e8f60e11b815260006004820152602490fd5b6001600160a01b0380821692919083156116035782169384156115ea57806115e07f8c5be1e5ebec7d5bd14f71427d1e84f3dd0314c0f7b2291e5b200ac8c7c3b925946115c960209560018060a01b03166000526001602052604060002090565b9060018060a01b0316600052602052604060002090565b55604051908152a3565b604051634a1406b160e11b815260006004820152602490fd5b60405163e602df0560e01b815260006004820152602490fd5b6001600160a01b0381811660008181526001602090815260408083208786168452909152902054929493929190600019831061165b575b505050505050565b84831061169c5715611603578216156115ea57611690926115c991039360018060a01b03166000526001602052604060002090565b55388080808080611653565b604051637dc7a0d960e11b81526001600160a01b03851660048201526024810184905260448101869052606490fd5b91906001600160a01b03808416801561154f576001600160a01b0385166000908152602081905260409020549483861061178d5790602092916117278561121b9798039160018060a01b03166000526000602052604060002090565b558360025403600255604051848152817fddf252ad1be2c89b69c2b068fc378daa952ba7f163c4a11628f55a4df523b3ef6000958693a361176f61176a85611c82565b6113d5565b5050825260086020526040818184205416928080522054169061121d565b60405163391434e360e21b81526001600160a01b039190911660048201526024810186905260448101849052606490fd5b6040519061121b82611101565b604051906117d882611101565b60006020838281520152565b6001600160a01b03811660009081526007602052604090208054600181019091559091819003611812575050565b6040516301d4b62360e61b81526001600160a01b039092166004830152602482015260449150fd5b9161027d939161184993611852565b90929192611902565b91907f7fffffffffffffffffffffffffffffff5d576e7357a4501ddfe92f46681b20a084116118d657926020929160ff608095604051948552168484015260408301526060820152600092839182805260015afa156118ca5780516001600160a01b038116156118c157918190565b50809160019190565b604051903d90823e3d90fd5b50505060009160039190565b600411156118ec57565b634e487b7160e01b600052602160045260246000fd5b61190b816118e2565b80611914575050565b61191d816118e2565b600181036119375760405163f645eedf60e01b8152600490fd5b611940816118e2565b600281036119615760405163fce698f760e01b815260048101839052602490fd5b8061196d6003926118e2565b146119755750565b6040516335e2f38360e21b81526004810191909152602490fd5b307f00000000000000000000000000000000000000000000000000000000000000006001600160a01b03161480611a80575b156119ea577f000000000000000000000000000000000000000000000000000000000000000090565b60405160208101907f8b73c3c69bb8fe3d512ecc4cf759cc79239f7b179b0ffacaa9a75d522b39400f82527f000000000000000000000000000000000000000000000000000000000000000060408201527f000000000000000000000000000000000000000000000000000000000000000060608201524660808201523060a082015260a08152611a7a8161115a565b51902090565b507f000000000000000000000000000000000000000000000000000000000000000046146119c1565b604290611ab461198f565b906040519161190160f01b8352600283015260228201522090565b60ff8114611b0d5760ff811690601f8211611afb5760405191611af183611101565b8252602082015290565b604051632cd44ac360e21b8152600490fd5b50604051600554816000611b208361141c565b80835292600190818116908115611ba65750600114611b47575b5061027d92500382611176565b6005600090815291507f036b6384b5eca791c62761152d0c79bb0604c104a5fb6f4eb0703f3154bb3db05b848310611b8b575061027d935050810160200138611b3a565b81935090816020925483858901015201910190918492611b72565b90506020925061027d94915060ff191682840152151560051b82010138611b3a565b60ff8114611bea5760ff811690601f8211611afb5760405191611af183611101565b50604051600654816000611bfd8361141c565b80835292600190818116908115611ba65750600114611c23575061027d92500382611176565b6006600090815291507ff652222313e28459528d920b65115c16c04f3efc82aaedc97be59f3f377c0d3f5b848310611c67575061027d935050810160200138611b3a565b81935090816020925483858901015201910190918492611c4e565b6001600160d01b0390818111611c96571690565b604490604051906306dfcc6560e41b825260d060048301526024820152fd5b6000198101919082116105ce57565b90600182018092116105ce57565b919082018092116105ce57565b8115611ce9570490565b634e487b7160e01b600052601260045260246000fd5b600181111561027d57600181600160801b811015611e18575b611dc0611db6611dac611da2611d98611d8e611dcc97600488600160401b611dc79a1015611e0b575b640100000000811015611dfe575b62010000811015611df1575b610100811015611de5575b6010811015611dd9575b1015611dd1575b60030260011c611d87818b611cdf565b0160011c90565b611d87818a611cdf565b611d878189611cdf565b611d878188611cdf565b611d878187611cdf565b611d878186611cdf565b8093611cdf565b821190565b900390565b60011b611d77565b811c9160021b91611d70565b60081c91811b91611d66565b60101c9160081b91611d5b565b60201c9160101b91611d4f565b60401c9160201b91611d41565b50600160401b9050608082901c611d18565b600a5460009080611e3c575050600090565b806000198101116105ce57600a7fc65a7bb8d6351c1cf70c95a316cc6a92839c986682d98bc35f958f4883f9d2a79252015460301c90565b805460009181611e8657505050600090565b6000199282848101116105ce5760209181522001015460301c90565b8054821015611eba5760005260206000200190600090565b634e487b7160e01b600052603260045260246000fd5b600a5490600160401b82101561111d576001820180600a55821015611eba57600a600052805160209091015160301b65ffffffffffff191665ffffffffffff91909116176000805160206123e983398151915290910155565b8054600160401b81101561111d57611f4691600182018155611ea2565b611f7157815160209092015160301b65ffffffffffff191665ffffffffffff92909216919091179055565b634e487b7160e01b600052600060045260246000fd5b600a54919291801561204657611f9f611fb791611cb5565b600a6000526000805160206123e98339815191520190565b9081549165ffffffffffff9081841691831680831161203457869203611ffc57611ff592509065ffffffffffff82549181199060301b169116179055565b60301c9190565b505061202f9061201b61200d6117be565b65ffffffffffff9092168252565b6001600160d01b0385166020820152611ed0565b611ff5565b604051632520601d60e01b8152600490fd5b5061206a9061205661200d6117be565b6001600160d01b0384166020820152611ed0565b60009190565b805492939280156121075761208761209491611cb5565b8260005260206000200190565b9182549265ffffffffffff91828516928116808411612034578793036120d35750611ff592509065ffffffffffff82549181199060301b169116179055565b91505061202f916120f36120e56117be565b65ffffffffffff9093168352565b6001600160d01b0386166020830152611f29565b509061206a916121186120e56117be565b6001600160d01b0385166020830152611f29565b905b82811061213a57505090565b90918082169080831860011c82018092116105ce57600a60005265ffffffffffff80836000805160206123e9833981519152015416908516106000146121835750915b9061212e565b92915061218f90611cc4565b9061217d565b90915b8381106121a55750505090565b9091928082169080831860011c82018092116105ce5781602060008681528265ffffffffffff92839220015416908716106000146121e8575050925b9190612198565b909492506121f69150611cc4565b906121e1565b91906002548181018082116105ce576b033b2e3c9fd0803ce8000000106122ca576001600160a01b0384169081156115365761223b8361224092611cd2565b600255565b6001600160a01b038416600090815260208181526040808320805486019055518481527fddf252ad1be2c89b69c2b068fc378daa952ba7f163c4a11628f55a4df523b3ef9190a3600254926001600160d01b0384116122a45761121b929350612304565b604051630e58ae9360e11b8152600481018590526001600160d01b036024820152604490fd5b60405162461bcd60e51b815260206004820152601260248201527145786365656473206d617820737570706c7960701b6044820152606490fd5b9061121b9161231a61231583611c82565b6113a5565b50506001600160a01b0390811690811561236a575b60086020527f5eff886ea0ce6ca488a3d6e336d6c0f75f46d19b42c06ce5ee98e42c96d256c75460009283526040909220548116911661121d565b61237661176a84611c82565b505061232f565b61121b92916001600160a01b039182169190819083156123d5575b169182156123c2575b6000526008602052806040600020541691600052604060002054169061121d565b6123ce61176a85611c82565b50506123a1565b6123e161231586611c82565b505061239856fec65a7bb8d6351c1cf70c95a316cc6a92839c986682d98bc35f958f4883f9d2a8a2646970667358221220882f284370b2646853ba983452d1a9ed832c7b4c07c096dea447b6183edd81d064736f6c63430008140033c65a7bb8d6351c1cf70c95a316cc6a92839c986682d98bc35f958f4883f9d2a8dec2bacdd2f05b59de34da9b523dff8be42e5e38e818c82fdb0bae774387a724",
  "linkReferences": {},
  "deployedLinkReferences": {}
}