{
  "_format": "hh-sol-artifact-1",
  "contractName": "TradeClub_BribePool",
  "sourceName": "src/TradeClub_BribePool.sol",
  "abi": [
    {
      "inputs": [
        {
          "internalType": "address",
          "name": "_tclubToken",
          "type": "address"
        }
      ],
      "stateMutability": "nonpayable",
      "type": "constructor"
    },
    {
      "inputs": [
        {
          "internalType": "address",
          "name": "owner",
          "type": "address"
        }
      ],
      "name": "OwnableInvalidOwner",
      "type": "error"
    },
    {
      "inputs": [
        {
          "internalType": "address",
          "name": "account",
          "type": "address"
        }
      ],
      "name": "OwnableUnauthorizedAccount",
      "type": "error"
    },
    {
      "inputs": [],
      "name": "ReentrancyGuardReentrantCall",
      "type": "error"
    },
    {
      "anonymous": false,
      "inputs": [
        {
          "indexed": true,
          "internalType": "uint256",
          "name": "bribeId",
          "type": "uint256"
        },
        {
          "indexed": true,
          "internalType": "address",
          "name": "creator",
          "type": "address"
        },
        {
          "indexed": false,
          "internalType": "uint256",
          "name": "proposalId",
          "type": "uint256"
        },
        {
          "indexed": false,
          "internalType": "uint256",
          "name": "totalReward",
          "type": "uint256"
        },
        {
          "indexed": false,
          "internalType": "uint256",
          "name": "deadline",
          "type": "uint256"
        }
      ],
      "name": "BribeCreated",
      "type": "event"
    },
    {
      "anonymous": false,
      "inputs": [
        {
          "indexed": true,
          "internalType": "uint256",
          "name": "bribeId",
          "type": "uint256"
        },
        {
          "indexed": false,
          "internalType": "uint256",
          "name": "totalDistributed",
          "type": "uint256"
        }
      ],
      "name": "BribeDistributed",
      "type": "event"
    },
    {
      "anonymous": false,
      "inputs": [
        {
          "indexed": true,
          "internalType": "address",
          "name": "previousOwner",
          "type": "address"
        },
        {
          "indexed": true,
          "internalType": "address",
          "name": "newOwner",
          "type": "address"
        }
      ],
      "name": "OwnershipTransferred",
      "type": "event"
    },
    {
      "anonymous": false,
      "inputs": [
        {
          "indexed": true,
          "internalType": "uint256",
          "name": "bribeId",
          "type": "uint256"
        },
        {
          "indexed": true,
          "internalType": "address",
          "name": "delegator",
          "type": "address"
        },
        {
          "indexed": false,
          "internalType": "uint256",
          "name": "reward",
          "type": "uint256"
        }
      ],
      "name": "RewardClaimed",
      "type": "event"
    },
    {
      "anonymous": false,
      "inputs": [
        {
          "indexed": true,
          "internalType": "uint256",
          "name": "bribeId",
          "type": "uint256"
        },
        {
          "indexed": true,
          "internalType": "address",
          "name": "delegator",
          "type": "address"
        },
        {
          "indexed": true,
          "internalType": "address",
          "name": "delegatee",
          "type": "address"
        },
        {
          "indexed": false,
          "internalType": "uint256",
          "name": "votes",
          "type": "uint256"
        }
      ],
      "name": "VotesDelegated",
      "type": "event"
    },
    {
      "inputs": [],
      "name": "BASIS_POINTS",
      "outputs": [
        {
          "internalType": "uint256",
          "name": "",
          "type": "uint256"
        }
      ],
      "stateMutability": "view",
      "type": "function"
    },
    {
      "inputs": [],
      "name": "bribeCounter",
      "outputs": [
        {
          "internalType": "uint256",
          "name": "",
          "type": "uint256"
        }
      ],
      "stateMutability": "view",
      "type": "function"
    },
    {
      "inputs": [
        {
          "internalType": "uint256",
          "name": "",
          "type": "uint256"
        },
        {
          "internalType": "uint256",
          "name": "",
          "type": "uint256"
        }
      ],
      "name": "bribeDelegators",
      "outputs": [
        {
          "internalType": "address",
          "name": "",
          "type": "address"
        }
      ],
      "stateMutability": "view",
      "type": "function"
    },
    {
      "inputs": [
        {
          "internalType": "uint256",
          "name": "",
          "type": "uint256"
        }
      ],
      "name": "bribes",
      "outputs": [
        {
          "internalType": "uint256",
          "name": "id",
          "type": "uint256"
        },
        {
          "internalType": "address",
          "name": "creator",
          "type": "address"
        },
        {
          "internalType": "uint256",
          "name": "proposalId",
          "type": "uint256"
        },
        {
          "internalType": "uint256",
          "name": "totalReward",
          "type": "uint256"
        },
        {
          "internalType": "uint256",
          "name": "rewardPerVote",
          "type": "uint256"
        },
        {
          "internalType": "uint256",
          "name": "votesCaptured",
          "type": "uint256"
        },
        {
          "internalType": "uint256",
          "name": "deadline",
          "type": "uint256"
        },
        {
          "internalType": "bool",
          "name": "distributed",
          "type": "bool"
        },
        {
          "internalType": "bool",
          "name": "active",
          "type": "bool"
        }
      ],
      "stateMutability": "view",
      "type": "function"
    },
    {
      "inputs": [
        {
          "internalType": "uint256",
          "name": "_bribeId",
          "type": "uint256"
        }
      ],
      "name": "claimReward",
      "outputs": [],
      "stateMutability": "nonpayable",
      "type": "function"
    },
    {
      "inputs": [
        {
          "internalType": "uint256",
          "name": "_proposalId",
          "type": "uint256"
        },
        {
          "internalType": "uint256",
          "name": "_totalReward",
          "type": "uint256"
        },
        {
          "internalType": "uint256",
          "name": "_duration",
          "type": "uint256"
        }
      ],
      "name": "createBribe",
      "outputs": [
        {
          "internalType": "uint256",
          "name": "",
          "type": "uint256"
        }
      ],
      "stateMutability": "nonpayable",
      "type": "function"
    },
    {
      "inputs": [
        {
          "internalType": "uint256",
          "name": "_bribeId",
          "type": "uint256"
        },
        {
          "internalType": "address",
          "name": "_delegatee",
          "type": "address"
        },
        {
          "internalType": "uint256",
          "name": "_votes",
          "type": "uint256"
        }
      ],
      "name": "delegateVotes",
      "outputs": [],
      "stateMutability": "nonpayable",
      "type": "function"
    },
    {
      "inputs": [
        {
          "internalType": "uint256",
          "name": "_bribeId",
          "type": "uint256"
        }
      ],
      "name": "distributeBribe",
      "outputs": [],
      "stateMutability": "nonpayable",
      "type": "function"
    },
    {
      "inputs": [
        {
          "internalType": "uint256",
          "name": "_bribeId",
          "type": "uint256"
        }
      ],
      "name": "emergencyCancel",
      "outputs": [],
      "stateMutability": "nonpayable",
      "type": "function"
    },
    {
      "inputs": [
        {
          "internalType": "uint256",
          "name": "_bribeId",
          "type": "uint256"
        }
      ],
      "name": "getBribe",
      "outputs": [
        {
          "components": [
            {
              "internalType": "uint256",
              "name": "id",
              "type": "uint256"
            },
            {
              "internalType": "address",
              "name": "creator",
              "type": "address"
            },
            {
              "internalType": "uint256",
              "name": "proposalId",
              "type": "uint256"
            },
            {
              "internalType": "uint256",
              "name": "totalReward",
              "type": "uint256"
            },
            {
              "internalType": "uint256",
              "name": "rewardPerVote",
              "type": "uint256"
            },
            {
              "internalType": "uint256",
              "name": "votesCaptured",
              "type": "uint256"
            },
            {
              "internalType": "uint256",
              "name": "deadline",
              "type": "uint256"
            },
            {
              "internalType": "bool",
              "name": "distributed",
              "type": "bool"
            },
            {
              "internalType": "bool",
              "name": "active",
              "type": "bool"
            }
          ],
          "internalType": "struct TradeClub_BribePool.Bribe",
          "name": "",
          "type": "tuple"
        }
      ],
      "stateMutability": "view",
      "type": "function"
    },
    {
      "inputs": [
        {
          "internalType": "uint256",
          "name": "_bribeId",
          "type": "uint256"
        }
      ],
      "name": "getBribeDelegators",
      "outputs": [
        {
          "internalType": "address[]",
          "name": "",
          "type": "address[]"
        }
      ],
      "stateMutability": "view",
      "type": "function"
    },
    {
      "inputs": [
        {
          "internalType": "address",
          "name": "_user",
          "type": "address"
        }
      ],
      "name": "getUserBribes",
      "outputs": [
        {
          "internalType": "uint256[]",
          "name": "",
          "type": "uint256[]"
        }
      ],
      "stateMutability": "view",
      "type": "function"
    },
    {
      "inputs": [
        {
          "internalType": "uint256",
          "name": "_bribeId",
          "type": "uint256"
        },
        {
          "internalType": "address",
          "name": "_delegator",
          "type": "address"
        }
      ],
      "name": "getVoteDelegation",
      "outputs": [
        {
          "components": [
            {
              "internalType": "address",
              "name": "delegator",
              "type": "address"
            },
            {
              "internalType": "address",
              "name": "delegatee",
              "type": "address"
            },
            {
              "internalType": "uint256",
              "name": "bribeId",
              "type": "uint256"
            },
            {
              "internalType": "uint256",
              "name": "votes",
              "type": "uint256"
            },
            {
              "internalType": "uint256",
              "name": "reward",
              "type": "uint256"
            },
            {
              "internalType": "bool",
              "name": "claimed",
              "type": "bool"
            }
          ],
          "internalType": "struct TradeClub_BribePool.VoteDelegation",
          "name": "",
          "type": "tuple"
        }
      ],
      "stateMutability": "view",
      "type": "function"
    },
    {
      "inputs": [],
      "name": "govToken",
      "outputs": [
        {
          "internalType": "contract TradeClub_GovernanceToken",
          "name": "",
          "type": "address"
        }
      ],
      "stateMutability": "view",
      "type": "function"
    },
    {
      "inputs": [],
      "name": "owner",
      "outputs": [
        {
          "internalType": "address",
          "name": "",
          "type": "address"
        }
      ],
      "stateMutability": "view",
      "type": "function"
    },
    {
      "inputs": [],
      "name": "platformFeePercent",
      "outputs": [
        {
          "internalType": "uint256",
          "name": "",
          "type": "uint256"
        }
      ],
      "stateMutability": "view",
      "type": "function"
    },
    {
      "inputs": [],
      "name": "renounceOwnership",
      "outputs": [],
      "stateMutability": "nonpayable",
      "type": "function"
    },
    {
      "inputs": [
        {
          "internalType": "uint256",
          "name": "_newFeePercent",
          "type": "uint256"
        }
      ],
      "name": "setPlatformFee",
      "outputs": [],
      "stateMutability": "nonpayable",
      "type": "function"
    },
    {
      "inputs": [
        {
          "internalType": "address",
          "name": "newOwner",
          "type": "address"
        }
      ],
      "name": "transferOwnership",
      "outputs": [],
      "stateMutability": "nonpayable",
      "type": "function"
    },
    {
      "inputs": [
        {
          "internalType": "address",
          "name": "",
          "type": "address"
        },
        {
          "internalType": "uint256",
          "name": "",
          "type": "uint256"
        }
      ],
      "name": "userBribes",
      "outputs": [
        {
          "internalType": "uint256",
          "name": "",
          "type": "uint256"
        }
      ],
      "stateMutability": "view",
      "type": "function"
    },
    {
      "inputs": [
        {
          "internalType": "uint256",
          "name": "",
          "type": "uint256"
        },
        {
          "internalType": "address",
          "name": "",
          "type": "address"
        }
      ],
      "name": "voteDelegations",
      "outputs": [
        {
          "internalType": "address",
          "name": "delegator",
          "type": "address"
        },
        {
          "internalType": "address",
          "name": "delegatee",
          "type": "address"
        },
        {
          "internalType": "uint256",
          "name": "bribeId",
          "type": "uint256"
        },
        {
          "internalType": "uint256",
          "name": "votes",
          "type": "uint256"
        },
        {
          "internalType": "uint256",
          "name": "reward",
          "type": "uint256"
        },
        {
          "internalType": "bool",
          "name": "claimed",
          "type": "bool"
        }
      ],
      "stateMutability": "view",
      "type": "function"
    }
  ],
  "bytecode": "0x60803461011e57601f61176c38819003918201601f19168301916001600160401b038311848410176101235780849260209460405283398101031261011e57516001600160a01b038082169182900361011e57600160005533156101055760018054336001600160a01b0319808316821790935560405192939091167f8be0079c531659141344cd1fd0a4f28419497f9722a3daafe3b4186f6b6457e0600080a360c860045582156100c357506002541617600255604051611632908161013a8239f35b62461bcd60e51b815260206004820152601560248201527f496e76616c696420746f6b656e206164647265737300000000000000000000006044820152606490fd5b604051631e4fbdf760e01b815260006004820152602490fd5b600080fd5b634e487b7160e01b600052604160045260246000fdfe6080604081815260048036101561001557600080fd5b600092833560e01c9081624c668f146110165750806305268cff14610fed57806306520a8b14610f0857806306b6165f14610de757806312e8e2c314610d815780632c3dcb4014610b29578063436620e21461086b5780635645450b146107be5780636fcb7a3814610768578063715018a61461070b57806387172624146106ec5780638c639a85146106cf5780638da5cb5b146106a6578063a9d46e5b14610617578063ae169a50146103d4578063bb57e6ac14610383578063c5ce334814610302578063dd75cd9b146101e3578063df0951f6146101b7578063e1f1c4a7146101965763f2fde38b1461010957600080fd5b34610192576020366003190112610192576101226110e1565b9061012b611125565b6001600160a01b0391821692831561017c575050600154826001600160601b0360a01b821617600155167f8be0079c531659141344cd1fd0a4f28419497f9722a3daafe3b4186f6b6457e08380a380f35b51631e4fbdf760e01b8152908101849052602490fd5b8280fd5b5050346101b357816003193601126101b357602090516127108152f35b5080fd5b8382346101b35760203660031901126101b3576101dc906101d661120c565b35611281565b6001815580f35b50903461019257602090816003193601126102fe57610200611125565b82358452600582526102718282862060078101805461022460ff8260081c1661122f565b61ff00191690556002546001820154600390920154855163a9059cbb60e01b81526001600160a01b0393841689820190815260208101929092529485939092169183918a91839160400190565b03925af19081156102f45785916102c7575b501561028d578380f35b5162461bcd60e51b81529182015260166024820152751499599d5b99081d1c985b9cd9995c8819985a5b195960521b604482015260649150fd5b6102e79150833d85116102ed575b6102df81836111a0565b8101906111c2565b38610283565b503d6102d5565b82513d87823e3d90fd5b8380fd5b509190346101b357806003193601126101b35760c092816103216110c6565b9382358152600660205281812060018060a01b038096168252602052209083825416936001830154169260028301549060ff600560038601549486015495015416948151968752602087015285015260608401526080830152151560a0820152f35b5091346103d157816003193601126103d1576024359235815260076020528181209081548410156103d157506020926103bb916110f7565b905491519160018060a01b039160031b1c168152f35b80fd5b509034610192576020806003193601126102fe578235916103f361120c565b828552600582528085209360068352818620338752835260ff600783882096015416156105d65784546001600160a01b0390339082160361059e576005860180549660ff88166105625783015496871561052a5760ff19166001179055600254835163a9059cbb60e01b8152338482019081526020810189905290928692849291169082908b90829060400103925af1908115610520578791610503575b50156104c95750907f24b5efa61dd1cfc659205a97fb8ed868f3cb8c81922bab2b96423e5de1de2cb791519384523393a36001815580f35b82606492519162461bcd60e51b8352820152601660248201527514995dd85c99081d1c985b9cd9995c8819985a5b195960521b6044820152fd5b61051a9150843d86116102ed576102df81836111a0565b38610491565b83513d89823e3d90fd5b845162461bcd60e51b815280850187905260126024820152714e6f2072657761726420746f20636c61696d60701b6044820152606490fd5b845162461bcd60e51b8152808501879052601660248201527514995dd85c9908185b1c9958591e4818db185a5b595960521b6044820152606490fd5b5082606492519162461bcd60e51b83528201526013602482015272139bc819195b1959d85d1a5bdb88199bdd5b99606a1b6044820152fd5b82606492519162461bcd60e51b8352820152601960248201527f4272696265206e6f7420646973747269627574656420796574000000000000006044820152fd5b50346101925760203660031901126101925780826101209460ff9335815260056020522080549360018060a01b03600183015416926002830154906003840154908401549160058501549360076006870154960154968151998a5260208a01528801526060870152608086015260a085015260c0840152818116151560e084015260081c161515610100820152f35b5050346101b357816003193601126101b35760015490516001600160a01b039091168152602090f35b503461019257826003193601126101925760209250549051908152f35b5050346101b357816003193601126101b3576020906003549051908152f35b83346103d157806003193601126103d157610724611125565b600180546001600160a01b0319811690915581906001600160a01b03167f8be0079c531659141344cd1fd0a4f28419497f9722a3daafe3b4186f6b6457e08280a380f35b5050346101b357806003193601126101b3576107826110e1565b6001600160a01b031682526008602052808220805460243593908410156103d157506020926107b0916110f7565b91905490519160031b1c8152f35b8284346103d157602090816003193601126103d15782906001600160a01b036107e56110e1565b16815260088352818120908251808584549182815201908194845286842090845b818110610857575050508161081c9103826111a0565b83519485948186019282875251809352850193925b82811061084057505050500390f35b835185528695509381019392810192600101610831565b825484529288019260019283019201610806565b5090346101925760603660031901126101925781356108886110c6565b926044359261089561120c565b82865260209160058352818720906108b660ff600784015460081c1661122f565b60068201544211610af6578515610aba5760025483516309ab24eb60e41b815233818401526001600160a01b03929186908290602490829087165afa908115610ab0579088918b91610a7b575b5010610a385785895260068552838920338a52855281848a2054166109f55785895260068552838920338a528552866003858b206001600160601b0360a01b9a338c83541617825585600183019116809c825416179055886002820155015585895260078552838920805491600160401b8310156109e25750916109b38260059460017f606bf3ad1e816bb42a76b9dc9a205e5a9af70c977f7c1be4a7efaae69e2a2cca999897950181556110f7565b819291549060031b9133831b921b1916179055016109d28682546111ff565b9055519384523393a46001815580f35b634e487b7160e01b8b526041905260248afd5b835162461bcd60e51b8152908101859052601f60248201527f416c72656164792064656c65676174656420746f2074686973206272696265006044820152606490fd5b835162461bcd60e51b8152908101859052601960248201527f496e73756666696369656e7420766f74696e6720706f776572000000000000006044820152606490fd5b809250878092503d8311610aa9575b610a9481836111a0565b81010312610aa55787905138610903565b8980fd5b503d610a8a565b85513d8c823e3d90fd5b825162461bcd60e51b81529081018490526016602482015275566f746573206d75737420626520706f73697469766560501b6044820152606490fd5b825162461bcd60e51b8152908101849052600d60248201526c109c9a589948195e1c1a5c9959609a1b6044820152606490fd5b509190346101b35760603660031901126101b35760443590833560248035610b4f61120c565b8015610d3f578415610cfd5760025484516323b872dd60e01b815233898201523081850152604481018390526020979493929188908290606490829089906001600160a01b03165af1908115610cf3578591610cd6575b5015610c9c57610bc5610bba6003546111da565b9687600355426111ff565b9186855260058852600786862088815560018101336001600160601b0360a01b8254161790558560028201558360038201558460068201550161010061ff00198254161790553385526008885285852090815499600160401b8b1015610c8b57505088610c3b9160018098999a9b0181556110f7565b81549060031b9089821b91600019901b191617905585519283528783015284820152847fe0ad55bfce2a1636f86f4c5ee74d5e5d84b302bdd2125fd7bebdc2be756d05d660603393a35551908152f35b634e487b7160e01b87526041905285fd5b845162461bcd60e51b815280890188905260158184015274151bdad95b881d1c985b9cd9995c8819985a5b1959605a1b6044820152606490fd5b610ced9150883d8a116102ed576102df81836111a0565b38610ba6565b86513d87823e3d90fd5b835162461bcd60e51b81526020818901526019818401527f4475726174696f6e206d75737420626520706f736974697665000000000000006044820152606490fd5b835162461bcd60e51b81526020818901526017818401527f526577617264206d75737420626520706f7369746976650000000000000000006044820152606490fd5b503461019257602036600319011261019257803591610d9e611125565b6103e88311610dac57505580f35b906020606492519162461bcd60e51b835282015260156024820152744665652063616e6e6f74206578636565642031302560581b6044820152fd5b503461019257602036600319011261019257916101209282805192610e0b84611183565b80845280602085015280828501528060608501528060808501528060a08501528060c08501528060e0850152806101008095015282358152600560205220835190610e5582611183565b80549485835260018060a01b039081600184015416946020850195865260028401549180860192835260038501549160608701928352850154926080870193845260058601549460a08801958652600760068801549760c08a0198895201549860ff8b60e08b019a828d1615158c52019a60081c1615158a5283519b8c52511660208b015251908901525160608801525160808701525160a08601525160c085015251151560e084015251151590820152f35b509190346101b357806003193601126101b35760c09281610f276110c6565b938060a08351610f3681611151565b8281528260208201528285820152826060820152826080820152015282358152600660205281812060018060a01b0380961682526020522090825192610f7b84611151565b848354169485855280600185015416906020860191825260028501549183870192835260a060ff600560038901549760608b019889528901549860808b01998a5201541697019615158752835197885251166020870152519085015251606084015251608083015251151560a0820152f35b5050346101b357816003193601126101b35760025490516001600160a01b039091168152602090f35b905083913461019257602090816003193601126102fe579392909335815260078452828120918254808252858201908194845286842090845b8181106110a957505050816110659103826111a0565b83519485948186019282875251809352850193925b82811061108957505050500390f35b83516001600160a01b03168552869550938101939281019260010161107a565b82546001600160a01b03168452928801926001928301920161104f565b602435906001600160a01b03821682036110dc57565b600080fd5b600435906001600160a01b03821682036110dc57565b805482101561110f5760005260206000200190600090565b634e487b7160e01b600052603260045260246000fd5b6001546001600160a01b0316330361113957565b60405163118cdaa760e01b8152336004820152602490fd5b60c0810190811067ffffffffffffffff82111761116d57604052565b634e487b7160e01b600052604160045260246000fd5b610120810190811067ffffffffffffffff82111761116d57604052565b90601f8019910116810190811067ffffffffffffffff82111761116d57604052565b908160209103126110dc575180151581036110dc5790565b60001981146111e95760010190565b634e487b7160e01b600052601160045260246000fd5b919082018092116111e957565b60026000541461121d576002600055565b604051633ee5aeb560e01b8152600490fd5b1561123657565b60405162461bcd60e51b815260206004820152601060248201526f4272696265206e6f742061637469766560801b6044820152606490fd5b818102929181159184041417156111e957565b80600052600560205260406000206007810180546112a460ff8260081c1661122f565b60068301544211156115c15760ff81166115865760019061ffff191617905560058101918254156114cc5760038201546127106112e36004548361126e565b049381858103116111e9575480156114b6578482030460048401558160005260076020526040600020906040518083602082955493848152019060005260206000209260005b81811061149457505061133e925003836111a0565b60005b825181101561139b576113969060018060a01b0360208260051b86010151168560005260066020526040600020906000526020526040600020600461138e6003830154828a01549061126e565b9101556111da565b611341565b5092505091806113d5575b7fc0b4a96f868cfbee9dd1482d59615384dacfd36336158e3fb8057e2f9ceb6d179160209160405191038152a2565b60025460015460405163a9059cbb60e01b81526001600160a01b039182166004820152602481018490529160209183916044918391600091165af190811561148857600091611469575b506113a65760405162461bcd60e51b815260206004820152601c60248201527f506c6174666f726d20666565207472616e73666572206661696c6564000000006044820152606490fd5b611482915060203d6020116102ed576102df81836111a0565b3861141f565b6040513d6000823e3d90fd5b84546001600160a01b0316835260019485019487945060209093019201611329565b634e487b7160e01b600052601260045260246000fd5b50600254600182015460039092015460405163a9059cbb60e01b81526001600160a01b0393841660048201526024810191909152925060209183916044918391600091165af190811561148857600091611567575b501561152957565b60405162461bcd60e51b815260206004820152601660248201527514995d1d5c9b881d1c985b9cd9995c8819985a5b195960521b6044820152606490fd5b611580915060203d6020116102ed576102df81836111a0565b38611521565b60405162461bcd60e51b8152602060048201526013602482015272105b1c9958591e48191a5cdd1c9a589d5d1959606a1b6044820152606490fd5b60405162461bcd60e51b8152602060048201526013602482015272109c9a5899481b9bdd08195b991959081e595d606a1b6044820152606490fdfea264697066735822122028b050cdf56e72c9e6d8eaf078b11798f18ba883675f12b8fc99573b6316bae864736f6c63430008140033",
  "linkReferences": {},
  "deployedLinkReferences": {}
}