{
  "_format": "hh-sol-artifact-1",
  "contractName": "TradeClub_MatchManager",
  "sourceName": "src/TradeClub_MatchManager.sol",
  "abi": [
    {
      "inputs": [],
      "stateMutability": "nonpayable",
      "type": "constructor"
    },
    {
      "inputs": [],
      "name": "EnforcedPause",
      "type": "error"
    },
    {
      "inputs": [],
      "name": "ExpectedPause",
      "type": "error"
    },
    {
      "inputs": [
        {
          "internalType": "address",
          "name": "owner",
          "type": "address"
        }
      ],
      "name": "OwnableInvalidOwner",
      "type": "error"
    },
    {
      "inputs": [
        {
          "internalType": "address",
          "name": "account",
          "type": "address"
        }
      ],
      "name": "OwnableUnauthorizedAccount",
      "type": "error"
    },
    {
      "inputs": [],
      "name": "ReentrancyGuardReentrantCall",
      "type": "error"
    },
    {
      "anonymous": false,
      "inputs": [
        {
          "indexed": true,
          "internalType": "uint256",
          "name": "matchId",
          "type": "uint256"
        },
        {
          "indexed": true,
          "internalType": "address",
          "name": "winner",
          "type": "address"
        },
        {
          "indexed": false,
          "internalType": "uint256",
          "name": "prizePool",
          "type": "uint256"
        }
      ],
      "name": "MatchCompleted",
      "type": "event"
    },
    {
      "anonymous": false,
      "inputs": [
        {
          "indexed": true,
          "internalType": "uint256",
          "name": "matchId",
          "type": "uint256"
        },
        {
          "indexed": true,
          "internalType": "address",
          "name": "creator",
          "type": "address"
        },
        {
          "indexed": false,
          "internalType": "uint256",
          "name": "entryMargin",
          "type": "uint256"
        },
        {
          "indexed": false,
          "internalType": "uint256",
          "name": "duration",
          "type": "uint256"
        },
        {
          "indexed": false,
          "internalType": "uint256",
          "name": "maxParticipants",
          "type": "uint256"
        }
      ],
      "name": "MatchCreated",
      "type": "event"
    },
    {
      "anonymous": false,
      "inputs": [
        {
          "indexed": true,
          "internalType": "uint256",
          "name": "matchId",
          "type": "uint256"
        },
        {
          "indexed": false,
          "internalType": "uint256",
          "name": "startTime",
          "type": "uint256"
        }
      ],
      "name": "MatchStarted",
      "type": "event"
    },
    {
      "anonymous": false,
      "inputs": [
        {
          "indexed": true,
          "internalType": "address",
          "name": "previousOwner",
          "type": "address"
        },
        {
          "indexed": true,
          "internalType": "address",
          "name": "newOwner",
          "type": "address"
        }
      ],
      "name": "OwnershipTransferred",
      "type": "event"
    },
    {
      "anonymous": false,
      "inputs": [
        {
          "indexed": true,
          "internalType": "uint256",
          "name": "matchId",
          "type": "uint256"
        },
        {
          "indexed": true,
          "internalType": "address",
          "name": "participant",
          "type": "address"
        },
        {
          "indexed": false,
          "internalType": "uint256",
          "name": "stakedAmount",
          "type": "uint256"
        }
      ],
      "name": "ParticipantJoined",
      "type": "event"
    },
    {
      "anonymous": false,
      "inputs": [
        {
          "indexed": false,
          "internalType": "address",
          "name": "account",
          "type": "address"
        }
      ],
      "name": "Paused",
      "type": "event"
    },
    {
      "anonymous": false,
      "inputs": [
        {
          "indexed": true,
          "internalType": "uint256",
          "name": "matchId",
          "type": "uint256"
        },
        {
          "indexed": true,
          "internalType": "address",
          "name": "participant",
          "type": "address"
        },
        {
          "indexed": false,
          "internalType": "int256",
          "name": "pnl",
          "type": "int256"
        }
      ],
      "name": "PnLUpdated",
      "type": "event"
    },
    {
      "anonymous": false,
      "inputs": [
        {
          "indexed": false,
          "internalType": "address",
          "name": "account",
          "type": "address"
        }
      ],
      "name": "Unpaused",
      "type": "event"
    },
    {
      "inputs": [],
      "name": "BASIS_POINTS",
      "outputs": [
        {
          "internalType": "uint256",
          "name": "",
          "type": "uint256"
        }
      ],
      "stateMutability": "view",
      "type": "function"
    },
    {
      "inputs": [
        {
          "internalType": "uint256",
          "name": "_entryMargin",
          "type": "uint256"
        },
        {
          "internalType": "uint256",
          "name": "_duration",
          "type": "uint256"
        },
        {
          "internalType": "uint256",
          "name": "_maxParticipants",
          "type": "uint256"
        }
      ],
      "name": "createMatch",
      "outputs": [
        {
          "internalType": "uint256",
          "name": "",
          "type": "uint256"
        }
      ],
      "stateMutability": "payable",
      "type": "function"
    },
    {
      "inputs": [
        {
          "internalType": "uint256",
          "name": "_matchId",
          "type": "uint256"
        }
      ],
      "name": "getMatch",
      "outputs": [
        {
          "components": [
            {
              "internalType": "uint256",
              "name": "id",
              "type": "uint256"
            },
            {
              "internalType": "address",
              "name": "creator",
              "type": "address"
            },
            {
              "internalType": "uint256",
              "name": "entryMargin",
              "type": "uint256"
            },
            {
              "internalType": "uint256",
              "name": "duration",
              "type": "uint256"
            },
            {
              "internalType": "uint256",
              "name": "startTime",
              "type": "uint256"
            },
            {
              "internalType": "uint256",
              "name": "endTime",
              "type": "uint256"
            },
            {
              "internalType": "uint256",
              "name": "maxParticipants",
              "type": "uint256"
            },
            {
              "internalType": "uint256",
              "name": "prizePool",
              "type": "uint256"
            },
            {
              "internalType": "enum TradeClub_IMatchManager.MatchStatus",
              "name": "status",
              "type": "uint8"
            },
            {
              "internalType": "address[]",
              "name": "participants",
              "type": "address[]"
            },
            {
              "internalType": "address",
              "name": "winner",
              "type": "address"
            }
          ],
          "internalType": "struct TradeClub_IMatchManager.Match",
          "name": "",
          "type": "tuple"
        }
      ],
      "stateMutability": "view",
      "type": "function"
    },
    {
      "inputs": [
        {
          "internalType": "uint256",
          "name": "_matchId",
          "type": "uint256"
        }
      ],
      "name": "getMatchParticipants",
      "outputs": [
        {
          "internalType": "address[]",
          "name": "",
          "type": "address[]"
        }
      ],
      "stateMutability": "view",
      "type": "function"
    },
    {
      "inputs": [
        {
          "internalType": "uint256",
          "name": "_matchId",
          "type": "uint256"
        },
        {
          "internalType": "address",
          "name": "_participant",
          "type": "address"
        }
      ],
      "name": "getParticipant",
      "outputs": [
        {
          "components": [
            {
              "internalType": "address",
              "name": "trader",
              "type": "address"
            },
            {
              "internalType": "uint256",
              "name": "stakedAmount",
              "type": "uint256"
            },
            {
              "internalType": "int256",
              "name": "pnl",
              "type": "int256"
            },
            {
              "internalType": "uint256",
              "name": "joinedAt",
              "type": "uint256"
            }
          ],
          "internalType": "struct TradeClub_IMatchManager.Participant",
          "name": "",
          "type": "tuple"
        }
      ],
      "stateMutability": "view",
      "type": "function"
    },
    {
      "inputs": [
        {
          "internalType": "address",
          "name": "_user",
          "type": "address"
        }
      ],
      "name": "getUserMatches",
      "outputs": [
        {
          "internalType": "uint256[]",
          "name": "",
          "type": "uint256[]"
        }
      ],
      "stateMutability": "view",
      "type": "function"
    },
    {
      "inputs": [
        {
          "internalType": "uint256",
          "name": "_matchId",
          "type": "uint256"
        }
      ],
      "name": "joinMatch",
      "outputs": [],
      "stateMutability": "payable",
      "type": "function"
    },
    {
      "inputs": [],
      "name": "matchCounter",
      "outputs": [
        {
          "internalType": "uint256",
          "name": "",
          "type": "uint256"
        }
      ],
      "stateMutability": "view",
      "type": "function"
    },
    {
      "inputs": [
        {
          "internalType": "uint256",
          "name": "",
          "type": "uint256"
        },
        {
          "internalType": "uint256",
          "name": "",
          "type": "uint256"
        }
      ],
      "name": "matchParticipants",
      "outputs": [
        {
          "internalType": "address",
          "name": "",
          "type": "address"
        }
      ],
      "stateMutability": "view",
      "type": "function"
    },
    {
      "inputs": [
        {
          "internalType": "uint256",
          "name": "",
          "type": "uint256"
        }
      ],
      "name": "matches",
      "outputs": [
        {
          "internalType": "uint256",
          "name": "id",
          "type": "uint256"
        },
        {
          "internalType": "address",
          "name": "creator",
          "type": "address"
        },
        {
          "internalType": "uint256",
          "name": "entryMargin",
          "type": "uint256"
        },
        {
          "internalType": "uint256",
          "name": "duration",
          "type": "uint256"
        },
        {
          "internalType": "uint256",
          "name": "startTime",
          "type": "uint256"
        },
        {
          "internalType": "uint256",
          "name": "endTime",
          "type": "uint256"
        },
        {
          "internalType": "uint256",
          "name": "maxParticipants",
          "type": "uint256"
        },
        {
          "internalType": "uint256",
          "name": "prizePool",
          "type": "uint256"
        },
        {
          "internalType": "enum TradeClub_IMatchManager.MatchStatus",
          "name": "status",
          "type": "uint8"
        },
        {
          "internalType": "address",
          "name": "winner",
          "type": "address"
        }
      ],
      "stateMutability": "view",
      "type": "function"
    },
    {
      "inputs": [],
      "name": "owner",
      "outputs": [
        {
          "internalType": "address",
          "name": "",
          "type": "address"
        }
      ],
      "stateMutability": "view",
      "type": "function"
    },
    {
      "inputs": [
        {
          "internalType": "uint256",
          "name": "",
          "type": "uint256"
        },
        {
          "internalType": "address",
          "name": "",
          "type": "address"
        }
      ],
      "name": "participants",
      "outputs": [
        {
          "internalType": "address",
          "name": "trader",
          "type": "address"
        },
        {
          "internalType": "uint256",
          "name": "stakedAmount",
          "type": "uint256"
        },
        {
          "internalType": "int256",
          "name": "pnl",
          "type": "int256"
        },
        {
          "internalType": "uint256",
          "name": "joinedAt",
          "type": "uint256"
        }
      ],
      "stateMutability": "view",
      "type": "function"
    },
    {
      "inputs": [],
      "name": "pause",
      "outputs": [],
      "stateMutability": "nonpayable",
      "type": "function"
    },
    {
      "inputs": [],
      "name": "paused",
      "outputs": [
        {
          "internalType": "bool",
          "name": "",
          "type": "bool"
        }
      ],
      "stateMutability": "view",
      "type": "function"
    },
    {
      "inputs": [],
      "name": "platformFeePercent",
      "outputs": [
        {
          "internalType": "uint256",
          "name": "",
          "type": "uint256"
        }
      ],
      "stateMutability": "view",
      "type": "function"
    },
    {
      "inputs": [],
      "name": "renounceOwnership",
      "outputs": [],
      "stateMutability": "nonpayable",
      "type": "function"
    },
    {
      "inputs": [
        {
          "internalType": "uint256",
          "name": "_newFeePercent",
          "type": "uint256"
        }
      ],
      "name": "setPlatformFee",
      "outputs": [],
      "stateMutability": "nonpayable",
      "type": "function"
    },
    {
      "inputs": [
        {
          "internalType": "uint256",
          "name": "_matchId",
          "type": "uint256"
        }
      ],
      "name": "settleMatch",
      "outputs": [],
      "stateMutability": "nonpayable",
      "type": "function"
    },
    {
      "inputs": [
        {
          "internalType": "uint256",
          "name": "_matchId",
          "type": "uint256"
        }
      ],
      "name": "startMatch",
      "outputs": [],
      "stateMutability": "nonpayable",
      "type": "function"
    },
    {
      "inputs": [
        {
          "internalType": "address",
          "name": "newOwner",
          "type": "address"
        }
      ],
      "name": "transferOwnership",
      "outputs": [],
      "stateMutability": "nonpayable",
      "type": "function"
    },
    {
      "inputs": [],
      "name": "unpause",
      "outputs": [],
      "stateMutability": "nonpayable",
      "type": "function"
    },
    {
      "inputs": [
        {
          "internalType": "uint256",
          "name": "_matchId",
          "type": "uint256"
        },
        {
          "internalType": "address",
          "name": "_participant",
          "type": "address"
        },
        {
          "internalType": "int256",
          "name": "_pnl",
          "type": "int256"
        }
      ],
      "name": "updatePnL",
      "outputs": [],
      "stateMutability": "nonpayable",
      "type": "function"
    },
    {
      "inputs": [
        {
          "internalType": "address",
          "name": "",
          "type": "address"
        },
        {
          "internalType": "uint256",
          "name": "",
          "type": "uint256"
        }
      ],
      "name": "userMatches",
      "outputs": [
        {
          "internalType": "uint256",
          "name": "",
          "type": "uint256"
        }
      ],
      "stateMutability": "view",
      "type": "function"
    },
    {
      "inputs": [],
      "name": "withdrawFees",
      "outputs": [],
      "stateMutability": "nonpayable",
      "type": "function"
    },
    {
      "stateMutability": "payable",
      "type": "receive"
    }
  ],
  "bytecode": "0x60808060405234610084576001600055331561006e5760018054336001600160a01b03198216811790925560405191906001600160a01b03167f8be0079c531659141344cd1fd0a4f28419497f9722a3daafe3b4186f6b6457e0600080a360fa6003556117b9908161008a8239f35b631e4fbdf760e01b815260006004820152602490fd5b600080fdfe608080604052600436101561001d575b50361561001b57600080fd5b005b60003560e01c90816301fd19511461141f5750806302e060c6146113b2578063099a35481461115057806312e8e2c3146110e957806335f3ad7a146110175780633d092b3d14610e0a5780633f4ba83a14610d98578063476343ee14610d1f5780634768d4ef14610c795780634c7d1c3814610c275780635c975abb14610c015780635fe6fecf14610b6f5780636c64306a14610a6f578063715018a614610a125780638456cb59146109b05780638c639a85146109925780638da5cb5b146109695780639b5686e0146106a8578063bf725a8414610554578063ccbd6490146104a0578063e1f1c4a714610483578063f2fde38b146103fa578063fd7fef9c146103a25763feb8c43814610132573861000f565b60208060031936011261039d576004359061014b6115b9565b610153611598565b60008281526004825260409020600101546001600160a01b03919061017b90831615156115dc565b8260005260048152604060002060ff600882015416600481101561038757610337576101ad60028201543410156114b7565b8360005260068252604060002054926006820193845411156103025784600052600583526040600020336000528352604060002054166102bd57906007600692856000526005835260406000203360005283526040600020336001600160601b0360a01b82541617815534600182015560034291015585600052838352610238336040600020611512565b6102453360098301611512565b3360005281835261025a866040600020611563565b0161026634825461161f565b9055604051348152847f338e0cd33c4e120afcd73f43f082fd8940ed67ac35180d278d2eb4f3ed51d92e833393a383600052526040600020549054146102ae575b6001600055005b6102b79061162c565b386102a7565b60405162461bcd60e51b815260048101839052601960248201527f416c7265616479206a6f696e65642074686973206d61746368000000000000006044820152606490fd5b60405162461bcd60e51b815260048101849052600d60248201526c13585d18da081a5cc8199d5b1b609a1b6044820152606490fd5b60405162461bcd60e51b815260048101839052602260248201527f4d6174636820616c72656164792073746172746564206f7220636f6d706c6574604482015261195960f21b6064820152608490fd5b634e487b7160e01b600052602160045260246000fd5b600080fd5b3461039d57604036600319011261039d576103bb611450565b6001600160a01b031660009081526007602052604090208054602435919082101561039d576020916103ec91611473565b90546040519160031b1c8152f35b3461039d57602036600319011261039d57610413611450565b61041b61148b565b6001600160a01b0390811690811561046a57600154826001600160601b0360a01b821617600155167f8be0079c531659141344cd1fd0a4f28419497f9722a3daafe3b4186f6b6457e0600080a3005b604051631e4fbdf760e01b815260006004820152602490fd5b3461039d57600036600319011261039d5760206040516127108152f35b3461039d5760208060031936011261039d576001600160a01b036104c2611450565b1660005260078152604060002060405190818382549182815201908192600052846000209060005b86828210610540578686610500828803836116c7565b604051928392818401908285525180915260408401929160005b82811061052957505050500390f35b83518552869550938101939281019260010161051a565b8354855290930192600192830192016104ea565b3461039d5760208060031936011261039d5760043590816000526004815260018060a01b0361058e816001604060002001541615156115dc565b826000526004825260016040600020015416330361066557816000526004815260ff600860406000200154166004811015610387576106295781600052600681526002604060002054106105e55761001b8261162c565b6064906040519062461bcd60e51b82526004820152601c60248201527f4e656564206174206c656173742032207061727469636970616e7473000000006044820152fd5b6064906040519062461bcd60e51b82526004820152601560248201527413585d18da08185b1c9958591e481cdd185c9d1959605a1b6044820152fd5b6064906040519062461bcd60e51b825280600483015260248201527f4f6e6c79206d617463682063726561746f722063616e2063616c6c20746869736044820152fd5b3461039d57602036600319011261039d576106c16115b9565b60043560005260046020526106e760018060a01b036001604060002001541615156115dc565b60043560005260046020526040600020600881015460ff811660048110156103875760010361093157600582015442106108f65760029060ff191617600882015560043560005260066020526107406040600020611729565b908151156108e05760018060a01b036020830151169160043560005260056020526040600020836000526020526002604060002001549060015b81518110156107db5760018060a01b0360208260051b840101511660043560005260056020526040600020816000526020526002604060002001548481136107cd575b50506107c890611503565b61077a565b90955092506107c8866107bd565b505050600a810180546001600160a01b0319166001600160a01b039093169283179055600781015460035490919080830290831584830490911417156108ca57612710900482039182116108ca57600080808085875af161083a6116e9565b501561088557600801805460ff19166003179055604051908152600435907f0a2413835f07421c275d3e2feac4328391c22c9ed3db28c40b45b55a0c3a2ba690602090a36001600055005b60405162461bcd60e51b815260206004820152601c60248201527f57696e6e6572207072697a65207472616e73666572206661696c6564000000006044820152606490fd5b634e487b7160e01b600052601160045260246000fd5b634e487b7160e01b600052603260045260246000fd5b60405162461bcd60e51b815260206004820152601360248201527213585d18da081b9bdd08195b991959081e595d606a1b6044820152606490fd5b60405162461bcd60e51b815260206004820152601060248201526f4d61746368206e6f742061637469766560801b6044820152606490fd5b3461039d57600036600319011261039d576001546040516001600160a01b039091168152602090f35b3461039d57600036600319011261039d576020600354604051908152f35b3461039d57600036600319011261039d576109c961148b565b6109d1611598565b6001805460ff60a01b1916600160a01b1790556040513381527f62e78cea01bee320cd4e420270b5ea74000d11b0c9f74754ebdbfc544b05a25890602090a1005b3461039d57600036600319011261039d57610a2b61148b565b600180546001600160a01b031981169091556000906001600160a01b03167f8be0079c531659141344cd1fd0a4f28419497f9722a3daafe3b4186f6b6457e08280a3005b3461039d57606036600319011261039d57600435610a8b61143a565b90604435610a9761148b565b816000526020906004825260018060a01b03610abe816001604060002001541615156115dc565b83600052600583528060406000209516948560005283526040600020541615610b2a57907f7369b58b22170aaa230468302fd2231bf0fa59ed8175c77a7471734615843cc8918360005260058252604060002085600052825280600260406000200155604051908152a3005b60405162461bcd60e51b815260048101839052601860248201527f5061727469636970616e74206e6f7420696e206d6174636800000000000000006044820152606490fd5b3461039d5760208060031936011261039d5760043590816000526004815260018060a01b0391600190610bac8483604060002001541615156115dc565b60005260068252610bc06040600020611729565b926040519280840190808552855180925280604086019601926000905b838210610bea5786880387f35b845181168852968201969382019390850190610bdd565b3461039d57600036600319011261039d57602060ff60015460a01c166040519015158152f35b3461039d57604036600319011261039d5760243560043560005260066020526040600020805482101561039d57602091610c6091611473565b905460405160039290921b1c6001600160a01b03168152f35b3461039d57602036600319011261039d5760043560005260046020526101406040600020805490610d1760018060a01b03918260018201541692600282015460038301546004840154600585015491600686015493600787015495600a60ff60088a01541698015416986040519a8b5260208b015260408a01526060890152608088015260a087015260c086015260e0850152610100840190611466565b610120820152f35b3461039d57600036600319011261039d57610d3861148b565b60008080804760018060a01b03600154165af1610d536116e9565b5015610d5b57005b60405162461bcd60e51b8152602060048201526015602482015274119959481dda5d1a191c985dd85b0819985a5b1959605a1b6044820152606490fd5b3461039d57600036600319011261039d57610db161148b565b60015460ff8160a01c1615610df85760ff60a01b19166001556040513381527f5db9ee0a495bf2e6ff9c91a7834c1ba4fdd244a5e8aa4e537bd38aeae4b073aa90602090a1005b604051638dfc202b60e01b8152600490fd5b3461039d57602036600319011261039d576004356000610140604051610e2f816116aa565b8281528260208201528260408201528260608201528260808201528260a08201528260c08201528260e08201528261010082015260606101208201520152806000526004602052600190610e9360018060a01b0383604060002001541615156115dc565b6000526004602052604060002060405190610ead826116aa565b80548252828101546001600160a01b0316602083015260028101546040830152600381015460608301526004808201546080840152600582015460a0840152600682015460c0840152600782015460e0840152600882015460ff169081101561038757610100830152610f2260098201611729565b610120830152600a60018060a01b0391015416610140820152604051906020825261018082018151602084015260018060a01b0360208301511660408401526040820151606084015260608201516080840152608082015160a084015260a082015160c084015260c082015160e084015260e0820151610100840152610fb2610100830151610120850190611466565b610120820151916101609182610140860152835180915260206101a0860194019060005b818110610ff95750505061014001516001600160a01b0316908301528190039150f35b82516001600160a01b03168652602095860195909201918701610fd6565b3461039d57604036600319011261039d57608060043561103561143a565b90604051916110438361168e565b600083526000606060209482868201528260408201520152816000526004835260018060a01b0391611080836001604060002001541615156115dc565b60005260058352816040600020911660005282526040600020604051916110a68361168e565b8154169283835260018201548184019081526060600360028501549460408701958652015494019384526040519485525190840152516040830152516060820152f35b3461039d57602036600319011261039d5760043561110561148b565b6103e8811161111357600355005b60405162461bcd60e51b81526020600482015260156024820152744665652063616e6e6f74206578636565642031302560581b6044820152606490fd5b606036600319011261039d5760243560443560043561116d6115b9565b611175611598565b801561136d57610e1083101580611360575b156113285760028210158061131d575b156112d8576111a8813410156114b7565b6111b3600254611503565b918260025582600052602093600485526112536040600020858155600181016001600160601b0360a01b9033828254161790558560028301558360038301558460068301556008820160ff19815416905534600783015560058852604060002033600052885260406000209033908254161781553460018201556003429101558560005260068752611249336040600020611512565b6009339101611512565b3360005260078552611269846040600020611563565b604051928352848301526040820152817f2564090e364d0f78c0b11192f52f91879e0e63d22b3f601148790f4b4ab2886a60603393a3604051348152817f338e0cd33c4e120afcd73f43f082fd8940ed67ac35180d278d2eb4f3ed51d92e843393a36001600055604051908152f35b60405162461bcd60e51b815260206004820152601860248201527f496e76616c6964206d6178207061727469636970616e747300000000000000006044820152606490fd5b50600a821115611197565b60405162461bcd60e51b815260206004820152601060248201526f24b73b30b634b210323ab930ba34b7b760811b6044820152606490fd5b5062015180831115611187565b60405162461bcd60e51b815260206004820152601d60248201527f456e747279206d617267696e206d75737420626520706f7369746976650000006044820152606490fd5b3461039d57604036600319011261039d5760806113cd61143a565b6004356000526005602052604060002060018060a01b03809216600052602052604060002090815416906001810154906003600282015491015491604051938452602084015260408301526060820152f35b3461039d57600036600319011261039d576020906002548152f35b602435906001600160a01b038216820361039d57565b600435906001600160a01b038216820361039d57565b9060048210156103875752565b80548210156108e05760005260206000200190600090565b6001546001600160a01b0316330361149f57565b60405163118cdaa760e01b8152336004820152602490fd5b156114be57565b60405162461bcd60e51b815260206004820152601960248201527f496e73756666696369656e7420656e747279206d617267696e000000000000006044820152606490fd5b60001981146108ca5760010190565b8054600160401b81101561154d5761152f91600182018155611473565b819291549060031b9160018060a01b03809116831b921b1916179055565b634e487b7160e01b600052604160045260246000fd5b8054600160401b81101561154d5761158091600182018155611473565b819291549060031b91821b91600019901b1916179055565b60ff60015460a01c166115a757565b60405163d93c066560e01b8152600490fd5b6002600054146115ca576002600055565b604051633ee5aeb560e01b8152600490fd5b156115e357565b60405162461bcd60e51b815260206004820152601460248201527313585d18da08191bd95cc81b9bdd08195e1a5cdd60621b6044820152606490fd5b919082018092116108ca57565b806000526004602052604060002060088101600160ff19825416179055426004820155600561165f60038301544261161f565b9101557fc21a199ff4f6a91b067a8a76292ba2e24c5202ddfbc8f5f5a68823666a51e6e96020604051428152a2565b6080810190811067ffffffffffffffff82111761154d57604052565b610160810190811067ffffffffffffffff82111761154d57604052565b90601f8019910116810190811067ffffffffffffffff82111761154d57604052565b3d15611724573d9067ffffffffffffffff821161154d5760405191611718601f8201601f1916602001846116c7565b82523d6000602084013e565b606090565b9060405191828154918282526020928383019160005283600020936000905b8282106117605750505061175e925003836116c7565b565b85546001600160a01b03168452600195860195889550938101939091019061174856fea264697066735822122083804582d0ed5cea88aabbccf7c1e4c8f8131588f3ca637f177bfa1af884c35364736f6c63430008140033",
  "linkReferences": {},
  "deployedLinkReferences": {}
}