{
  "_format": "hh-sol-artifact-1",
  "contractName": "FUNDex",
  "sourceName": "src/FUNDex.sol",
  "abi": [
    {
      "inputs": [],
      "stateMutability": "nonpayable",
      "type": "constructor"
    },
    {
      "inputs": [
        {
          "internalType": "address",
          "name": "owner",
          "type": "address"
        }
      ],
      "name": "OwnableInvalidOwner",
      "type": "error"
    },
    {
      "inputs": [
        {
          "internalType": "address",
          "name": "account",
          "type": "address"
        }
      ],
      "name": "OwnableUnauthorizedAccount",
      "type": "error"
    },
    {
      "inputs": [],
      "name": "ReentrancyGuardReentrantCall",
      "type": "error"
    },
    {
      "anonymous": false,
      "inputs": [
        {
          "indexed": true,
          "internalType": "uint256",
          "name": "assetId",
          "type": "uint256"
        },
        {
          "indexed": false,
          "internalType": "string",
          "name": "symbol",
          "type": "string"
        },
        {
          "indexed": false,
          "internalType": "uint256",
          "name": "initialPrice",
          "type": "uint256"
        }
      ],
      "name": "AssetAdded",
      "type": "event"
    },
    {
      "anonymous": false,
      "inputs": [
        {
          "indexed": true,
          "internalType": "address",
          "name": "user",
          "type": "address"
        },
        {
          "indexed": false,
          "internalType": "uint256",
          "name": "amount",
          "type": "uint256"
        },
        {
          "indexed": false,
          "internalType": "uint256",
          "name": "newBalance",
          "type": "uint256"
        }
      ],
      "name": "Deposited",
      "type": "event"
    },
    {
      "anonymous": false,
      "inputs": [
        {
          "indexed": true,
          "internalType": "address",
          "name": "previousOwner",
          "type": "address"
        },
        {
          "indexed": true,
          "internalType": "address",
          "name": "newOwner",
          "type": "address"
        }
      ],
      "name": "OwnershipTransferred",
      "type": "event"
    },
    {
      "anonymous": false,
      "inputs": [
        {
          "indexed": true,
          "internalType": "uint256",
          "name": "positionId",
          "type": "uint256"
        },
        {
          "indexed": true,
          "internalType": "address",
          "name": "trader",
          "type": "address"
        },
        {
          "indexed": true,
          "internalType": "uint256",
          "name": "assetId",
          "type": "uint256"
        },
        {
          "indexed": false,
          "internalType": "uint256",
          "name": "exitPrice",
          "type": "uint256"
        },
        {
          "indexed": false,
          "internalType": "int256",
          "name": "pnl",
          "type": "int256"
        },
        {
          "indexed": false,
          "internalType": "uint256",
          "name": "timestamp",
          "type": "uint256"
        }
      ],
      "name": "PositionClosed",
      "type": "event"
    },
    {
      "anonymous": false,
      "inputs": [
        {
          "indexed": true,
          "internalType": "uint256",
          "name": "positionId",
          "type": "uint256"
        },
        {
          "indexed": true,
          "internalType": "address",
          "name": "trader",
          "type": "address"
        },
        {
          "indexed": true,
          "internalType": "uint256",
          "name": "assetId",
          "type": "uint256"
        },
        {
          "indexed": false,
          "internalType": "enum FUNDex.PositionType",
          "name": "positionType",
          "type": "uint8"
        },
        {
          "indexed": false,
          "internalType": "uint256",
          "name": "collateral",
          "type": "uint256"
        },
        {
          "indexed": false,
          "internalType": "uint256",
          "name": "size",
          "type": "uint256"
        },
        {
          "indexed": false,
          "internalType": "uint256",
          "name": "leverage",
          "type": "uint256"
        },
        {
          "indexed": false,
          "internalType": "uint256",
          "name": "entryPrice",
          "type": "uint256"
        },
        {
          "indexed": false,
          "internalType": "uint256",
          "name": "timestamp",
          "type": "uint256"
        }
      ],
      "name": "PositionOpened",
      "type": "event"
    },
    {
      "anonymous": false,
      "inputs": [
        {
          "indexed": true,
          "internalType": "uint256",
          "name": "assetId",
          "type": "uint256"
        },
        {
          "indexed": false,
          "internalType": "string",
          "name": "symbol",
          "type": "string"
        },
        {
          "indexed": false,
          "internalType": "uint256",
          "name": "oldPrice",
          "type": "uint256"
        },
        {
          "indexed": false,
          "internalType": "uint256",
          "name": "newPrice",
          "type": "uint256"
        },
        {
          "indexed": false,
          "internalType": "uint256",
          "name": "timestamp",
          "type": "uint256"
        }
      ],
      "name": "PriceUpdated",
      "type": "event"
    },
    {
      "anonymous": false,
      "inputs": [
        {
          "indexed": true,
          "internalType": "address",
          "name": "user",
          "type": "address"
        },
        {
          "indexed": false,
          "internalType": "uint256",
          "name": "amount",
          "type": "uint256"
        },
        {
          "indexed": false,
          "internalType": "uint256",
          "name": "newBalance",
          "type": "uint256"
        }
      ],
      "name": "Withdrawn",
      "type": "event"
    },
    {
      "inputs": [],
      "name": "MAX_LEVERAGE",
      "outputs": [
        {
          "internalType": "uint256",
          "name": "",
          "type": "uint256"
        }
      ],
      "stateMutability": "view",
      "type": "function"
    },
    {
      "inputs": [],
      "name": "PRICE_PRECISION",
      "outputs": [
        {
          "internalType": "uint256",
          "name": "",
          "type": "uint256"
        }
      ],
      "stateMutability": "view",
      "type": "function"
    },
    {
      "inputs": [
        {
          "internalType": "string",
          "name": "symbol",
          "type": "string"
        },
        {
          "internalType": "uint256",
          "name": "initialPrice",
          "type": "uint256"
        }
      ],
      "name": "addAsset",
      "outputs": [],
      "stateMutability": "nonpayable",
      "type": "function"
    },
    {
      "inputs": [],
      "name": "assetCounter",
      "outputs": [
        {
          "internalType": "uint256",
          "name": "",
          "type": "uint256"
        }
      ],
      "stateMutability": "view",
      "type": "function"
    },
    {
      "inputs": [
        {
          "internalType": "uint256",
          "name": "",
          "type": "uint256"
        }
      ],
      "name": "assets",
      "outputs": [
        {
          "internalType": "string",
          "name": "symbol",
          "type": "string"
        },
        {
          "internalType": "uint256",
          "name": "currentPrice",
          "type": "uint256"
        },
        {
          "internalType": "uint256",
          "name": "lastUpdated",
          "type": "uint256"
        },
        {
          "internalType": "bool",
          "name": "isActive",
          "type": "bool"
        }
      ],
      "stateMutability": "view",
      "type": "function"
    },
    {
      "inputs": [
        {
          "internalType": "address",
          "name": "",
          "type": "address"
        }
      ],
      "name": "balances",
      "outputs": [
        {
          "internalType": "uint256",
          "name": "",
          "type": "uint256"
        }
      ],
      "stateMutability": "view",
      "type": "function"
    },
    {
      "inputs": [
        {
          "internalType": "uint256[]",
          "name": "assetIds",
          "type": "uint256[]"
        },
        {
          "internalType": "uint256[]",
          "name": "newPrices",
          "type": "uint256[]"
        }
      ],
      "name": "batchUpdatePrices",
      "outputs": [],
      "stateMutability": "nonpayable",
      "type": "function"
    },
    {
      "inputs": [
        {
          "internalType": "uint256",
          "name": "positionId",
          "type": "uint256"
        },
        {
          "internalType": "uint256",
          "name": "currentPrice",
          "type": "uint256"
        }
      ],
      "name": "calculatePnL",
      "outputs": [
        {
          "internalType": "int256",
          "name": "",
          "type": "int256"
        }
      ],
      "stateMutability": "view",
      "type": "function"
    },
    {
      "inputs": [
        {
          "internalType": "uint256",
          "name": "positionId",
          "type": "uint256"
        },
        {
          "internalType": "uint256",
          "name": "assetId",
          "type": "uint256"
        }
      ],
      "name": "closePosition",
      "outputs": [],
      "stateMutability": "nonpayable",
      "type": "function"
    },
    {
      "inputs": [],
      "name": "deposit",
      "outputs": [],
      "stateMutability": "payable",
      "type": "function"
    },
    {
      "inputs": [
        {
          "internalType": "uint256",
          "name": "assetId",
          "type": "uint256"
        }
      ],
      "name": "getAsset",
      "outputs": [
        {
          "components": [
            {
              "internalType": "string",
              "name": "symbol",
              "type": "string"
            },
            {
              "internalType": "uint256",
              "name": "currentPrice",
              "type": "uint256"
            },
            {
              "internalType": "uint256",
              "name": "lastUpdated",
              "type": "uint256"
            },
            {
              "internalType": "bool",
              "name": "isActive",
              "type": "bool"
            }
          ],
          "internalType": "struct FUNDex.Asset",
          "name": "",
          "type": "tuple"
        }
      ],
      "stateMutability": "view",
      "type": "function"
    },
    {
      "inputs": [
        {
          "internalType": "uint256",
          "name": "positionId",
          "type": "uint256"
        }
      ],
      "name": "getPosition",
      "outputs": [
        {
          "components": [
            {
              "internalType": "address",
              "name": "trader",
              "type": "address"
            },
            {
              "internalType": "enum FUNDex.PositionType",
              "name": "positionType",
              "type": "uint8"
            },
            {
              "internalType": "uint256",
              "name": "collateral",
              "type": "uint256"
            },
            {
              "internalType": "uint256",
              "name": "size",
              "type": "uint256"
            },
            {
              "internalType": "uint256",
              "name": "leverage",
              "type": "uint256"
            },
            {
              "internalType": "uint256",
              "name": "entryPrice",
              "type": "uint256"
            },
            {
              "internalType": "uint256",
              "name": "openedAt",
              "type": "uint256"
            },
            {
              "internalType": "bool",
              "name": "isOpen",
              "type": "bool"
            }
          ],
          "internalType": "struct FUNDex.Position",
          "name": "",
          "type": "tuple"
        }
      ],
      "stateMutability": "view",
      "type": "function"
    },
    {
      "inputs": [
        {
          "internalType": "address",
          "name": "user",
          "type": "address"
        }
      ],
      "name": "getUserOpenPositions",
      "outputs": [
        {
          "internalType": "uint256[]",
          "name": "",
          "type": "uint256[]"
        }
      ],
      "stateMutability": "view",
      "type": "function"
    },
    {
      "inputs": [
        {
          "internalType": "uint256",
          "name": "assetId",
          "type": "uint256"
        },
        {
          "internalType": "enum FUNDex.PositionType",
          "name": "positionType",
          "type": "uint8"
        },
        {
          "internalType": "uint256",
          "name": "leverage",
          "type": "uint256"
        }
      ],
      "name": "openPosition",
      "outputs": [
        {
          "internalType": "uint256",
          "name": "",
          "type": "uint256"
        }
      ],
      "stateMutability": "payable",
      "type": "function"
    },
    {
      "inputs": [],
      "name": "owner",
      "outputs": [
        {
          "internalType": "address",
          "name": "",
          "type": "address"
        }
      ],
      "stateMutability": "view",
      "type": "function"
    },
    {
      "inputs": [],
      "name": "positionCounter",
      "outputs": [
        {
          "internalType": "uint256",
          "name": "",
          "type": "uint256"
        }
      ],
      "stateMutability": "view",
      "type": "function"
    },
    {
      "inputs": [
        {
          "internalType": "uint256",
          "name": "",
          "type": "uint256"
        }
      ],
      "name": "positions",
      "outputs": [
        {
          "internalType": "address",
          "name": "trader",
          "type": "address"
        },
        {
          "internalType": "enum FUNDex.PositionType",
          "name": "positionType",
          "type": "uint8"
        },
        {
          "internalType": "uint256",
          "name": "collateral",
          "type": "uint256"
        },
        {
          "internalType": "uint256",
          "name": "size",
          "type": "uint256"
        },
        {
          "internalType": "uint256",
          "name": "leverage",
          "type": "uint256"
        },
        {
          "internalType": "uint256",
          "name": "entryPrice",
          "type": "uint256"
        },
        {
          "internalType": "uint256",
          "name": "openedAt",
          "type": "uint256"
        },
        {
          "internalType": "bool",
          "name": "isOpen",
          "type": "bool"
        }
      ],
      "stateMutability": "view",
      "type": "function"
    },
    {
      "inputs": [],
      "name": "renounceOwnership",
      "outputs": [],
      "stateMutability": "nonpayable",
      "type": "function"
    },
    {
      "inputs": [
        {
          "internalType": "address",
          "name": "newOwner",
          "type": "address"
        }
      ],
      "name": "transferOwnership",
      "outputs": [],
      "stateMutability": "nonpayable",
      "type": "function"
    },
    {
      "inputs": [
        {
          "internalType": "uint256",
          "name": "assetId",
          "type": "uint256"
        },
        {
          "internalType": "uint256",
          "name": "newPrice",
          "type": "uint256"
        }
      ],
      "name": "updatePrice",
      "outputs": [],
      "stateMutability": "nonpayable",
      "type": "function"
    },
    {
      "inputs": [
        {
          "internalType": "address",
          "name": "",
          "type": "address"
        },
        {
          "internalType": "uint256",
          "name": "",
          "type": "uint256"
        }
      ],
      "name": "userPositions",
      "outputs": [
        {
          "internalType": "uint256",
          "name": "",
          "type": "uint256"
        }
      ],
      "stateMutability": "view",
      "type": "function"
    },
    {
      "inputs": [
        {
          "internalType": "uint256",
          "name": "amount",
          "type": "uint256"
        }
      ],
      "name": "withdraw",
      "outputs": [],
      "stateMutability": "nonpayable",
      "type": "function"
    },
    {
      "stateMutability": "payable",
      "type": "receive"
    }
  ],
  "bytecode": "0x608060409080825234620003305733156200031a575060008054336001600160a01b0319821681178355906001600160a01b03167f8be0079c531659141344cd1fd0a4f28419497f9722a3daafe3b4186f6b6457e08380a3600180805582516001600160401b03929190808501848111828210176200030657855260078152602091661155120bd554d160ca1b838301526007549260001993848114620002f257820195866007558751946080860186811083821117620002de57895284865282860195686c6b935b8bbd400000948588528a820190428252606098898401958287528c8c52600588528d8c209451958651918211620002ca5785548481811c91168015620002bf575b8a821014620002ab57898e601f83116200025e575b91505050888d601f8411600114620001ef579060039884939293620001e3575b505082851b92881b1c19161784555b5190830155516002820155019051151560ff801983541691161790558651948786528351938489880152815b858110620001cf5789897f40f79f74b476c7f952bccb6e8d52566614b92e6ce48fd68768db0ca57ef83c788a8a818b8b8b8b858486010152830152601f80199101168101030190a25161186a9081620003368239f35b818101840151888201880152830162000179565b0151915038806200013e565b929394959697601f1985168985528b8520945b8c828210620002495750509185939188979660039b9a9996941062000231575b50505050811b0184556200014d565b01519060f8848b1b161c191690553880808062000222565b83850151875595890195938401930162000202565b88815220601f840160051c8101918b8510620002a0575b601f0160051c019085908f5b838210620002945790508b91506200011e565b81550185908f62000281565b909150819062000275565b634e487b7160e01b8e52602260045260248efd5b90607f169062000109565b634e487b7160e01b8d52604160045260248dfd5b634e487b7160e01b88526041600452602488fd5b634e487b7160e01b86526011600452602486fd5b634e487b7160e01b84526041600452602484fd5b631e4fbdf760e01b815260006004820152602490fd5b600080fdfe604060808152600480361015610076575b50361561001c57600080fd5b3360005260026020528060002061003434825461152c565b90553360005260026020527f73a19dd210f1a7f902193214c0ee91dd35ee5b4d920cba8d519eca65a7b488ca81600020549180519234845260208401523392a2005b90600091823560e01c80631bc7ffe91461105457806327e235e31461101c5780632d6ce61d14610e535780632e1a7d4d14610d255780634441aacb14610b8c5780634b91878614610b6d57806358d0594d14610b4a5780635e1b4d9914610af357806363d5ab8d14610ad4578063715018a614610a7757806382367b2d146109e7578063862a3394146107c55780638da5cb5b1461079d5780638fd652c3146105e257806395082d25146105bf57806399fbab88146105365780639b45ec971461051a578063cf35bdd0146104a6578063d0e30db014610402578063eac8f5b81461033e578063eb02c3011461020a5763f2fde38b14610177575090610010565b346102065760203660031901126102065761019061133d565b90610199611500565b6001600160a01b039182169283156101f0575050600054826bffffffffffffffffffffffff60a01b821617600055167f8be0079c531659141344cd1fd0a4f28419497f9722a3daafe3b4186f6b6457e0600080a380f35b51631e4fbdf760e01b8152908101849052602490fd5b8280fd5b5091903461033a57602036600319011261033a578160e0825161022c816112e2565b82815282602082015282848201528260608201528260808201528260a08201528260c0820152015282358252600360205280822081519261026c846112e2565b81546001600160a01b038082168652936020860192909160a01c60ff16906002821015610327575090610100969183526001840154908087019182526002850154916060880192835261030060038701549460808a019586528701549560a08a0196875260ff600660058a01549960c08d019a8b520154169860e08b019915158a5284519a51168a525160208a01906113cd565b51908701525160608601525160808501525160a08401525160c083015251151560e0820152f35b634e487b7160e01b815260218852602490fd5b5080fd5b50903461020657602091826003193601126103fe5783829160809560608451610366816112b0565b81815282888201528286820152015235815260058452209181519261038a846112b0565b82516103a18161039a818561142a565b03826112ff565b84526001810154928285019384526103e660ff6003600285015494848901958652015416936060870194151585528251978897828952519188015260a08701906114c0565b93519085015251606084015251151560808301520390f35b8380fd5b508260031936011261020657341561046c5750338252600260205280822061042b34825461152c565b905533825260026020527f73a19dd210f1a7f902193214c0ee91dd35ee5b4d920cba8d519eca65a7b488ca818320549180519234845260208401523392a280f35b6020606492519162461bcd60e51b8352820152601560248201527409aeae6e840c8cae0dee6d2e840e6dedaca408aa89605b1b6044820152fd5b5034610206576020366003190112610206576105069282913581526005602052208151916104df836104d8818561142a565b03846112ff565b60018201549160ff60036002830154920154169180519586956080875260808701906114c0565b936020860152840152151560608301520390f35b50503461033a578160031936011261033a5760209051600a8152f35b5090346102065760203660031901126102065780610100938335815260036020522080549260018201549060028301546003840154918401549260ff60066005870154960154169561059f81519860018060a01b0381168a5260ff60208b019160a01c166113cd565b8701526060860152608085015260a084015260c0830152151560e0820152f35b50503461033a578160031936011261033a5760209051670de0b6b3a76400008152f35b50903461020657806003193601126102065767ffffffffffffffff823581811161079957610613903690850161139c565b9290916024359081116107955761062d903690860161139c565b9094610637611500565b81850361075a5750855b84811061064c578680f35b6106578186866117f8565b358752600560209080825260ff6003868b2001541680610746575b610687575b5050610682906115be565b610641565b6106928388886117f8565b35895280825260019081868b200154916106ad85878c6117f8565b35906106ba868b8b6117f8565b358c52828552878c2001556106d08489896117f8565b358a5280835242868b20600201556106e98489896117f8565b35926106f6858a8a6117f8565b358b525284892061070884868b6117f8565b35908651928392429161071b93856117d0565b037f9e68d78b8fff2d44953bf1ebdb5e5fbf1c31b58d838df56c4458394efa4082ea91a23880610677565b5061075283858a6117f8565b351515610672565b606490602084519162461bcd60e51b83528201526015602482015274082e4e4c2f240d8cadccee8d040dad2e6dac2e8c6d605b1b6044820152fd5b8580fd5b8480fd5b50503461033a578160031936011261033a57905490516001600160a01b039091168152602090f35b50906060366003190112610206578135602435600281101561079957604435948281526020956005875261080160ff600387852001541661157f565b34156109a457600181101580610999575b15610963578034029134830482036109505761082f6006546115be565b96876006558782526003895286822091825460ff60a01b8760a01b169060ff60a01b193316906affffffffffffffffffffff60a81b161717835534600184015584600284015583600384015586815260058a526006600189832001549383810194855542600582015501600160ff19825416179055338152818a52878120908154926801000000000000000084101561093d575050906108d49160018201815561136e565b81549060031b9089821b91600019901b191617905554916108f7865180956113cd565b348885015285840152606083015260808201524260a0820152837fa3073025324f228d61194f5d7080089988e560b1427ccf4764130b12acdc6f6360c03393a451908152f35b634e487b7160e01b825260419052602490fd5b634e487b7160e01b815260118752602490fd5b845162461bcd60e51b8152808701889052601060248201526f496e76616c6964206c6576657261676560801b6044820152606490fd5b50600a811115610812565b845162461bcd60e51b8152808701889052601b60248201527f4d7573742073656e642045544820617320636f6c6c61746572616c00000000006044820152606490fd5b50503461033a577f9e68d78b8fff2d44953bf1ebdb5e5fbf1c31b58d838df56c4458394efa4082ea610a1836611358565b9092610a22611500565b8385526005602052610a3c60ff600383882001541661157f565b610a4782151561178b565b8385526005602052610a7181862060018101928484549455426002830155519384934292856117d0565b0390a280f35b8334610ad15780600319360112610ad157610a90611500565b600080546001600160a01b0319811682556001600160a01b03167f8be0079c531659141344cd1fd0a4f28419497f9722a3daafe3b4186f6b6457e08280a380f35b80fd5b50503461033a578160031936011261033a576020906006549051908152f35b509134610ad15781600319360112610ad157610b0d61133d565b6001600160a01b0316815260209290925280822080546024359390841015610ad15750602092610b3c9161136e565b91905490519160031b1c8152f35b50503461033a57602090610b66610b6036611358565b906115e6565b9051908152f35b50503461033a578160031936011261033a576020906007549051908152f35b5082903461033a5760209081600319360112610206576001600160a01b03610bb261133d565b1683528152828220918351808484829654938481520190845284842092845b86828210610d0f57505050610be8925003846112ff565b8091815b8451811015610c3857610bff8186611808565b5183526003825260ff6006878520015416610c23575b610c1e906115be565b610bec565b92610c30610c1e916115be565b939050610c15565b50918385610c5d610c488461181c565b93610c55835195866112ff565b80855261181c565b8386019490601f19013686378095815b8451811015610ccf57610c808186611808565b5183526003825260ff6006858520015416610ca4575b610c9f906115be565b610c6d565b96610cc7610c9f91610cb68a88611808565b51610cc1828a611808565b526115be565b979050610c96565b508251818152855181830181905290938493908401928892915b828110610cf857505050500390f35b835185528695509381019392810192600101610ce9565b8554845260019586019589955093019201610bd1565b509034610206576020806003193601126103fe57823592610d4461155c565b33855260028252838386205410610e1b5733855260028252828520610d6a85825461154f565b90558480808087335af13d15610e16573d610d8481611321565b90610d91865192836112ff565b815286843d92013e5b15610de15750907f92ccf450a286a957af52509bc1c9939d1a6a481783e142e41e2499f0bb66ebc69133855260028152818520549082519485528401523392a26001805580f35b915162461bcd60e51b815291820152601160248201527015da5d1a191c985dd85b0819985a5b1959607a1b6044820152606490fd5b610d9a565b915162461bcd60e51b8152918201526014602482015273496e73756666696369656e742062616c616e636560601b6044820152606490fd5b503461020657610e6236611358565b92610e6b61155c565b818552600360209081528186208054909491906001600160a01b03163303610fe8576006850160ff81541615610fa75786885260058252610eb460ff6003868b2001541661157f565b868852600582526001848920015495610ecd87876115e6565b93898512610f3e5750836001610ee492015461152c565b33895260028352610ef9858a2091825461152c565b90555b60ff198154169055825194855284015242908301527f0a228c2095fad1e53cf774abb551fc5bcab2939fdc709560aec2b0219f4ae8c060603393a46001805580f35b919891600160ff1b8514610f9457506001015483820390808210610f6b5750503381526002825296610efc565b90610f789199929961154f565b33895260028352610f8d858a2091825461152c565b9055610efc565b634e487b7160e01b835260119052602482fd5b50606492519162461bcd60e51b8352820152601760248201527f506f736974696f6e20616c726561647920636c6f7365640000000000000000006044820152fd5b606492519162461bcd60e51b835282015260116024820152702737ba103cb7bab9103837b9b4ba34b7b760791b6044820152fd5b50503461033a57602036600319011261033a5760209181906001600160a01b0361104461133d565b1681526002845220549051908152f35b5082903461033a578260031936011261033a57803567ffffffffffffffff938482116103fe57366023830112156103fe57818301359161109383611321565b926110a0835194856112ff565b80845236602482840101116107955760249181879260209485930183880137850101526024356110ce611500565b6110d981151561178b565b6110e46007546115be565b948560075583516110f4816112b0565b85815283810183815285820199428b52606083019360018552898b5260058752878b20935190815192831161129d575061112e84546113f0565b601f811161125a575b508690601f83116001146111d157918060039594928d9e947f40f79f74b476c7f952bccb6e8d52566614b92e6ce48fd68768db0ca57ef83c789d9e926111c6575b50508160011b9160001990871b1c19161783555b516001830155516002820155019051151560ff801983541691161790556111bc83519484869586528501906114c0565b918301520390a280f35b015190508e80611178565b848c52878c209190601f1984168d5b8181106112435750926001927f40f79f74b476c7f952bccb6e8d52566614b92e6ce48fd68768db0ca57ef83c789d9e9f95928360039998961061122b575b505050811b01835561118c565b015160001983891b60f8161c191690558e808061121e565b92938a6001819287860151815501950193016111e0565b848c52878c20601f840160051c810191898510611293575b601f0160051c01905b8181106112885750611137565b8c815560010161127b565b9091508190611272565b634e487b7160e01b8c526041905260248bfd5b6080810190811067ffffffffffffffff8211176112cc57604052565b634e487b7160e01b600052604160045260246000fd5b610100810190811067ffffffffffffffff8211176112cc57604052565b90601f8019910116810190811067ffffffffffffffff8211176112cc57604052565b67ffffffffffffffff81116112cc57601f01601f191660200190565b600435906001600160a01b038216820361135357565b600080fd5b6040906003190112611353576004359060243590565b80548210156113865760005260206000200190600090565b634e487b7160e01b600052603260045260246000fd5b9181601f840112156113535782359167ffffffffffffffff8311611353576020808501948460051b01011161135357565b9060028210156113da5752565b634e487b7160e01b600052602160045260246000fd5b90600182811c92168015611420575b602083101461140a57565b634e487b7160e01b600052602260045260246000fd5b91607f16916113ff565b906000929180549161143b836113f0565b91828252600193848116908160001461149d575060011461145d575b50505050565b90919394506000526020928360002092846000945b838610611489575050505001019038808080611457565b805485870183015294019385908201611472565b9294505050602093945060ff191683830152151560051b01019038808080611457565b919082519283825260005b8481106114ec575050826000602080949584010152601f8019910116010190565b6020818301810151848301820152016114cb565b6000546001600160a01b0316330361151457565b60405163118cdaa760e01b8152336004820152602490fd5b9190820180921161153957565b634e487b7160e01b600052601160045260246000fd5b9190820391821161153957565b60026001541461156d576002600155565b604051633ee5aeb560e01b8152600490fd5b1561158657565b60405162461bcd60e51b815260206004820152601060248201526f4173736574206e6f742061637469766560801b6044820152606490fd5b60001981146115395760010190565b8181039291600013801582851316918412161761153957565b90600091825260036020526040822091604051611602816112e2565b83546001600160a01b038116825260208201939060a01c60ff16600281101561177757845260018501546040830152600285015493606083019485526003860154608084015260049260ff6006858901549860a08401998a52600581015460c0850152015416159060e0821591015261173e5751600281101561172b5761171a57845161168e916115cd565b925b51600160ff1b94848202949091848212878214166117075781860514901517156116f457519384156116e15783146000198514166116ce5750500590565b634e487b7160e01b825260119052602490fd5b634e487b7160e01b835260128252602483fd5b634e487b7160e01b835260118252602483fd5b634e487b7160e01b855260118452602485fd5b6117259085516115cd565b92611690565b634e487b7160e01b845260218352602484fd5b60405162461bcd60e51b81526020818501526012602482015271141bdcda5d1a5bdb881a5cc818db1bdcd95960721b6044820152606490fd5b634e487b7160e01b84526021600452602484fd5b1561179257565b60405162461bcd60e51b81526020600482015260166024820152755072696365206d75737420626520706f73697469766560501b6044820152606490fd5b90926117e960609396959460808452608084019061142a565b95602083015260408201520152565b91908110156113865760051b0190565b80518210156113865760209160051b010190565b67ffffffffffffffff81116112cc5760051b6020019056fea26469706673582212202c966c01e3791daa8e48da0074cb2f16b3d9f312f97c43058c33cc7835591ea964736f6c63430008140033",
  "linkReferences": {},
  "deployedLinkReferences": {}
}