{
  "_format": "hh-sol-artifact-1",
  "contractName": "TradeClub_MatchManager",
  "sourceName": "src/TradeClub_MatchManager.sol",
  "abi": [
    {
      "inputs": [],
      "stateMutability": "nonpayable",
      "type": "constructor"
    },
    {
      "inputs": [],
      "name": "EnforcedPause",
      "type": "error"
    },
    {
      "inputs": [],
      "name": "ExpectedPause",
      "type": "error"
    },
    {
      "inputs": [
        {
          "internalType": "address",
          "name": "owner",
          "type": "address"
        }
      ],
      "name": "OwnableInvalidOwner",
      "type": "error"
    },
    {
      "inputs": [
        {
          "internalType": "address",
          "name": "account",
          "type": "address"
        }
      ],
      "name": "OwnableUnauthorizedAccount",
      "type": "error"
    },
    {
      "inputs": [],
      "name": "ReentrancyGuardReentrantCall",
      "type": "error"
    },
    {
      "anonymous": false,
      "inputs": [
        {
          "indexed": true,
          "internalType": "uint256",
          "name": "matchId",
          "type": "uint256"
        },
        {
          "indexed": true,
          "internalType": "address",
          "name": "winner",
          "type": "address"
        },
        {
          "indexed": false,
          "internalType": "uint256",
          "name": "prizePool",
          "type": "uint256"
        }
      ],
      "name": "MatchCompleted",
      "type": "event"
    },
    {
      "anonymous": false,
      "inputs": [
        {
          "indexed": true,
          "internalType": "uint256",
          "name": "matchId",
          "type": "uint256"
        },
        {
          "indexed": true,
          "internalType": "address",
          "name": "creator",
          "type": "address"
        },
        {
          "indexed": false,
          "internalType": "uint256",
          "name": "entryMargin",
          "type": "uint256"
        },
        {
          "indexed": false,
          "internalType": "uint256",
          "name": "duration",
          "type": "uint256"
        },
        {
          "indexed": false,
          "internalType": "uint256",
          "name": "maxMonachads",
          "type": "uint256"
        },
        {
          "indexed": false,
          "internalType": "uint256",
          "name": "maxSupportersPerMonachad",
          "type": "uint256"
        },
        {
          "indexed": false,
          "internalType": "address[]",
          "name": "allowedDexes",
          "type": "address[]"
        }
      ],
      "name": "MatchCreated",
      "type": "event"
    },
    {
      "anonymous": false,
      "inputs": [
        {
          "indexed": true,
          "internalType": "uint256",
          "name": "matchId",
          "type": "uint256"
        },
        {
          "indexed": false,
          "internalType": "uint256",
          "name": "startTime",
          "type": "uint256"
        }
      ],
      "name": "MatchStarted",
      "type": "event"
    },
    {
      "anonymous": false,
      "inputs": [
        {
          "indexed": true,
          "internalType": "uint256",
          "name": "matchId",
          "type": "uint256"
        },
        {
          "indexed": true,
          "internalType": "address",
          "name": "monachad",
          "type": "address"
        },
        {
          "indexed": false,
          "internalType": "uint256",
          "name": "stakedAmount",
          "type": "uint256"
        }
      ],
      "name": "MonachadJoined",
      "type": "event"
    },
    {
      "anonymous": false,
      "inputs": [
        {
          "indexed": true,
          "internalType": "address",
          "name": "previousOwner",
          "type": "address"
        },
        {
          "indexed": true,
          "internalType": "address",
          "name": "newOwner",
          "type": "address"
        }
      ],
      "name": "OwnershipTransferred",
      "type": "event"
    },
    {
      "anonymous": false,
      "inputs": [
        {
          "indexed": false,
          "internalType": "address",
          "name": "account",
          "type": "address"
        }
      ],
      "name": "Paused",
      "type": "event"
    },
    {
      "anonymous": false,
      "inputs": [
        {
          "indexed": true,
          "internalType": "uint256",
          "name": "matchId",
          "type": "uint256"
        },
        {
          "indexed": true,
          "internalType": "address",
          "name": "participant",
          "type": "address"
        },
        {
          "indexed": false,
          "internalType": "int256",
          "name": "pnl",
          "type": "int256"
        }
      ],
      "name": "PnLUpdated",
      "type": "event"
    },
    {
      "anonymous": false,
      "inputs": [
        {
          "indexed": true,
          "internalType": "uint256",
          "name": "matchId",
          "type": "uint256"
        },
        {
          "indexed": true,
          "internalType": "address",
          "name": "supporter",
          "type": "address"
        },
        {
          "indexed": true,
          "internalType": "address",
          "name": "followingMonachad",
          "type": "address"
        },
        {
          "indexed": false,
          "internalType": "address",
          "name": "smartAccount",
          "type": "address"
        },
        {
          "indexed": false,
          "internalType": "uint256",
          "name": "entryFee",
          "type": "uint256"
        },
        {
          "indexed": false,
          "internalType": "uint256",
          "name": "fundedAmount",
          "type": "uint256"
        }
      ],
      "name": "SupporterJoined",
      "type": "event"
    },
    {
      "anonymous": false,
      "inputs": [
        {
          "indexed": false,
          "internalType": "address",
          "name": "account",
          "type": "address"
        }
      ],
      "name": "Unpaused",
      "type": "event"
    },
    {
      "inputs": [],
      "name": "BASIS_POINTS",
      "outputs": [
        {
          "internalType": "uint256",
          "name": "",
          "type": "uint256"
        }
      ],
      "stateMutability": "view",
      "type": "function"
    },
    {
      "inputs": [
        {
          "internalType": "uint256",
          "name": "_entryMargin",
          "type": "uint256"
        },
        {
          "internalType": "uint256",
          "name": "_duration",
          "type": "uint256"
        },
        {
          "internalType": "uint256",
          "name": "_maxMonachads",
          "type": "uint256"
        },
        {
          "internalType": "uint256",
          "name": "_maxSupportersPerMonachad",
          "type": "uint256"
        },
        {
          "internalType": "address[]",
          "name": "_allowedDexes",
          "type": "address[]"
        }
      ],
      "name": "createMatch",
      "outputs": [
        {
          "internalType": "uint256",
          "name": "",
          "type": "uint256"
        }
      ],
      "stateMutability": "payable",
      "type": "function"
    },
    {
      "inputs": [
        {
          "internalType": "uint256",
          "name": "_matchId",
          "type": "uint256"
        },
        {
          "internalType": "address",
          "name": "_monachad",
          "type": "address"
        },
        {
          "internalType": "address payable",
          "name": "_smartAccountAddress",
          "type": "address"
        }
      ],
      "name": "followMonachadAndFundAccount",
      "outputs": [],
      "stateMutability": "payable",
      "type": "function"
    },
    {
      "inputs": [
        {
          "internalType": "uint256",
          "name": "_matchId",
          "type": "uint256"
        }
      ],
      "name": "getEntryFee",
      "outputs": [
        {
          "internalType": "uint256",
          "name": "",
          "type": "uint256"
        }
      ],
      "stateMutability": "view",
      "type": "function"
    },
    {
      "inputs": [
        {
          "internalType": "uint256",
          "name": "_matchId",
          "type": "uint256"
        }
      ],
      "name": "getMatch",
      "outputs": [
        {
          "components": [
            {
              "internalType": "uint256",
              "name": "id",
              "type": "uint256"
            },
            {
              "internalType": "address",
              "name": "creator",
              "type": "address"
            },
            {
              "internalType": "uint256",
              "name": "entryMargin",
              "type": "uint256"
            },
            {
              "internalType": "uint256",
              "name": "duration",
              "type": "uint256"
            },
            {
              "internalType": "uint256",
              "name": "startTime",
              "type": "uint256"
            },
            {
              "internalType": "uint256",
              "name": "endTime",
              "type": "uint256"
            },
            {
              "internalType": "uint256",
              "name": "maxMonachads",
              "type": "uint256"
            },
            {
              "internalType": "uint256",
              "name": "maxSupportersPerMonachad",
              "type": "uint256"
            },
            {
              "internalType": "uint256",
              "name": "prizePool",
              "type": "uint256"
            },
            {
              "internalType": "enum TradeClub_IMatchManager.MatchStatus",
              "name": "status",
              "type": "uint8"
            },
            {
              "internalType": "address[]",
              "name": "monachads",
              "type": "address[]"
            },
            {
              "internalType": "address[]",
              "name": "allowedDexes",
              "type": "address[]"
            },
            {
              "internalType": "address",
              "name": "winner",
              "type": "address"
            }
          ],
          "internalType": "struct TradeClub_IMatchManager.Match",
          "name": "",
          "type": "tuple"
        }
      ],
      "stateMutability": "view",
      "type": "function"
    },
    {
      "inputs": [
        {
          "internalType": "uint256",
          "name": "_matchId",
          "type": "uint256"
        }
      ],
      "name": "getMatchMonachads",
      "outputs": [
        {
          "internalType": "address[]",
          "name": "",
          "type": "address[]"
        }
      ],
      "stateMutability": "view",
      "type": "function"
    },
    {
      "inputs": [
        {
          "internalType": "uint256",
          "name": "_matchId",
          "type": "uint256"
        },
        {
          "internalType": "address",
          "name": "_monachad",
          "type": "address"
        }
      ],
      "name": "getMonachadSupporters",
      "outputs": [
        {
          "internalType": "address[]",
          "name": "",
          "type": "address[]"
        }
      ],
      "stateMutability": "view",
      "type": "function"
    },
    {
      "inputs": [
        {
          "internalType": "uint256",
          "name": "_matchId",
          "type": "uint256"
        },
        {
          "internalType": "address",
          "name": "_participant",
          "type": "address"
        }
      ],
      "name": "getParticipant",
      "outputs": [
        {
          "components": [
            {
              "internalType": "address",
              "name": "trader",
              "type": "address"
            },
            {
              "internalType": "address",
              "name": "smartAccount",
              "type": "address"
            },
            {
              "internalType": "enum TradeClub_IMatchManager.ParticipantRole",
              "name": "role",
              "type": "uint8"
            },
            {
              "internalType": "address",
              "name": "followingMonachad",
              "type": "address"
            },
            {
              "internalType": "uint256",
              "name": "stakedAmount",
              "type": "uint256"
            },
            {
              "internalType": "uint256",
              "name": "fundedAmount",
              "type": "uint256"
            },
            {
              "internalType": "int256",
              "name": "pnl",
              "type": "int256"
            },
            {
              "internalType": "uint256",
              "name": "joinedAt",
              "type": "uint256"
            }
          ],
          "internalType": "struct TradeClub_IMatchManager.Participant",
          "name": "",
          "type": "tuple"
        }
      ],
      "stateMutability": "view",
      "type": "function"
    },
    {
      "inputs": [
        {
          "internalType": "address",
          "name": "_user",
          "type": "address"
        }
      ],
      "name": "getUserMatches",
      "outputs": [
        {
          "internalType": "uint256[]",
          "name": "",
          "type": "uint256[]"
        }
      ],
      "stateMutability": "view",
      "type": "function"
    },
    {
      "inputs": [
        {
          "internalType": "uint256",
          "name": "_matchId",
          "type": "uint256"
        }
      ],
      "name": "joinAsMonachad",
      "outputs": [],
      "stateMutability": "payable",
      "type": "function"
    },
    {
      "inputs": [],
      "name": "matchCounter",
      "outputs": [
        {
          "internalType": "uint256",
          "name": "",
          "type": "uint256"
        }
      ],
      "stateMutability": "view",
      "type": "function"
    },
    {
      "inputs": [
        {
          "internalType": "uint256",
          "name": "",
          "type": "uint256"
        },
        {
          "internalType": "uint256",
          "name": "",
          "type": "uint256"
        }
      ],
      "name": "matchMonachads",
      "outputs": [
        {
          "internalType": "address",
          "name": "",
          "type": "address"
        }
      ],
      "stateMutability": "view",
      "type": "function"
    },
    {
      "inputs": [
        {
          "internalType": "uint256",
          "name": "",
          "type": "uint256"
        }
      ],
      "name": "matches",
      "outputs": [
        {
          "internalType": "uint256",
          "name": "id",
          "type": "uint256"
        },
        {
          "internalType": "address",
          "name": "creator",
          "type": "address"
        },
        {
          "internalType": "uint256",
          "name": "entryMargin",
          "type": "uint256"
        },
        {
          "internalType": "uint256",
          "name": "duration",
          "type": "uint256"
        },
        {
          "internalType": "uint256",
          "name": "startTime",
          "type": "uint256"
        },
        {
          "internalType": "uint256",
          "name": "endTime",
          "type": "uint256"
        },
        {
          "internalType": "uint256",
          "name": "maxMonachads",
          "type": "uint256"
        },
        {
          "internalType": "uint256",
          "name": "maxSupportersPerMonachad",
          "type": "uint256"
        },
        {
          "internalType": "uint256",
          "name": "prizePool",
          "type": "uint256"
        },
        {
          "internalType": "enum TradeClub_IMatchManager.MatchStatus",
          "name": "status",
          "type": "uint8"
        },
        {
          "internalType": "address",
          "name": "winner",
          "type": "address"
        }
      ],
      "stateMutability": "view",
      "type": "function"
    },
    {
      "inputs": [
        {
          "internalType": "uint256",
          "name": "",
          "type": "uint256"
        },
        {
          "internalType": "address",
          "name": "",
          "type": "address"
        },
        {
          "internalType": "uint256",
          "name": "",
          "type": "uint256"
        }
      ],
      "name": "monachadSupporters",
      "outputs": [
        {
          "internalType": "address",
          "name": "",
          "type": "address"
        }
      ],
      "stateMutability": "view",
      "type": "function"
    },
    {
      "inputs": [],
      "name": "owner",
      "outputs": [
        {
          "internalType": "address",
          "name": "",
          "type": "address"
        }
      ],
      "stateMutability": "view",
      "type": "function"
    },
    {
      "inputs": [
        {
          "internalType": "uint256",
          "name": "",
          "type": "uint256"
        },
        {
          "internalType": "address",
          "name": "",
          "type": "address"
        }
      ],
      "name": "participants",
      "outputs": [
        {
          "internalType": "address",
          "name": "trader",
          "type": "address"
        },
        {
          "internalType": "address",
          "name": "smartAccount",
          "type": "address"
        },
        {
          "internalType": "enum TradeClub_IMatchManager.ParticipantRole",
          "name": "role",
          "type": "uint8"
        },
        {
          "internalType": "address",
          "name": "followingMonachad",
          "type": "address"
        },
        {
          "internalType": "uint256",
          "name": "stakedAmount",
          "type": "uint256"
        },
        {
          "internalType": "uint256",
          "name": "fundedAmount",
          "type": "uint256"
        },
        {
          "internalType": "int256",
          "name": "pnl",
          "type": "int256"
        },
        {
          "internalType": "uint256",
          "name": "joinedAt",
          "type": "uint256"
        }
      ],
      "stateMutability": "view",
      "type": "function"
    },
    {
      "inputs": [],
      "name": "pause",
      "outputs": [],
      "stateMutability": "nonpayable",
      "type": "function"
    },
    {
      "inputs": [],
      "name": "paused",
      "outputs": [
        {
          "internalType": "bool",
          "name": "",
          "type": "bool"
        }
      ],
      "stateMutability": "view",
      "type": "function"
    },
    {
      "inputs": [],
      "name": "platformFeePercent",
      "outputs": [
        {
          "internalType": "uint256",
          "name": "",
          "type": "uint256"
        }
      ],
      "stateMutability": "view",
      "type": "function"
    },
    {
      "inputs": [],
      "name": "renounceOwnership",
      "outputs": [],
      "stateMutability": "nonpayable",
      "type": "function"
    },
    {
      "inputs": [
        {
          "internalType": "uint256",
          "name": "_newFeePercent",
          "type": "uint256"
        }
      ],
      "name": "setPlatformFee",
      "outputs": [],
      "stateMutability": "nonpayable",
      "type": "function"
    },
    {
      "inputs": [
        {
          "internalType": "uint256",
          "name": "_matchId",
          "type": "uint256"
        }
      ],
      "name": "settleMatch",
      "outputs": [],
      "stateMutability": "nonpayable",
      "type": "function"
    },
    {
      "inputs": [
        {
          "internalType": "uint256",
          "name": "_matchId",
          "type": "uint256"
        }
      ],
      "name": "startMatch",
      "outputs": [],
      "stateMutability": "nonpayable",
      "type": "function"
    },
    {
      "inputs": [
        {
          "internalType": "address",
          "name": "newOwner",
          "type": "address"
        }
      ],
      "name": "transferOwnership",
      "outputs": [],
      "stateMutability": "nonpayable",
      "type": "function"
    },
    {
      "inputs": [],
      "name": "unpause",
      "outputs": [],
      "stateMutability": "nonpayable",
      "type": "function"
    },
    {
      "inputs": [
        {
          "internalType": "uint256",
          "name": "_matchId",
          "type": "uint256"
        },
        {
          "internalType": "address",
          "name": "_participant",
          "type": "address"
        },
        {
          "internalType": "int256",
          "name": "_pnl",
          "type": "int256"
        }
      ],
      "name": "updatePnL",
      "outputs": [],
      "stateMutability": "nonpayable",
      "type": "function"
    },
    {
      "inputs": [
        {
          "internalType": "address",
          "name": "",
          "type": "address"
        },
        {
          "internalType": "uint256",
          "name": "",
          "type": "uint256"
        }
      ],
      "name": "userMatches",
      "outputs": [
        {
          "internalType": "uint256",
          "name": "",
          "type": "uint256"
        }
      ],
      "stateMutability": "view",
      "type": "function"
    },
    {
      "inputs": [],
      "name": "withdrawFees",
      "outputs": [],
      "stateMutability": "nonpayable",
      "type": "function"
    },
    {
      "stateMutability": "payable",
      "type": "receive"
    }
  ],
  "bytecode": "0x60808060405234610084576001600055331561006e5760018054336001600160a01b03198216811790925560405191906001600160a01b03167f8be0079c531659141344cd1fd0a4f28419497f9722a3daafe3b4186f6b6457e0600080a360fa60035561207c908161008a8239f35b631e4fbdf760e01b815260006004820152602490fd5b600080fdfe608080604052600436101561001d575b50361561001b57600080fd5b005b60003560e01c90816301fd195114611c545750806302e060c614611baf57806312e8e2c314611b4857806335f3ad7a146119f35780633d092b3d146117c65780633f4ba83a14611754578063476343ee146116db5780634768d4ef146116295780634bb1737f146112365780635c975abb146112105780636c64306a146111105780636cb9400214610ca0578063715018a614610c4357806376e2a95a14610bf15780638456cb5914610b8f5780638c639a8514610b715780638da5cb5b14610b48578063984d3c9614610adc5780639b5686e0146107d8578063bf725a8414610684578063cc88ccf114610634578063ccbd649014610580578063d4d9a0f7146104fd578063d80fba79146102c8578063e1f1c4a7146102ab578063ebc7f07e14610244578063f2fde38b146101bb5763fd7fef9c1461015e573861000f565b346101b65760403660031901126101b657610177611c85565b6001600160a01b03166000908152600860205260409020805460243591908210156101b6576020916101a891611d4e565b90546040519160031b1c8152f35b600080fd5b346101b65760203660031901126101b6576101d4611c85565b6101dc611d66565b6001600160a01b0390811690811561022b57600154826001600160601b0360a01b821617600155167f8be0079c531659141344cd1fd0a4f28419497f9722a3daafe3b4186f6b6457e0600080a3005b604051631e4fbdf760e01b815260006004820152602490fd5b346101b65760603660031901126101b65761025d611c6f565b604435906004356000526007602052604060002060018060a01b03809216600052602052604060002080548310156101b65760209261029b91611d4e565b9190546040519260031b1c168152f35b346101b65760003660031901126101b65760206040516127108152f35b6020806003193601126101b657600435906102e1611e7e565b6102e9611e5d565b60008281526004825260409020600101546001600160a01b0391906103119083161515611ea1565b8260005260048152604060002060ff60098201541660048110156104e757610497576103436002820154341015611d92565b8360005260068252604060002054926006820193845411156104625760069291610389600892876000526005855260406000203360005285526040600020541615611ee4565b60008681526005845260408082203380845290865281832080546001600160a01b0319168217815560018101805460ff60a01b19169055346003820155429088015588835286865291206103dd9190611ded565b6103ea33600a8301611ded565b336000528183526103ff866040600020611e28565b0161040b348254611f30565b9055604051348152847f333c3380328bbc8ba39b1ee09466556271a79b09341bda7d877f21aa4267a2cf833393a38360005252604060002054905414610453575b6001600055005b61045c90611f8a565b8061044c565b60405162461bcd60e51b815260048101849052600d60248201526c13585d18da081a5cc8199d5b1b609a1b6044820152606490fd5b60405162461bcd60e51b815260048101839052602260248201527f4d6174636820616c72656164792073746172746564206f7220636f6d706c6574604482015261195960f21b6064820152608490fd5b634e487b7160e01b600052602160045260246000fd5b346101b65760403660031901126101b657600435610519611c6f565b60008281526004602052604090206001015490916001600160a01b03916105439083161515611ea1565b60005260076020526040600020911660005260205261057c6105686040600020611fec565b604051918291602083526020830190611cb5565b0390f35b346101b6576020806003193601126101b6576001600160a01b036105a2611c85565b1660005260088152604060002060405190818382549182815201908192600052846000209060005b868282106106205786866105e082880383611d2c565b604051928392818401908285525180915260408401929160005b82811061060957505050500390f35b8351855286955093810193928101926001016105fa565b8354855290930192600192830192016105ca565b346101b65760203660031901126101b65760043580600052600460205261066c60018060a01b03600160406000200154161515611ea1565b600052600660205261057c6105686040600020611fec565b346101b6576020806003193601126101b65760043590816000526004815260018060a01b036106be81600160406000200154161515611ea1565b826000526004825260016040600020015416330361079557816000526004815260ff6009604060002001541660048110156104e7576107595781600052600681526002604060002054106107155761001b82611f8a565b6064906040519062461bcd60e51b82526004820152601960248201527f4e656564206174206c656173742032204d6f6e616368616473000000000000006044820152fd5b6064906040519062461bcd60e51b82526004820152601560248201527413585d18da08185b1c9958591e481cdd185c9d1959605a1b6044820152fd5b6064906040519062461bcd60e51b825280600483015260248201527f4f6e6c79206d617463682063726561746f722063616e2063616c6c20746869736044820152fd5b346101b65760203660031901126101b6576107f1611e7e565b600435600052600460205261081760018060a01b03600160406000200154161515611ea1565b60043560005260046020526040600020600981015460ff811660048110156104e757600103610aa45760058201544210610a695760029060ff191617600982015560043560005260066020526108706040600020611fec565b90815115610a2c57815115610a165760018060a01b036020830151169160043560005260056020526040600020836000526020526005604060002001549060015b81518110156109125760018060a01b0360208260051b84010151166004356000526005602052604060002081600052602052600560406000200154848113610904575b50506108ff90611dde565b6108b1565b90955092506108ff866108f4565b505050600c810180546001600160a01b0319166001600160a01b0390931692831790556008810154600354808202919081158284049091141715610a005761271061095e920490611f3d565b90600080808085875af1610970611f4a565b50156109bb57600901805460ff19166003179055604051908152600435907f0a2413835f07421c275d3e2feac4328391c22c9ed3db28c40b45b55a0c3a2ba690602090a36001600055005b60405162461bcd60e51b815260206004820152601c60248201527f57696e6e6572207072697a65207472616e73666572206661696c6564000000006044820152606490fd5b634e487b7160e01b600052601160045260246000fd5b634e487b7160e01b600052603260045260246000fd5b60405162461bcd60e51b815260206004820152601560248201527409cde409adedcc2c6d0c2c8e640d2dc40dac2e8c6d605b1b6044820152606490fd5b60405162461bcd60e51b815260206004820152601360248201527213585d18da081b9bdd08195b991959081e595d606a1b6044820152606490fd5b60405162461bcd60e51b815260206004820152601060248201526f4d61746368206e6f742061637469766560801b6044820152606490fd5b346101b65760203660031901126101b657600435806000526004602052610b1460018060a01b03600160406000200154161515611ea1565b60005260046020526002604060002001546103e890818102918183041490151715610a005760209061271060405191048152f35b346101b65760003660031901126101b6576001546040516001600160a01b039091168152602090f35b346101b65760003660031901126101b6576020600354604051908152f35b346101b65760003660031901126101b657610ba8611d66565b610bb0611e5d565b6001805460ff60a01b1916600160a01b1790556040513381527f62e78cea01bee320cd4e420270b5ea74000d11b0c9f74754ebdbfc544b05a25890602090a1005b346101b65760403660031901126101b6576024356004356000526006602052604060002080548210156101b657602091610c2a91611d4e565b905460405160039290921b1c6001600160a01b03168152f35b346101b65760003660031901126101b657610c5c611d66565b600180546001600160a01b031981169091556000906001600160a01b03167f8be0079c531659141344cd1fd0a4f28419497f9722a3daafe3b4186f6b6457e08280a3005b60a03660031901126101b65767ffffffffffffffff6084358181116101b657366023820112156101b65780600401358281116110fa57604051908060051b90610cec6020830184611d2c565b825260208201809360248093820101903682116101b6578301915b8183106110da57505050610d19611e7e565b610d21611e5d565b6004351561109657610e108135101580611088575b15611051576002604435101580611044575b156110085760643515610fcc57815115610f8857610d6a600435341015611d92565b610d75600254611dde565b928360025583600052600460205260406000209084825560018201336001600160601b0360a01b825416179055600435600283015582356003830155604435600683015560643560078301556009820160ff1981541690553460088301558351958611610f7357600160401b8611610f7357600b82015486600b840155808710610f47575b5094600b820160005260206000209560005b828110610f2a5760208787817f4f2d9002be5893e71df165cff4b4db45a812c15d8c0a9e8bf022dba076541aa389610ea38a846000526005885260406000203360005288526040600020336001600160601b0360a01b8254161781556001810160ff60a01b1981541690553460038201556006429101558460005260068852610e99336040600020611ded565b600a339101611ded565b3360005260088652610eb9836040600020611e28565b60405190600435825235868201526044356040820152606435606082015260a0608082015280610eee339560a0830190611cb5565b0390a3604051348152817f333c3380328bbc8ba39b1ee09466556271a79b09341bda7d877f21aa4267a2cf843393a36001600055604051908152f35b81516001600160a01b031681890155602090910190600101610e0c565b600b830160005286602060002091820191015b818110610f675750610dfa565b60008155600101610f5a565b82634e487b7160e01b60005260416004526000fd5b606490601d6040519162461bcd60e51b8352602060048401528201527f4d7573742073706563696679206174206c65617374206f6e65204445580000006044820152fd5b60649060156040519162461bcd60e51b835260206004840152820152744d75737420616c6c6f7720737570706f727465727360581b6044820152fd5b60649060156040519162461bcd60e51b83526020600484015282015274496e76616c6964206d6178206d6f6e61636861647360581b6044820152fd5b50600a6044351115610d48565b60649060106040519162461bcd60e51b8352602060048401528201526f24b73b30b634b210323ab930ba34b7b760811b6044820152fd5b506201518081351115610d36565b606490601d6040519162461bcd60e51b8352602060048401528201527f456e747279206d617267696e206d75737420626520706f7369746976650000006044820152fd5b82356001600160a01b03811681036101b657815260209283019201610d07565b634e487b7160e01b600052604160045260246000fd5b346101b65760603660031901126101b65760043561112c611c6f565b90604435611138611d66565b816000526020906004825260018060a01b0361115f81600160406000200154161515611ea1565b836000526005835280604060002095169485600052835260406000205416156111cb57907f7369b58b22170aaa230468302fd2231bf0fa59ed8175c77a7471734615843cc8918360005260058252604060002085600052825280600560406000200155604051908152a3005b60405162461bcd60e51b815260048101839052601860248201527f5061727469636970616e74206e6f7420696e206d6174636800000000000000006044820152606490fd5b346101b65760003660031901126101b657602060ff60015460a01c166040519015158152f35b60603660031901126101b65760043561124d611c6f565b906001600160a01b03604480358281169392908490036101b65761126f611e7e565b611277611e5d565b8260005260206004815261129682600160406000200154161515611ea1565b836000526004815260406000209260ff60098501541660048110156104e757801590811561161e575b50156115e55760028401546103e890818102918183041490151715610a0057612710900492833411156115955785600052600583526040600020336000528352611310816040600020541615611ee4565b8560005260058352604060002097169687600052825260ff60016040600020015460a01c1660028110156104e75761154357846000526007825260406000208760005282526040600020546007850154111561150057853b156114bd5760086113798434611f3d565b948660005260058452604060002033600052845260406000206001600160601b0360a01b338183541617825560018201600160a01b8b6affffffffffffffffffffff60a81b835416171790558a600283019182541617905585600382015586600482015560064291015586600052600784526040600020896000528452611404336040600020611ded565b33600052818452611419876040600020611e28565b01611425848254611f30565b90556000808080878a5af1611438611f4a565b501561147a575060405194855284015260408301527f4859eaff2578b06769c5f0ae6cc98bef0478a60e36f7eaeee4fd58e1e4c531e760603393a46001600055005b907f536d617274206163636f756e742066756e64696e67206661696c6564000000006064926040519262461bcd60e51b84526004840152601c6024840152820152fd5b907f536d617274206163636f756e74206e6f74206465706c6f7965640000000000006064926040519262461bcd60e51b84526004840152601a6024840152820152fd5b907f4d6f6e616368616420686173206d617820737570706f727465727300000000006064926040519262461bcd60e51b84526004840152601b6024840152820152fd5b907f546172676574206973206e6f742061204d6f6e616368616420696e20746869736084926040519262461bcd60e51b845260048401526026602484015282015265040dac2e8c6d60d31b6064820152fd5b60405162461bcd60e51b8152600481018490526024808201527f4d7573742073656e6420656e74727920666565202b2066756e64696e6720616d81840152631bdd5b9d60e21b6064820152608490fd5b90724d61746368206e6f7420617661696c61626c6560681b6064926040519262461bcd60e51b8452600484015260136024840152820152fd5b6001915014886112bf565b346101b65760203660031901126101b657600435600052600460205261016060406000208054906116d360018060a01b03918260018201541692600282015460038301546004840154600585015490600686015492600787015494600888015496600c60ff60098b01541699015416996040519b8c5260208c015260408b015260608a0152608089015260a088015260c087015260e0860152610100850152610120840190611ca8565b610140820152f35b346101b65760003660031901126101b6576116f4611d66565b60008080804760018060a01b03600154165af161170f611f4a565b501561171757005b60405162461bcd60e51b8152602060048201526015602482015274119959481dda5d1a191c985dd85b0819985a5b1959605a1b6044820152606490fd5b346101b65760003660031901126101b65761176d611d66565b60015460ff8160a01c16156117b45760ff60a01b19166001556040513381527f5db9ee0a495bf2e6ff9c91a7834c1ba4fdd244a5e8aa4e537bd38aeae4b073aa90602090a1005b604051638dfc202b60e01b8152600490fd5b346101b65760203660031901126101b65760043560006101806040516117eb81611d0f565b8281528260208201528260408201528260608201528260808201528260a08201528260c08201528260e0820152826101008201528261012082015260606101408201526060610160820152015280600052600460205261185c60018060a01b03600160406000200154161515611ea1565b600052600460205260406000206040519061187682611d0f565b8054825260018101546001600160a01b0316602083015260028101546040830152600381015460608301526004808201546080840152600582015460a0840152600682015460c0840152600782015460e08401526008820154610100840152600982015460ff16908110156104e7576101208301526118f7600a8201611fec565b610140830152611909600b8201611fec565b610160830152600c60018060a01b03910154166101808201526040518091602082528051602083015260018060a01b0360208201511660408301526040810151606083015260608101516080830152608081015160a083015260a081015160c083015260c081015160e083015260e08101516101008301526101008101516101208301526119a1610120820151610140840190611ca8565b6101408101516119db6119c36101a092836101608701526101c0860190611cb5565b610160840151858203601f1901610180870152611cb5565b610180909201516001600160a01b0316908301520390f35b346101b65760403660031901126101b657600435611a0f611c6f565b60405190611a1c82611cf2565b60008252600060e060209382858201528260408201528260608201528260808201528260a08201528260c08201520152826000526004825260018060a01b0392611a7184600160406000200154161515611ea1565b600052600582528260406000209116600052815260406000209060405191611a9883611cf2565b83815416835260018101549160ff81850193868116855260a01c1694604085019060028710156104e7576101009682528060028501541660608701908152611b276003860154936080890194855260048701549560a08a0196875284600660058a01549960c08d019a8b5201549960e08c019a8b52816040519c51168c525116908a0152516040890190611c9b565b511660608601525160808501525160a08401525160c08301525160e0820152f35b346101b65760203660031901126101b657600435611b64611d66565b6103e88111611b7257600355005b60405162461bcd60e51b81526020600482015260156024820152744665652063616e6e6f74206578636565642031302560581b6044820152606490fd5b346101b65760403660031901126101b657610100611bcb611c6f565b6004356000526005602052604060002060018060a01b038092166000526020526040600020908082541691600181015482600283015416600383015490611c3960048501549360066005870154960154966040519889528116602089015260ff604089019160a01c16611c9b565b6060860152608085015260a084015260c083015260e0820152f35b346101b65760003660031901126101b6576020906002548152f35b602435906001600160a01b03821682036101b657565b600435906001600160a01b03821682036101b657565b9060028210156104e75752565b9060048210156104e75752565b90815180825260208080930193019160005b828110611cd5575050505090565b83516001600160a01b031685529381019392810192600101611cc7565b610100810190811067ffffffffffffffff8211176110fa57604052565b6101a0810190811067ffffffffffffffff8211176110fa57604052565b90601f8019910116810190811067ffffffffffffffff8211176110fa57604052565b8054821015610a165760005260206000200190600090565b6001546001600160a01b03163303611d7a57565b60405163118cdaa760e01b8152336004820152602490fd5b15611d9957565b60405162461bcd60e51b815260206004820152601960248201527f496e73756666696369656e7420656e747279206d617267696e000000000000006044820152606490fd5b6000198114610a005760010190565b8054600160401b8110156110fa57611e0a91600182018155611d4e565b819291549060031b9160018060a01b03809116831b921b1916179055565b8054600160401b8110156110fa57611e4591600182018155611d4e565b819291549060031b91821b91600019901b1916179055565b60ff60015460a01c16611e6c57565b60405163d93c066560e01b8152600490fd5b600260005414611e8f576002600055565b604051633ee5aeb560e01b8152600490fd5b15611ea857565b60405162461bcd60e51b815260206004820152601460248201527313585d18da08191bd95cc81b9bdd08195e1a5cdd60621b6044820152606490fd5b15611eeb57565b60405162461bcd60e51b815260206004820152601960248201527f416c7265616479206a6f696e65642074686973206d61746368000000000000006044820152606490fd5b91908201809211610a0057565b91908203918211610a0057565b3d15611f85573d9067ffffffffffffffff82116110fa5760405191611f79601f8201601f191660200184611d2c565b82523d6000602084013e565b606090565b806000526004602052604060002060098101600160ff198254161790554260048201556005611fbd600383015442611f30565b9101557fc21a199ff4f6a91b067a8a76292ba2e24c5202ddfbc8f5f5a68823666a51e6e96020604051428152a2565b9060405191828154918282526020928383019160005283600020936000905b8282106120235750505061202192500383611d2c565b565b85546001600160a01b03168452600195860195889550938101939091019061200b56fea2646970667358221220b9f4bbc65334cbe10d073422c0a1c7a65bd1890b6faa49dfcde82da5233bc0b064736f6c63430008140033",
  "linkReferences": {},
  "deployedLinkReferences": {}
}