{
  "_format": "hh-sol-artifact-1",
  "contractName": "TradeClub_MatchManager",
  "sourceName": "src/TradeClub_MatchManager.sol",
  "abi": [
    {
      "inputs": [],
      "stateMutability": "nonpayable",
      "type": "constructor"
    },
    {
      "inputs": [],
      "name": "EnforcedPause",
      "type": "error"
    },
    {
      "inputs": [],
      "name": "ExpectedPause",
      "type": "error"
    },
    {
      "inputs": [
        {
          "internalType": "address",
          "name": "owner",
          "type": "address"
        }
      ],
      "name": "OwnableInvalidOwner",
      "type": "error"
    },
    {
      "inputs": [
        {
          "internalType": "address",
          "name": "account",
          "type": "address"
        }
      ],
      "name": "OwnableUnauthorizedAccount",
      "type": "error"
    },
    {
      "inputs": [],
      "name": "ReentrancyGuardReentrantCall",
      "type": "error"
    },
    {
      "anonymous": false,
      "inputs": [
        {
          "indexed": true,
          "internalType": "address",
          "name": "dexAddress",
          "type": "address"
        },
        {
          "indexed": true,
          "internalType": "bytes4",
          "name": "functionSelector",
          "type": "bytes4"
        },
        {
          "indexed": false,
          "internalType": "bool",
          "name": "isAllowed",
          "type": "bool"
        },
        {
          "indexed": false,
          "internalType": "string",
          "name": "description",
          "type": "string"
        }
      ],
      "name": "DEXFunctionAllowanceUpdated",
      "type": "event"
    },
    {
      "anonymous": false,
      "inputs": [
        {
          "indexed": true,
          "internalType": "uint256",
          "name": "matchId",
          "type": "uint256"
        },
        {
          "indexed": true,
          "internalType": "address",
          "name": "monachad",
          "type": "address"
        },
        {
          "indexed": false,
          "internalType": "address",
          "name": "vaultAddress",
          "type": "address"
        }
      ],
      "name": "GaveChadAMatchVault",
      "type": "event"
    },
    {
      "anonymous": false,
      "inputs": [
        {
          "indexed": true,
          "internalType": "uint256",
          "name": "matchId",
          "type": "uint256"
        },
        {
          "indexed": true,
          "internalType": "address",
          "name": "winner",
          "type": "address"
        },
        {
          "indexed": false,
          "internalType": "uint256",
          "name": "prizePool",
          "type": "uint256"
        }
      ],
      "name": "MatchCompleted",
      "type": "event"
    },
    {
      "anonymous": false,
      "inputs": [
        {
          "indexed": true,
          "internalType": "uint256",
          "name": "matchId",
          "type": "uint256"
        },
        {
          "indexed": true,
          "internalType": "address",
          "name": "creator",
          "type": "address"
        },
        {
          "indexed": false,
          "internalType": "uint256",
          "name": "entryMargin",
          "type": "uint256"
        },
        {
          "indexed": false,
          "internalType": "uint256",
          "name": "duration",
          "type": "uint256"
        },
        {
          "indexed": false,
          "internalType": "uint256",
          "name": "maxMonachads",
          "type": "uint256"
        },
        {
          "indexed": false,
          "internalType": "uint256",
          "name": "maxSupportersPerMonachad",
          "type": "uint256"
        },
        {
          "indexed": false,
          "internalType": "address[]",
          "name": "allowedDexes",
          "type": "address[]"
        }
      ],
      "name": "MatchCreated",
      "type": "event"
    },
    {
      "anonymous": false,
      "inputs": [
        {
          "indexed": true,
          "internalType": "uint256",
          "name": "matchId",
          "type": "uint256"
        },
        {
          "indexed": false,
          "internalType": "uint256",
          "name": "startTime",
          "type": "uint256"
        }
      ],
      "name": "MatchStarted",
      "type": "event"
    },
    {
      "anonymous": false,
      "inputs": [
        {
          "indexed": true,
          "internalType": "uint256",
          "name": "matchId",
          "type": "uint256"
        },
        {
          "indexed": true,
          "internalType": "address",
          "name": "monachad",
          "type": "address"
        },
        {
          "indexed": false,
          "internalType": "uint256",
          "name": "marginAmount",
          "type": "uint256"
        },
        {
          "indexed": false,
          "internalType": "uint256",
          "name": "entryFee",
          "type": "uint256"
        }
      ],
      "name": "MonachadJoined",
      "type": "event"
    },
    {
      "anonymous": false,
      "inputs": [
        {
          "indexed": true,
          "internalType": "uint256",
          "name": "matchId",
          "type": "uint256"
        },
        {
          "indexed": false,
          "internalType": "address",
          "name": "monachad",
          "type": "address"
        },
        {
          "indexed": false,
          "internalType": "uint256",
          "name": "amount",
          "type": "uint256"
        }
      ],
      "name": "MonachadWithdrawMargin",
      "type": "event"
    },
    {
      "anonymous": false,
      "inputs": [
        {
          "indexed": true,
          "internalType": "address",
          "name": "previousOwner",
          "type": "address"
        },
        {
          "indexed": true,
          "internalType": "address",
          "name": "newOwner",
          "type": "address"
        }
      ],
      "name": "OwnershipTransferred",
      "type": "event"
    },
    {
      "anonymous": false,
      "inputs": [
        {
          "indexed": false,
          "internalType": "address",
          "name": "account",
          "type": "address"
        }
      ],
      "name": "Paused",
      "type": "event"
    },
    {
      "anonymous": false,
      "inputs": [
        {
          "indexed": true,
          "internalType": "uint256",
          "name": "matchId",
          "type": "uint256"
        },
        {
          "indexed": true,
          "internalType": "address",
          "name": "participant",
          "type": "address"
        },
        {
          "indexed": false,
          "internalType": "int256",
          "name": "pnl",
          "type": "int256"
        }
      ],
      "name": "PnLUpdated",
      "type": "event"
    },
    {
      "anonymous": false,
      "inputs": [
        {
          "indexed": true,
          "internalType": "uint256",
          "name": "matchId",
          "type": "uint256"
        },
        {
          "indexed": true,
          "internalType": "address",
          "name": "supporter",
          "type": "address"
        },
        {
          "indexed": true,
          "internalType": "address",
          "name": "followingMonachad",
          "type": "address"
        },
        {
          "indexed": false,
          "internalType": "address",
          "name": "smartAccount",
          "type": "address"
        },
        {
          "indexed": false,
          "internalType": "uint256",
          "name": "entryFee",
          "type": "uint256"
        },
        {
          "indexed": false,
          "internalType": "uint256",
          "name": "fundedAmount",
          "type": "uint256"
        }
      ],
      "name": "SupporterJoined",
      "type": "event"
    },
    {
      "anonymous": false,
      "inputs": [
        {
          "indexed": false,
          "internalType": "address",
          "name": "account",
          "type": "address"
        }
      ],
      "name": "Unpaused",
      "type": "event"
    },
    {
      "inputs": [],
      "name": "BASIS_POINTS",
      "outputs": [
        {
          "internalType": "uint256",
          "name": "",
          "type": "uint256"
        }
      ],
      "stateMutability": "view",
      "type": "function"
    },
    {
      "inputs": [],
      "name": "ENTRY_FEE_BPS",
      "outputs": [
        {
          "internalType": "uint256",
          "name": "",
          "type": "uint256"
        }
      ],
      "stateMutability": "view",
      "type": "function"
    },
    {
      "inputs": [
        {
          "internalType": "address",
          "name": "",
          "type": "address"
        },
        {
          "internalType": "bytes4",
          "name": "",
          "type": "bytes4"
        }
      ],
      "name": "allowedDEXFunction",
      "outputs": [
        {
          "internalType": "bool",
          "name": "",
          "type": "bool"
        }
      ],
      "stateMutability": "view",
      "type": "function"
    },
    {
      "inputs": [
        {
          "internalType": "uint256",
          "name": "_entryMargin",
          "type": "uint256"
        },
        {
          "internalType": "uint256",
          "name": "_duration",
          "type": "uint256"
        },
        {
          "internalType": "uint256",
          "name": "_maxMonachads",
          "type": "uint256"
        },
        {
          "internalType": "uint256",
          "name": "_maxSupportersPerMonachad",
          "type": "uint256"
        },
        {
          "internalType": "address[]",
          "name": "_allowedDexes",
          "type": "address[]"
        }
      ],
      "name": "createMatch",
      "outputs": [
        {
          "internalType": "uint256",
          "name": "",
          "type": "uint256"
        }
      ],
      "stateMutability": "payable",
      "type": "function"
    },
    {
      "inputs": [
        {
          "internalType": "uint256",
          "name": "_matchId",
          "type": "uint256"
        },
        {
          "internalType": "address",
          "name": "_monachad",
          "type": "address"
        },
        {
          "internalType": "address payable",
          "name": "_smartAccountAddress",
          "type": "address"
        }
      ],
      "name": "followMonachadAndFundAccount",
      "outputs": [],
      "stateMutability": "payable",
      "type": "function"
    },
    {
      "inputs": [
        {
          "internalType": "uint256",
          "name": "_matchId",
          "type": "uint256"
        }
      ],
      "name": "getEntryFee",
      "outputs": [
        {
          "internalType": "uint256",
          "name": "",
          "type": "uint256"
        }
      ],
      "stateMutability": "view",
      "type": "function"
    },
    {
      "inputs": [
        {
          "internalType": "uint256",
          "name": "_matchId",
          "type": "uint256"
        }
      ],
      "name": "getMatch",
      "outputs": [
        {
          "components": [
            {
              "internalType": "uint256",
              "name": "id",
              "type": "uint256"
            },
            {
              "internalType": "address",
              "name": "creator",
              "type": "address"
            },
            {
              "internalType": "uint256",
              "name": "entryMargin",
              "type": "uint256"
            },
            {
              "internalType": "uint256",
              "name": "duration",
              "type": "uint256"
            },
            {
              "internalType": "uint256",
              "name": "startTime",
              "type": "uint256"
            },
            {
              "internalType": "uint256",
              "name": "endTime",
              "type": "uint256"
            },
            {
              "internalType": "uint256",
              "name": "maxMonachads",
              "type": "uint256"
            },
            {
              "internalType": "uint256",
              "name": "maxSupportersPerMonachad",
              "type": "uint256"
            },
            {
              "internalType": "uint256",
              "name": "prizePool",
              "type": "uint256"
            },
            {
              "internalType": "enum TradeClub_IMatchManager.MatchStatus",
              "name": "status",
              "type": "uint8"
            },
            {
              "internalType": "address[]",
              "name": "monachads",
              "type": "address[]"
            },
            {
              "internalType": "address[]",
              "name": "allowedDexes",
              "type": "address[]"
            },
            {
              "internalType": "address",
              "name": "winner",
              "type": "address"
            }
          ],
          "internalType": "struct TradeClub_IMatchManager.Match",
          "name": "",
          "type": "tuple"
        }
      ],
      "stateMutability": "view",
      "type": "function"
    },
    {
      "inputs": [
        {
          "internalType": "uint256",
          "name": "_matchId",
          "type": "uint256"
        }
      ],
      "name": "getMatchMonachads",
      "outputs": [
        {
          "internalType": "address[]",
          "name": "",
          "type": "address[]"
        }
      ],
      "stateMutability": "view",
      "type": "function"
    },
    {
      "inputs": [
        {
          "internalType": "uint256",
          "name": "_matchId",
          "type": "uint256"
        },
        {
          "internalType": "address",
          "name": "_monachad",
          "type": "address"
        }
      ],
      "name": "getMonachadSupporters",
      "outputs": [
        {
          "internalType": "address[]",
          "name": "",
          "type": "address[]"
        }
      ],
      "stateMutability": "view",
      "type": "function"
    },
    {
      "inputs": [
        {
          "internalType": "uint256",
          "name": "_matchId",
          "type": "uint256"
        },
        {
          "internalType": "address",
          "name": "_participant",
          "type": "address"
        }
      ],
      "name": "getParticipant",
      "outputs": [
        {
          "components": [
            {
              "internalType": "address",
              "name": "trader",
              "type": "address"
            },
            {
              "internalType": "address",
              "name": "smartAccount",
              "type": "address"
            },
            {
              "internalType": "enum TradeClub_IMatchManager.ParticipantRole",
              "name": "role",
              "type": "uint8"
            },
            {
              "internalType": "address",
              "name": "followingMonachad",
              "type": "address"
            },
            {
              "internalType": "uint256",
              "name": "marginAmount",
              "type": "uint256"
            },
            {
              "internalType": "uint256",
              "name": "entryFeePaid",
              "type": "uint256"
            },
            {
              "internalType": "uint256",
              "name": "fundedAmount",
              "type": "uint256"
            },
            {
              "internalType": "int256",
              "name": "pnl",
              "type": "int256"
            },
            {
              "internalType": "uint256",
              "name": "joinedAt",
              "type": "uint256"
            }
          ],
          "internalType": "struct TradeClub_IMatchManager.Participant",
          "name": "",
          "type": "tuple"
        }
      ],
      "stateMutability": "view",
      "type": "function"
    },
    {
      "inputs": [
        {
          "internalType": "address",
          "name": "_user",
          "type": "address"
        }
      ],
      "name": "getUserMatches",
      "outputs": [
        {
          "internalType": "uint256[]",
          "name": "",
          "type": "uint256[]"
        }
      ],
      "stateMutability": "view",
      "type": "function"
    },
    {
      "inputs": [
        {
          "internalType": "uint256",
          "name": "_matchId",
          "type": "uint256"
        }
      ],
      "name": "joinAsMonachad",
      "outputs": [],
      "stateMutability": "payable",
      "type": "function"
    },
    {
      "inputs": [],
      "name": "matchCounter",
      "outputs": [
        {
          "internalType": "uint256",
          "name": "",
          "type": "uint256"
        }
      ],
      "stateMutability": "view",
      "type": "function"
    },
    {
      "inputs": [
        {
          "internalType": "uint256",
          "name": "",
          "type": "uint256"
        },
        {
          "internalType": "uint256",
          "name": "",
          "type": "uint256"
        }
      ],
      "name": "matchMonachads",
      "outputs": [
        {
          "internalType": "address",
          "name": "",
          "type": "address"
        }
      ],
      "stateMutability": "view",
      "type": "function"
    },
    {
      "inputs": [
        {
          "internalType": "uint256",
          "name": "",
          "type": "uint256"
        }
      ],
      "name": "matches",
      "outputs": [
        {
          "internalType": "uint256",
          "name": "id",
          "type": "uint256"
        },
        {
          "internalType": "address",
          "name": "creator",
          "type": "address"
        },
        {
          "internalType": "uint256",
          "name": "entryMargin",
          "type": "uint256"
        },
        {
          "internalType": "uint256",
          "name": "duration",
          "type": "uint256"
        },
        {
          "internalType": "uint256",
          "name": "startTime",
          "type": "uint256"
        },
        {
          "internalType": "uint256",
          "name": "endTime",
          "type": "uint256"
        },
        {
          "internalType": "uint256",
          "name": "maxMonachads",
          "type": "uint256"
        },
        {
          "internalType": "uint256",
          "name": "maxSupportersPerMonachad",
          "type": "uint256"
        },
        {
          "internalType": "uint256",
          "name": "prizePool",
          "type": "uint256"
        },
        {
          "internalType": "enum TradeClub_IMatchManager.MatchStatus",
          "name": "status",
          "type": "uint8"
        },
        {
          "internalType": "address",
          "name": "winner",
          "type": "address"
        }
      ],
      "stateMutability": "view",
      "type": "function"
    },
    {
      "inputs": [
        {
          "internalType": "uint256",
          "name": "_matchId",
          "type": "uint256"
        },
        {
          "internalType": "address",
          "name": "_target",
          "type": "address"
        },
        {
          "internalType": "bytes",
          "name": "_calldata",
          "type": "bytes"
        },
        {
          "internalType": "uint256",
          "name": "nativeAmount",
          "type": "uint256"
        }
      ],
      "name": "monachadExecuteTrade",
      "outputs": [],
      "stateMutability": "nonpayable",
      "type": "function"
    },
    {
      "inputs": [
        {
          "internalType": "uint256",
          "name": "",
          "type": "uint256"
        },
        {
          "internalType": "address",
          "name": "",
          "type": "address"
        }
      ],
      "name": "monachadMatchVaults",
      "outputs": [
        {
          "internalType": "address",
          "name": "",
          "type": "address"
        }
      ],
      "stateMutability": "view",
      "type": "function"
    },
    {
      "inputs": [
        {
          "internalType": "uint256",
          "name": "",
          "type": "uint256"
        },
        {
          "internalType": "address",
          "name": "",
          "type": "address"
        },
        {
          "internalType": "uint256",
          "name": "",
          "type": "uint256"
        }
      ],
      "name": "monachadSupporters",
      "outputs": [
        {
          "internalType": "address",
          "name": "",
          "type": "address"
        }
      ],
      "stateMutability": "view",
      "type": "function"
    },
    {
      "inputs": [
        {
          "internalType": "uint256",
          "name": "_matchId",
          "type": "uint256"
        },
        {
          "internalType": "uint256",
          "name": "_amount",
          "type": "uint256"
        }
      ],
      "name": "monachadWithdrawMargin",
      "outputs": [],
      "stateMutability": "nonpayable",
      "type": "function"
    },
    {
      "inputs": [],
      "name": "owner",
      "outputs": [
        {
          "internalType": "address",
          "name": "",
          "type": "address"
        }
      ],
      "stateMutability": "view",
      "type": "function"
    },
    {
      "inputs": [
        {
          "internalType": "uint256",
          "name": "",
          "type": "uint256"
        },
        {
          "internalType": "address",
          "name": "",
          "type": "address"
        }
      ],
      "name": "participants",
      "outputs": [
        {
          "internalType": "address",
          "name": "trader",
          "type": "address"
        },
        {
          "internalType": "address",
          "name": "smartAccount",
          "type": "address"
        },
        {
          "internalType": "enum TradeClub_IMatchManager.ParticipantRole",
          "name": "role",
          "type": "uint8"
        },
        {
          "internalType": "address",
          "name": "followingMonachad",
          "type": "address"
        },
        {
          "internalType": "uint256",
          "name": "marginAmount",
          "type": "uint256"
        },
        {
          "internalType": "uint256",
          "name": "entryFeePaid",
          "type": "uint256"
        },
        {
          "internalType": "uint256",
          "name": "fundedAmount",
          "type": "uint256"
        },
        {
          "internalType": "int256",
          "name": "pnl",
          "type": "int256"
        },
        {
          "internalType": "uint256",
          "name": "joinedAt",
          "type": "uint256"
        }
      ],
      "stateMutability": "view",
      "type": "function"
    },
    {
      "inputs": [],
      "name": "pause",
      "outputs": [],
      "stateMutability": "nonpayable",
      "type": "function"
    },
    {
      "inputs": [],
      "name": "paused",
      "outputs": [
        {
          "internalType": "bool",
          "name": "",
          "type": "bool"
        }
      ],
      "stateMutability": "view",
      "type": "function"
    },
    {
      "inputs": [],
      "name": "platformFeePercent",
      "outputs": [
        {
          "internalType": "uint256",
          "name": "",
          "type": "uint256"
        }
      ],
      "stateMutability": "view",
      "type": "function"
    },
    {
      "inputs": [],
      "name": "recoverCoins",
      "outputs": [],
      "stateMutability": "nonpayable",
      "type": "function"
    },
    {
      "inputs": [],
      "name": "renounceOwnership",
      "outputs": [],
      "stateMutability": "nonpayable",
      "type": "function"
    },
    {
      "inputs": [
        {
          "internalType": "address",
          "name": "_dexAddress",
          "type": "address"
        },
        {
          "internalType": "bytes4",
          "name": "_functionSelector",
          "type": "bytes4"
        },
        {
          "internalType": "bool",
          "name": "_isAllowed",
          "type": "bool"
        },
        {
          "internalType": "string",
          "name": "_description",
          "type": "string"
        }
      ],
      "name": "setAllowedDEXFunction",
      "outputs": [],
      "stateMutability": "nonpayable",
      "type": "function"
    },
    {
      "inputs": [
        {
          "internalType": "uint256",
          "name": "_newFeePercent",
          "type": "uint256"
        }
      ],
      "name": "setPlatformFee",
      "outputs": [],
      "stateMutability": "nonpayable",
      "type": "function"
    },
    {
      "inputs": [
        {
          "internalType": "uint256",
          "name": "_matchId",
          "type": "uint256"
        }
      ],
      "name": "settleMatch",
      "outputs": [],
      "stateMutability": "nonpayable",
      "type": "function"
    },
    {
      "inputs": [
        {
          "internalType": "uint256",
          "name": "_matchId",
          "type": "uint256"
        }
      ],
      "name": "startMatch",
      "outputs": [],
      "stateMutability": "nonpayable",
      "type": "function"
    },
    {
      "inputs": [
        {
          "internalType": "address",
          "name": "newOwner",
          "type": "address"
        }
      ],
      "name": "transferOwnership",
      "outputs": [],
      "stateMutability": "nonpayable",
      "type": "function"
    },
    {
      "inputs": [],
      "name": "unpause",
      "outputs": [],
      "stateMutability": "nonpayable",
      "type": "function"
    },
    {
      "inputs": [
        {
          "internalType": "uint256",
          "name": "_matchId",
          "type": "uint256"
        },
        {
          "internalType": "address",
          "name": "_participant",
          "type": "address"
        },
        {
          "internalType": "int256",
          "name": "_pnl",
          "type": "int256"
        }
      ],
      "name": "updatePnL",
      "outputs": [],
      "stateMutability": "nonpayable",
      "type": "function"
    },
    {
      "inputs": [
        {
          "internalType": "address",
          "name": "",
          "type": "address"
        },
        {
          "internalType": "uint256",
          "name": "",
          "type": "uint256"
        }
      ],
      "name": "userMatches",
      "outputs": [
        {
          "internalType": "uint256",
          "name": "",
          "type": "uint256"
        }
      ],
      "stateMutability": "view",
      "type": "function"
    },
    {
      "inputs": [],
      "name": "version",
      "outputs": [
        {
          "internalType": "string",
          "name": "",
          "type": "string"
        }
      ],
      "stateMutability": "pure",
      "type": "function"
    },
    {
      "inputs": [],
      "name": "withdrawFees",
      "outputs": [],
      "stateMutability": "nonpayable",
      "type": "function"
    },
    {
      "stateMutability": "payable",
      "type": "receive"
    }
  ],
  "bytecode": "0x60808060405234610084576001600055331561006e5760018054336001600160a01b03198216811790925560405191906001600160a01b03167f8be0079c531659141344cd1fd0a4f28419497f9722a3daafe3b4186f6b6457e0600080a360fa6003556134e6908161008a8239f35b631e4fbdf760e01b815260006004820152602490fd5b600080fdfe60808060405260043610156200001f575b5036156200001d57600080fd5b005b600090813560e01c90816301fd1951146200284c5750806302e060c614620027995780630981c256146200256357806312e8e2c314620024f557806324d459af14620024765780632bec11f214620020fb57806335f3ad7a1462001f4c5780633d092b3d1462001cfa5780633f4ba83a1462001c82578063476343ee1462001c025780634768d4ef1462001b4d5780634bb1737f146200171757806354fd4d5014620016705780635c975abb14620016485780636c64306a14620015435780636cb94002146200102a578063715018a61462000fc857806376e2a95a1462000f775780638456cb591462000f0e5780638c639a851462000eee5780638da5cb5b1462000ec35780639089ad0e1462000ea4578063984d3c961462000e215780639909f65e1462000ccf5780639b5686e014620009bb578063a1a6e59e146200095b578063b877b663146200090f578063bf725a8414620007a0578063cc88ccf1146200074d578063ccbd64901462000695578063d4d9a0f71462000610578063d80fba791462000357578063e1f1c4a71462000338578063ebc7f07e14620002c9578063f2fde38b14620002375763fd7fef9c03620000105734620002345760403660031901126200023457620001f562002881565b6001600160a01b031681526008602052604081208054602435929083101562000234576020620002268484620029c0565b90546040519160031b1c8152f35b80fd5b50346200023457602036600319011262000234576200025562002881565b6200025f620029f1565b6001600160a01b03908116908115620002b057600154826001600160601b0360a01b821617600155167f8be0079c531659141344cd1fd0a4f28419497f9722a3daafe3b4186f6b6457e0600080a380f35b604051631e4fbdf760e01b815260048101849052602490fd5b5034620002345760603660031901126200023457620002e76200286a565b60443591600435815260076020526040812060018060a01b0380931660005260205260406000209081548410156200023457506020926200032891620029c0565b9190546040519260031b1c168152f35b5034620002345780600319360112620002345760206040516127108152f35b506020806003193601126200060c57600435906200037462002b87565b6200037e62002b65565b8183526004815260408320600101546001600160a01b039190620003a6908316151562002bab565b828452600481526040842060ff6009820154166004811015620005f857620005a8576002810154906103e8808302908382041483151715620005945761271090049062000401620003f8838562002a1e565b34101562002a2c565b6200041b62000411833462002a79565b9384101562002a87565b858752600684526040872054946006820195865411156200055f5791600860069594926200046662000532958a8c526005885260408c20336000528852604060002054161562002bef565b888a526005865260408a203360005286526040600020336001600160601b0360a01b8254161781556001810160ff60a01b198154169055846003820155836004820155600742910155888a52868652620004c43360408c2062002aef565b620004d333600a830162002aef565b338a52818652620004e88960408c2062002b2d565b01620004f682825462002a1e565b90556040519082825284820152867f40735a7c6861966f78b8d1ef3279c7ed7b651318280cc66fbbbbe5d687f6ea9160403393a3338662002d62565b508385525260408320549054146200054d575b506001815580f35b620005589062002c7f565b3862000545565b60405162461bcd60e51b815260048101869052600d60248201526c13585d18da081a5cc8199d5b1b609a1b6044820152606490fd5b634e487b7160e01b87526011600452602487fd5b60405162461bcd60e51b815260048101839052602260248201527f4d6174636820616c72656164792073746172746564206f7220636f6d706c6574604482015261195960f21b6064820152608490fd5b634e487b7160e01b86526021600452602486fd5b5080fd5b50346200023457604036600319011262000234576004356040620006336200286a565b92828152600460205260018060a01b039262000659846001858520015416151562002bab565b81526007602052209116600052602052620006916200067c604060002062002ce3565b60405191829160208352602083019062002911565b0390f35b503462000234576020806003193601126200060c576001600160a01b03620006bc62002881565b168252600881526040822060405192838383549182815201908193835284832090835b818110620007385750505084620006f89103856200299e565b60405193838594850191818652518092526040850193925b8281106200072057505050500390f35b83518552869550938101939281019260010162000710565b825484529286019260019283019201620006df565b50346200023457602036600319011262000234576200067c6040620006919260043580825260046020526200079260018060a01b036001858520015416151562002bab565b815260066020522062002ce3565b503462000234576020806003193601126200060c57600435908183526004815260018060a01b03620007dd81600160408720015416151562002bab565b828452600482526001604085200154163303620008cc578183526004815260ff6009604085200154166004811015620008b8576200087c57818352600681526002604084205410620008385750620008359062002c7f565b80f35b6064906040519062461bcd60e51b82526004820152601960248201527f4e656564206174206c656173742032204d6f6e616368616473000000000000006044820152fd5b6064906040519062461bcd60e51b82526004820152601560248201527413585d18da08185b1c9958591e481cdd185c9d1959605a1b6044820152fd5b634e487b7160e01b84526021600452602484fd5b6064906040519062461bcd60e51b825280600483015260248201527f4f6e6c79206d617463682063726561746f722063616e2063616c6c20746869736044820152fd5b50346200023457604036600319011262000234576020906040620009326200286a565b916004358152600a84522060018060a01b03809216600052825260406000205416604051908152f35b503462000234576040366003190112620002345760ff60406020926200098062002881565b6200098a620029d9565b6001600160a01b039091168252600985528282206001600160e01b0319909116825284522054604051911615158152f35b5034620002345760203660031901126200023457620009d962002b87565b600480358252602052604081206001015462000a00906001600160a01b0316151562002bab565b6004358152600460205260408120600981015460ff81166004811015620008b85760010362000c97576005820154421062000c5c5760ff19166002176009820155600435825260066020526040822062000a5a9062002ce3565b9182511562000c1f5782511562000c095760018060a01b036020840151166004358252600560205260408220816000526020526006604060002001549060015b855181101562000aff5760018060a01b0360208260051b880101511660043585526005602052604085208160005260205260066040600020015484811362000af0575b505062000aea9062002adf565b62000a9a565b9350915062000aea3862000add565b600c850180546001600160a01b0384166001600160a01b03199091168117909155600886015460035486929188918082029190818304148115171562000bf35761271062000b4f92049062002a79565b908380808085875af162000b6262002c3c565b501562000bae57600901805460ff19166003179055604051908152600435907f0a2413835f07421c275d3e2feac4328391c22c9ed3db28c40b45b55a0c3a2ba690602090a36001815580f35b60405162461bcd60e51b815260206004820152601c60248201527f57696e6e6572207072697a65207472616e73666572206661696c6564000000006044820152606490fd5b634e487b7160e01b600052601160045260246000fd5b634e487b7160e01b600052603260045260246000fd5b60405162461bcd60e51b815260206004820152601560248201527409cde409adedcc2c6d0c2c8e640d2dc40dac2e8c6d605b1b6044820152606490fd5b60405162461bcd60e51b815260206004820152601360248201527213585d18da081b9bdd08195b991959081e595d606a1b6044820152606490fd5b60405162461bcd60e51b815260206004820152601060248201526f4d61746368206e6f742061637469766560801b6044820152606490fd5b503462000234576080366003190112620002345762000ced62002881565b62000cf7620029d9565b9060443580151580910362000e1d576064356001600160401b03811162000e195762000d28903690600401620028d3565b91909262000d35620029f1565b60018060a01b03169283865260209260098452604087209563ffffffff60e01b169586885284528260ff60408920541615151462000dd4577ff7e644d3fb6537d78d6bcab49f6f53a5661e2b5b66d12d7d079b5e86127c23e293929162000dce918689526009855260408920888a5285526040892060ff1981541660ff8616179055604080519586958652850152604084019162002d41565b0390a380f35b60405162461bcd60e51b815260048101859052601b60248201527f736574416c6c6f77656444455846756e6374696f6e206e6f2d6f7000000000006044820152606490fd5b8480fd5b8380fd5b5034620002345760203660031901126200023457600435808252600460205262000e5c60018060a01b03600160408520015416151562002bab565b815260046020526002604082200154906103e89182810292818404149015171562000e905760208261271060405191048152f35b634e487b7160e01b81526011600452602490fd5b5034620002345780600319360112620002345760206040516103e88152f35b503462000234578060031936011262000234576001546040516001600160a01b039091168152602090f35b503462000234578060031936011262000234576020600354604051908152f35b5034620002345780600319360112620002345762000f2b620029f1565b62000f3562002b65565b6001805460ff60a01b1916600160a01b1790556040513381527f62e78cea01bee320cd4e420270b5ea74000d11b0c9f74754ebdbfc544b05a25890602090a180f35b5034620002345762000f8936620028bc565b919081526006602052604081209081548310156200023457602062000faf8484620029c0565b905460405160039290921b1c6001600160a01b03168152f35b5034620002345780600319360112620002345762000fe5620029f1565b600180546001600160a01b031981169091556000906001600160a01b03167f8be0079c531659141344cd1fd0a4f28419497f9722a3daafe3b4186f6b6457e08280a380f35b5060a036600319011262000234576084356001600160401b0381116200060c57366023820112156200060c578060040135916001600160401b0383116200152f57604051918360051b936200108360208601856200299e565b83526020830190602482958201019036821162000e1d57602401915b8183106200150857505050620010b462002b87565b620010be62002b65565b60043515620014c357610e10602435101580620014b3575b156200147b5760026044351015806200146d575b15620014305760643515620013f357815115620013ae576103e88060043502906004358204036200139a576200112b620003f8612710830460043562002a1e565b6200113b61271082043462002a79565b906200114c60043583101562002a87565b6200115960025462002adf565b938460025584845260046020526040842085815560018101336001600160601b0360a01b82541617905560043560028201556024356003820155604435600682015560643560078201556009810160ff198154169055612710830460088201558151966001600160401b0388116200138657600160401b88116200138657600b82015488600b84015580891062001358575b5096600b820186526020862097865b8281106200133a5760208960018a8a6127108b8b6200128c8c88875260058a5260408720336000528a526040600020336001600160601b0360a01b82541617815588810160ff60a01b19815416905586600382015585850460048201556007429101556200126a86338b62002d62565b5088875260068a5262001281336040892062002aef565b600a33910162002aef565b33855260088852620012a2876040872062002b2d565b867f4f2d9002be5893e71df165cff4b4db45a812c15d8c0a9e8bf022dba076541aa360405160043581526024358b8201526044356040820152606435606082015260a0608082015280620012fc339560a083019062002911565b0390a36040519283520485820152837f40735a7c6861966f78b8d1ef3279c7ed7b651318280cc66fbbbbe5d687f6ea9160403393a355604051908152f35b81516001600160a01b0316818b0155602090910190600101620011fa565b600b8301875260208720908982015b818301811062001379575050620011eb565b6000815560010162001367565b634e487b7160e01b86526041600452602486fd5b634e487b7160e01b82526011600452602482fd5b60405162461bcd60e51b815260206004820152601d60248201527f4d7573742073706563696679206174206c65617374206f6e65204445580000006044820152606490fd5b60405162461bcd60e51b81526020600482015260156024820152744d75737420616c6c6f7720737570706f727465727360581b6044820152606490fd5b60405162461bcd60e51b8152602060048201526015602482015274496e76616c6964206d6178206d6f6e61636861647360581b6044820152606490fd5b50600a6044351115620010ea565b60405162461bcd60e51b815260206004820152601060248201526f24b73b30b634b210323ab930ba34b7b760811b6044820152606490fd5b50620151806024351115620010d6565b60405162461bcd60e51b815260206004820152601d60248201527f456e747279206d617267696e206d75737420626520706f7369746976650000006044820152606490fd5b82356001600160a01b03811681036200152a578152602092830192016200109f565b600080fd5b634e487b7160e01b81526041600452602490fd5b5034620002345760603660031901126200023457600435620015646200286a565b9060443562001572620029f1565b8184526020906004825260018060a01b036200159981600160408920015416151562002bab565b83865260058352806040872095169485600052835260406000205416156200160357907f7369b58b22170aaa230468302fd2231bf0fa59ed8175c77a7471734615843cc891838652600582526040862085600052825280600660406000200155604051908152a380f35b60405162461bcd60e51b815260048101839052601860248201527f5061727469636970616e74206e6f7420696e206d6174636800000000000000006044820152606490fd5b50346200023457806003193601126200023457602060ff60015460a01c166040519015158152f35b50346200023457806003193601126200023457604051604081018181106001600160401b03821117620017015760405260058152602091640312e302e360dc1b838301526040519283918183528351918281850152815b838110620016e957505060408094508284010152601f80199101168101030190f35b808601820151878201604001528694508101620016c7565b634e487b7160e01b600052604160045260246000fd5b5060603660031901126200023457600435620017326200286a565b906001600160a01b036044803582811693929084900362001b49576200175762002b87565b6200176162002b65565b8286526020600481526200178082600160408a20015416151562002bab565b83875260048152604087209260ff600985015416600481101562001a8c57801590811562001b3d575b501562001b045760028401546103e89081810291818304149015171562001af0576127109004928334111562001aa0578589526005835260408920336000528352620017fd81604060002054161562002bef565b858952600583526040892097169687600052825260ff60016040600020015460a01c16600281101562001a8c5762001a3a57848852600782526040882087600052825260406000205460078501541115620019f757853b15620019b457600862001868843462002a79565b94868a526005845260408a2033600052845260406000206001600160601b0360a01b338183541617825560018201600160a01b8b6affffffffffffffffffffff60a81b835416171790558a60028301918254161790558a6003820155856004820155866005820155600742910155868a526007845260408a20896000528452620018f733604060002062002aef565b338a528184526200190c8760408c2062002b2d565b016200191a84825462002a1e565b905587808080878a5af16200192e62002c3c565b501562001971575060405194855284015260408301527f4859eaff2578b06769c5f0ae6cc98bef0478a60e36f7eaeee4fd58e1e4c531e760603393a46001815580f35b907f536d617274206163636f756e742066756e64696e67206661696c6564000000006064926040519262461bcd60e51b84526004840152601c6024840152820152fd5b907f536d617274206163636f756e74206e6f74206465706c6f7965640000000000006064926040519262461bcd60e51b84526004840152601a6024840152820152fd5b907f4d6f6e616368616420686173206d617820737570706f727465727300000000006064926040519262461bcd60e51b84526004840152601b6024840152820152fd5b907f546172676574206973206e6f742061204d6f6e616368616420696e20746869736084926040519262461bcd60e51b845260048401526026602484015282015265040dac2e8c6d60d31b6064820152fd5b634e487b7160e01b89526021600452602489fd5b60405162461bcd60e51b8152600481018490526024808201527f4d7573742073656e6420656e74727920666565202b2066756e64696e6720616d81840152631bdd5b9d60e21b6064820152608490fd5b634e487b7160e01b89526011600452602489fd5b90724d61746368206e6f7420617661696c61626c6560681b6064926040519262461bcd60e51b8452600484015260136024840152820152fd5b600191501438620017a9565b8580fd5b5034620002345760203660031901126200023457604061016091600435815260046020522080549062001bfa60018060a01b03918260018201541692600282015460038301546004840154600585015490600686015492600787015494600888015496600c60ff60098b01541699015416996040519b8c5260208c015260408b015260608a0152608089015260a088015260c087015260e086015261010085015261012084019062002903565b610140820152f35b5034620002345780600319360112620002345762001c1f620029f1565b808080804760018060a01b03600154165af162001c3b62002c3c565b501562001c455780f35b60405162461bcd60e51b8152602060048201526015602482015274119959481dda5d1a191c985dd85b0819985a5b1959605a1b6044820152606490fd5b5034620002345780600319360112620002345762001c9f620029f1565b60015460ff8160a01c161562001ce85760ff60a01b19166001556040513381527f5db9ee0a495bf2e6ff9c91a7834c1ba4fdd244a5e8aa4e537bd38aeae4b073aa90602090a180f35b604051638dfc202b60e01b8152600490fd5b50346200023457602036600319011262000234576004358161018060405162001d238162002981565b8281528260208201528260408201528260608201528260808201528260a08201528260c08201528260e08201528261010082015282610120820152606061014082015260606101608201520152808252600460205262001d9460018060a01b03600160408520015416151562002bab565b81526004602052604081206040519162001dae8362002981565b8154835260018201546001600160a01b0316602084015260028201546040840152600382015460608401526004808301546080850152600583015460a0850152600683015460c0850152600783015460e08501526008830154610100850152600983015460ff16919082101562001f38575061012083015262001e34600a820162002ce3565b61014083015262001e48600b820162002ce3565b610160830152600c60018060a01b03910154166101808201526040518091602082528051602083015260018060a01b0360208201511660408301526040810151606083015260608101516080830152608081015160a083015260a081015160c083015260c081015160e083015260e081015161010083015261010081015161012083015262001ee261012082015161014084019062002903565b61014081015162001f2062001f076101a092836101608701526101c086019062002911565b610160840151858203601f190161018087015262002911565b610180909201516001600160a01b0316908301520390f35b634e487b7160e01b81526021600452602490fd5b503462000234576040366003190112620002345760043562001f6d6200286a565b908261010060405162001f808162002964565b8281528260208201528260408201528260608201528260808201528260a08201528260c08201528260e08201520152808352600460205262001fd360018060a01b03600160408620015416151562002bab565b82526005602052604082209060018060a01b031660005260205260406000209060405190620020028262002964565b82546001600160a01b0390811683526001840154908116602084015260a01c60ff1690600282101562001f38575061012092600791604084015260018060a01b03600282015416606084015260038101546080840152600481015460a0840152600581015460c0840152600681015460e084015201546101008201526101006040519160018060a01b03815116835260018060a01b036020820151166020840152620020b76040820151604085019062002898565b60018060a01b0360608201511660608401526080810151608084015260a081015160a084015260c081015160c084015260e081015160e08401520151610100820152f35b5034620002345760803660031901126200023457600435906200211d6200286a565b9160449081356001600160401b03811162000e1d5762002142903690600401620028d3565b948285526020906004825260018060a01b03906200216b82600160408a20015416151562002bab565b8487526004835260ff600960408920015416600481101562002396576001036200243c578116938415620023ec5760048810620023aa57808752600583526040872033600052835260ff60016040600020015460a01c16600281101562002396576200234357876004116200233f5784875260098352604080882085356001600160e01b0319168952845287205460ff1615620022ec578652600a825260408620336000528252604060002054169081156200229857508495813b1562001b49578580946200225f966040519788968795869463d0f2c37160e01b8652600486015260606024860152606485019162002d41565b906064359083015203925af180156200228d576200227a5750f35b620022859062002950565b620002345780f35b6040513d84823e3d90fd5b6084907f6578656375746554726164653a204e6f204d617463685661756c7420666f7220866040519262461bcd60e51b845260048401526028602484015282015267135bdb9858da185960c21b6064820152fd5b60405162461bcd60e51b815260048101849052602660248201527f6578656375746554726164653a204445582066756e6374696f6e206e6f74206181880152651b1b1bddd95960d21b6064820152608490fd5b8680fd5b60405162461bcd60e51b815260048101849052602660248201527f6578656375746554726164653a2043616c6c6572206973206e6f742061204d6f81880152651b9858da185960d21b6064820152608490fd5b634e487b7160e01b88526021600452602488fd5b6064837f6578656375746554726164653a2043616c6c6461746120746f6f2073686f7274886040519262461bcd60e51b84528060048501526024840152820152fd5b60405162461bcd60e51b8152600481018490526024808201527f6578656375746554726164653a20496e76616c6964207461726765742061646481880152637265737360e01b6064820152608490fd5b60405162461bcd60e51b81526004810184905260136024820152724d61746368206973206e6f742061637469766560681b81880152606490fd5b5034620002345780600319360112620002345762002493620029f1565b808080804760018060a01b03600154165af1620024af62002c3c565b5015620024b95780f35b60405162461bcd60e51b815260206004820152601460248201527310dbda5b881c9958dbdd995c9e4819985a5b195960621b6044820152606490fd5b503462000234576020366003190112620002345760043562002516620029f1565b6103e88111620025265760035580f35b60405162461bcd60e51b81526020600482015260156024820152744665652063616e6e6f74206578636565642031302560581b6044820152606490fd5b503462000234576200257536620028bc565b91906200258162002b87565b8082526004602090815260408320600101546001600160a01b039190620025ac908316151562002bab565b849280855260058252604085203386528252604085208381541615620027545760ff600182015460a01c16600281101562002740576200270a5760030180548088116200269f5786971562002696575b85620026089162002a79565b9055807fe3a92a47f1b206d4dbf2ffc65fbdd06c8732522eacd59fb187e9a0d492767a18604080513381528786820152a28452600a8152604084209033855252604083205416803b15620026925760248392604051948593849263033a9d4d60e21b845260048401525af180156200228d576200268757506001815580f35b620005589062002950565b5050fd5b945084620025fc565b60405162461bcd60e51b815260048101859052603760248201527f6d6f6e616368616457697468647261774d617267696e3a20496e73756666696360448201527f69656e74206d617267696e20746f2077697468647261770000000000000000006064820152608490fd5b60405162461bcd60e51b815260048101849052600e60248201526d139bdd081848135bdb9858da185960921b6044820152606490fd5b634e487b7160e01b87526021600452602487fd5b60405162461bcd60e51b815260048101849052601f60248201527f4e6f742061207061727469636970616e7420696e2074686973206d61746368006044820152606490fd5b5034620002345760403660031901126200023457610120906040620027bd6200286a565b916004358152600560205281812060018060a01b0380941682526020522090808254169160018101548260028301541660038301546004840154916200282b6005860154946007600688015497015497604051998a52811660208a015260ff60408a019160a01c1662002898565b6060870152608086015260a085015260c084015260e0830152610100820152f35b9050346200060c57816003193601126200060c576020906002548152f35b602435906001600160a01b03821682036200152a57565b600435906001600160a01b03821682036200152a57565b906002821015620028a65752565b634e487b7160e01b600052602160045260246000fd5b60409060031901126200152a576004359060243590565b9181601f840112156200152a578235916001600160401b0383116200152a57602083818601950101116200152a57565b906004821015620028a65752565b90815180825260208080930193019160005b82811062002932575050505090565b83516001600160a01b03168552938101939281019260010162002923565b6001600160401b0381116200170157604052565b61012081019081106001600160401b038211176200170157604052565b6101a081019081106001600160401b038211176200170157604052565b90601f801991011681019081106001600160401b038211176200170157604052565b805482101562000c095760005260206000200190600090565b602435906001600160e01b0319821682036200152a57565b6001546001600160a01b0316330362002a0657565b60405163118cdaa760e01b8152336004820152602490fd5b9190820180921162000bf357565b1562002a3457565b60405162461bcd60e51b815260206004820152601b60248201527f4d617267696e202b20656e7472792066656520726571756972656400000000006044820152606490fd5b9190820391821162000bf357565b1562002a8f57565b60405162461bcd60e51b815260206004820152602260248201527f496e73756666696369656e7420656e747279206d617267696e2070726f766964604482015261195960f21b6064820152608490fd5b600019811462000bf35760010190565b8054600160401b811015620017015762002b0f91600182018155620029c0565b819291549060031b9160018060a01b03809116831b921b1916179055565b8054600160401b811015620017015762002b4d91600182018155620029c0565b819291549060031b91821b91600019901b1916179055565b60ff60015460a01c1662002b7557565b60405163d93c066560e01b8152600490fd5b60026000541462002b99576002600055565b604051633ee5aeb560e01b8152600490fd5b1562002bb357565b60405162461bcd60e51b815260206004820152601460248201527313585d18da08191bd95cc81b9bdd08195e1a5cdd60621b6044820152606490fd5b1562002bf757565b60405162461bcd60e51b815260206004820152601960248201527f416c7265616479206a6f696e65642074686973206d61746368000000000000006044820152606490fd5b3d1562002c7a573d906001600160401b03821162001701576040519162002c6e601f8201601f1916602001846200299e565b82523d6000602084013e565b606090565b806000526004602052604060002060098101600160ff19825416179055426004820155600562002cb460038301544262002a1e565b9101557fc21a199ff4f6a91b067a8a76292ba2e24c5202ddfbc8f5f5a68823666a51e6e96020604051428152a2565b9060405191828154918282526020928383019160005283600020936000905b82821062002d1d5750505062002d1b925003836200299e565b565b85546001600160a01b03168452600195860195889550938101939091019062002d02565b908060209392818452848401376000828201840152601f01601f1916010190565b9291926000818152602090600a82526040908181209460018060a01b0380911695868352845280838320541662002f0a5734881162002ea8578251610544808201908282106001600160401b0383111762002e945790829162002f6d8339039083f0801562002e8a5782809281921699878252600a875285822089835287528582208b6001600160601b0360a01b8254161790558a5af162002e0362002c3c565b501562002e3457907fdc812b51c0940cf442145b67edf0280bdd7b614f0324225077c534681069cf349151868152a3565b60849250519062461bcd60e51b82526004820152602a60248201527f5f6769766543686164414d617463685661756c743a205661756c74206465706f6044820152691cda5d0819985a5b195960b21b6064820152fd5b83513d84823e3d90fd5b634e487b7160e01b85526041600452602485fd5b825162461bcd60e51b815260048101859052603560248201527f5f6769766543686164414d617463685661756c743a20496e73756666696369656044820152746e7420616d6f756e7420666f7220637573746f647960581b6064820152608490fd5b825162461bcd60e51b815260048101859052603560248201527f5f6769766543686164414d617463685661756c743a204d6f6e616368616420616044820152741b1c9958591e481a185cc813585d18da15985d5b1d605a1b6064820152608490fdfe6080806040523461007e5733156100685760008054336001600160a01b03198216811783556040519290916001600160a01b0316907f8be0079c531659141344cd1fd0a4f28419497f9722a3daafe3b4186f6b6457e09080a3600180556104c090816100848239f35b631e4fbdf760e01b815260006004820152602490fd5b600080fdfe60406080815260049081361015610020575b5050361561001e57600080fd5b005b600091823560e01c80630cea7534146102e257806312065fe0146102c7578063715018a61461026a5780638da5cb5b1461023e578063d0f2c371146100f85763f2fde38b1461006f5750610011565b346100f45760203660031901126100f4576100886103bf565b906100916103da565b6001600160a01b039182169283156100de57505082546001600160a01b0319811683178455167f8be0079c531659141344cd1fd0a4f28419497f9722a3daafe3b4186f6b6457e08380a380f35b51631e4fbdf760e01b8152908101849052602490fd5b8280fd5b509060603660031901126100f45761010e6103bf565b67ffffffffffffffff60243581811161023a573660238201121561023a578085013591821161023a57366024838301011161023a576044359161014f610467565b6101576103da565b4783116101dd57869391928493826024938851948593018337810185815203925af1610181610406565b501561018f57826001805580f35b906020608492519162461bcd60e51b8352820152602260248201527f4d617463685661756c743a20547261646520657865637574696f6e206661696c604482015261195960f21b6064820152fd5b845162461bcd60e51b8152602081880152603160248201527f4d617463685661756c743a20496e73756666696369656e74206e61746976652060448201527062616c616e636520666f7220747261646560781b6064820152608490fd5b8580fd5b505034610266578160031936011261026657905490516001600160a01b039091168152602090f35b5080fd5b83346102c457806003193601126102c4576102836103da565b80546001600160a01b03198116825581906001600160a01b03167f8be0079c531659141344cd1fd0a4f28419497f9722a3daafe3b4186f6b6457e08280a380f35b80fd5b50503461026657816003193601126102665751478152602090f35b5090346100f45760203660031901126100f45781356102ff610467565b6103076103da565b47811161037c57835484918291829182916001600160a01b03165af161032b610406565b501561033957826001805580f35b906020606492519162461bcd60e51b8352820152601b60248201527f4d617463685661756c743a205769746864726177206661696c656400000000006044820152fd5b815162461bcd60e51b8152602081850181905260248201527f4d617463685661756c743a20496e73756666696369656e742062616c616e63656044820152606490fd5b600435906001600160a01b03821682036103d557565b600080fd5b6000546001600160a01b031633036103ee57565b60405163118cdaa760e01b8152336004820152602490fd5b3d156104625767ffffffffffffffff903d82811161044c5760405192601f8201601f19908116603f011684019081118482101761044c5760405282523d6000602084013e565b634e487b7160e01b600052604160045260246000fd5b606090565b600260015414610478576002600155565b604051633ee5aeb560e01b8152600490fdfea2646970667358221220c8fcc8471d347ef259848028f655e6939acf27d841376b8e148e852b46759bd364736f6c63430008140033a2646970667358221220bcfc1e6497513859978278ef971ce5e7fd5ca7ed3d900a3dac04635be819409564736f6c63430008140033",
  "linkReferences": {},
  "deployedLinkReferences": {}
}